{
  "contractName": "BancorPriceFloor",
  "abi": [
    {
      "constant": true,
      "inputs": [],
      "name": "TOKEN_PRICE_D",
      "outputs": [
        {
          "name": "",
          "type": "uint256"
        }
      ],
      "payable": false,
      "stateMutability": "view",
      "type": "function"
    },
    {
      "constant": true,
      "inputs": [],
      "name": "TOKEN_PRICE_N",
      "outputs": [
        {
          "name": "",
          "type": "uint256"
        }
      ],
      "payable": false,
      "stateMutability": "view",
      "type": "function"
    },
    {
      "constant": true,
      "inputs": [],
      "name": "version",
      "outputs": [
        {
          "name": "",
          "type": "string"
        }
      ],
      "payable": false,
      "stateMutability": "view",
      "type": "function"
    },
    {
      "constant": false,
      "inputs": [
        {
          "name": "_token",
          "type": "address"
        },
        {
          "name": "_to",
          "type": "address"
        },
        {
          "name": "_amount",
          "type": "uint256"
        }
      ],
      "name": "withdrawTokens",
      "outputs": [],
      "payable": false,
      "stateMutability": "nonpayable",
      "type": "function"
    },
    {
      "constant": false,
      "inputs": [],
      "name": "acceptOwnership",
      "outputs": [],
      "payable": false,
      "stateMutability": "nonpayable",
      "type": "function"
    },
    {
      "constant": true,
      "inputs": [],
      "name": "owner",
      "outputs": [
        {
          "name": "",
          "type": "address"
        }
      ],
      "payable": false,
      "stateMutability": "view",
      "type": "function"
    },
    {
      "constant": true,
      "inputs": [],
      "name": "newOwner",
      "outputs": [
        {
          "name": "",
          "type": "address"
        }
      ],
      "payable": false,
      "stateMutability": "view",
      "type": "function"
    },
    {
      "constant": false,
      "inputs": [
        {
          "name": "_newOwner",
          "type": "address"
        }
      ],
      "name": "transferOwnership",
      "outputs": [],
      "payable": false,
      "stateMutability": "nonpayable",
      "type": "function"
    },
    {
      "constant": true,
      "inputs": [],
      "name": "token",
      "outputs": [
        {
          "name": "",
          "type": "address"
        }
      ],
      "payable": false,
      "stateMutability": "view",
      "type": "function"
    },
    {
      "inputs": [
        {
          "name": "_token",
          "type": "address"
        }
      ],
      "payable": false,
      "stateMutability": "nonpayable",
      "type": "constructor"
    },
    {
      "payable": true,
      "stateMutability": "payable",
      "type": "fallback"
    },
    {
      "anonymous": false,
      "inputs": [
        {
          "indexed": true,
          "name": "_prevOwner",
          "type": "address"
        },
        {
          "indexed": true,
          "name": "_newOwner",
          "type": "address"
        }
      ],
      "name": "OwnerUpdate",
      "type": "event"
    },
    {
      "constant": false,
      "inputs": [],
      "name": "sell",
      "outputs": [
        {
          "name": "amount",
          "type": "uint256"
        }
      ],
      "payable": false,
      "stateMutability": "nonpayable",
      "type": "function"
    },
    {
      "constant": false,
      "inputs": [
        {
          "name": "_amount",
          "type": "uint256"
        }
      ],
      "name": "withdraw",
      "outputs": [],
      "payable": false,
      "stateMutability": "nonpayable",
      "type": "function"
    }
  ],
  "bytecode": "0x60c0604052600360808190527f302e31000000000000000000000000000000000000000000000000000000000060a090815261003e916002919061010d565b5034801561004b57600080fd5b50604051602080610c11833981016040525160008054600160a060020a0319163317905580600160a060020a03811615156100e757604080517f08c379a000000000000000000000000000000000000000000000000000000000815260206004820152600660248201527f3335373839660000000000000000000000000000000000000000000000000000604482015290519081900360640190fd5b5060038054600160a060020a031916600160a060020a03929092169190911790556101a8565b828054600181600116156101000203166002900490600052602060002090601f016020900481019282601f1061014e57805160ff191683800117855561017b565b8280016001018555821561017b579182015b8281111561017b578251825591602001919060010190610160565b5061018792915061018b565b5090565b6101a591905b808211156101875760008155600101610191565b90565b610a5a806101b76000396000f3006080604052600436106100ae5763ffffffff7c01000000000000000000000000000000000000000000000000000000006000350416630d2806ad81146100b05780632e1a7d4d146100d757806345710074146100ef57806345cfad3e1461010457806354fd4d50146101195780635e35359e146101a357806379ba5097146101cd5780638da5cb5b146101e2578063d4ee1d9014610213578063f2fde38b14610228578063fc0c546a14610249575b005b3480156100bc57600080fd5b506100c561025e565b60408051918252519081900360200190f35b3480156100e357600080fd5b506100ae600435610263565b3480156100fb57600080fd5b506100c56102f6565b34801561011057600080fd5b506100c5610497565b34801561012557600080fd5b5061012e61049c565b6040805160208082528351818301528351919283929083019185019080838360005b83811015610168578181015183820152602001610150565b50505050905090810190601f1680156101955780820380516001836020036101000a031916815260200191505b509250505060405180910390f35b3480156101af57600080fd5b506100ae600160a060020a0360043581169060243516604435610527565b3480156101d957600080fd5b506100ae610749565b3480156101ee57600080fd5b506101f761081c565b60408051600160a060020a039092168252519081900360200190f35b34801561021f57600080fd5b506101f761082b565b34801561023457600080fd5b506100ae600160a060020a036004351661083a565b34801561025557600080fd5b506101f7610931565b606481565b600054600160a060020a031633146102c5576040805160e560020a62461bcd02815260206004820152600660248201527f6537313239330000000000000000000000000000000000000000000000000000604482015290519081900360640190fd5b604051339082156108fc029083906000818181858888f193505050501580156102f2573d6000803e3d6000fd5b5050565b600354604080517fdd62ed3e000000000000000000000000000000000000000000000000000000008152336004820152306024820152905160009283928392600160a060020a039092169163dd62ed3e9160448082019260209290919082900301818787803b15801561036857600080fd5b505af115801561037c573d6000803e3d6000fd5b505050506040513d602081101561039257600080fd5b5051600354604080517f23b872dd000000000000000000000000000000000000000000000000000000008152336004820152306024820152604481018490529051929450600160a060020a03909116916323b872dd916064808201926020929091908290030181600087803b15801561040a57600080fd5b505af115801561041e573d6000803e3d6000fd5b505050506040513d602081101561043457600080fd5b5051151561043e57fe5b610460606461045484600163ffffffff61094016565b9063ffffffff6109c016565b604051909150339082156108fc029083906000818181858888f19350505050158015610490573d6000803e3d6000fd5b5092915050565b600181565b6002805460408051602060018416156101000260001901909316849004601f8101849004840282018401909252818152929183018282801561051f5780601f106104f45761010080835404028352916020019161051f565b820191906000526020600020905b81548152906001019060200180831161050257829003601f168201915b505050505081565b600054600160a060020a03163314610589576040805160e560020a62461bcd02815260206004820152600660248201527f6537313239330000000000000000000000000000000000000000000000000000604482015290519081900360640190fd5b82600160a060020a03811615156105ea576040805160e560020a62461bcd02815260206004820152600660248201527f3335373839660000000000000000000000000000000000000000000000000000604482015290519081900360640190fd5b82600160a060020a038116151561064b576040805160e560020a62461bcd02815260206004820152600660248201527f3335373839660000000000000000000000000000000000000000000000000000604482015290519081900360640190fd5b83600160a060020a0381163014156106ad576040805160e560020a62461bcd02815260206004820152600660248201527f6665323738630000000000000000000000000000000000000000000000000000604482015290519081900360640190fd5b85600160a060020a031663a9059cbb86866040518363ffffffff167c01000000000000000000000000000000000000000000000000000000000281526004018083600160a060020a0316600160a060020a0316815260200182815260200192505050600060405180830381600087803b15801561072957600080fd5b505af115801561073d573d6000803e3d6000fd5b50505050505050505050565b600154600160a060020a031633146107ab576040805160e560020a62461bcd02815260206004820152600660248201527f6639373561650000000000000000000000000000000000000000000000000000604482015290519081900360640190fd5b60015460008054604051600160a060020a0393841693909116917f343765429aea5a34b3ff6a3785a98a5abb2597aca87bfbb58632c173d585373a91a3600180546000805473ffffffffffffffffffffffffffffffffffffffff19908116600160a060020a03841617909155169055565b600054600160a060020a031681565b600154600160a060020a031681565b600054600160a060020a0316331461089c576040805160e560020a62461bcd02815260206004820152600660248201527f6537313239330000000000000000000000000000000000000000000000000000604482015290519081900360640190fd5b600054600160a060020a0382811691161415610902576040805160e560020a62461bcd02815260206004820152600660248201527f6632306333390000000000000000000000000000000000000000000000000000604482015290519081900360640190fd5b6001805473ffffffffffffffffffffffffffffffffffffffff1916600160a060020a0392909216919091179055565b600354600160a060020a031681565b6000808315156109535760009150610490565b5082820282848281151561096357fe5b04146109b9576040805160e560020a62461bcd02815260206004820152600660248201527f6662653835310000000000000000000000000000000000000000000000000000604482015290519081900360640190fd5b9392505050565b600080808311610a1a576040805160e560020a62461bcd02815260206004820152600660248201527f6337386131380000000000000000000000000000000000000000000000000000604482015290519081900360640190fd5b8284811515610a2557fe5b049493505050505600a165627a7a723058201f09f34d544daff8094120cfd525692abfe968d5f066dd3d5a7321ebe0a384200029",
  "source": "pragma solidity ^0.4.24;\nimport '../utility/TokenHolder.sol';\nimport '../utility/Owned.sol';\nimport '../utility/Utils.sol';\nimport '../utility/SafeMath.sol';\nimport '../token/interfaces/ISmartToken.sol';\n\n/**\n    @dev BancorPriceFloor v0.1\n\n    The bancor price floor contract is a simple contract that allows selling smart tokens for a constant ETH price\n\n    'Owned' is specified here for readability reasons\n*/\ncontract BancorPriceFloor is Owned, TokenHolder {\n    using SafeMath for uint256;\n\n\n    uint256 public constant TOKEN_PRICE_N = 1;      // crowdsale price in wei (numerator)\n    uint256 public constant TOKEN_PRICE_D = 100;    // crowdsale price in wei (denominator)\n\n    string public version = '0.1';\n    ISmartToken public token; // smart token the contract allows selling\n\n    /**\n        @dev initializes a new BancorPriceFloor instance\n\n        @param _token   smart token the contract allows selling\n    */\n    constructor(ISmartToken _token)\n        public\n        validAddress(_token)\n    {\n        token = _token;\n    }\n\n    /**\n        @dev sells the smart token for ETH\n        note that the function will sell the full allowance amount\n\n        @return ETH sent in return\n    */\n    function sell() public returns (uint256 amount) {\n        uint256 allowance = token.allowance(msg.sender, this); // get the full allowance amount\n        assert(token.transferFrom(msg.sender, this, allowance)); // transfer all tokens from the sender to the contract\n        uint256 etherValue = allowance.mul(TOKEN_PRICE_N).div(TOKEN_PRICE_D); // calculate ETH value of the tokens\n        msg.sender.transfer(etherValue); // send the ETH amount to the seller\n        return etherValue;\n    }\n\n    /**\n        @dev withdraws ETH from the contract\n\n        @param _amount  amount of ETH to withdraw\n    */\n    function withdraw(uint256 _amount) public ownerOnly {\n        msg.sender.transfer(_amount); // send the amount\n    }\n\n    /**\n        @dev deposits ETH in the contract\n    */\n    function() public payable {\n    }\n}\n",
  "sourcePath": "/home/lash/src/ext/sempo/contracts/solidity/contracts/legacy/BancorPriceFloor.sol",
  "compiler": {
    "name": "solc",
    "version": "0.4.26+commit.4563c3fc.Emscripten.clang"
  },
  "schemaVersion": "3.0.11",
  "updatedAt": "2020-02-26T09:32:34.249Z",
  "devdoc": {
    "methods": {
      "acceptOwnership()": {
        "details": "used by a new owner to accept an ownership transfer"
      },
      "sell()": {
        "details": "sells the smart token for ETH note that the function will sell the full allowance amount",
        "return": "ETH sent in return"
      },
      "transferOwnership(address)": {
        "details": "allows transferring the contract ownership the new owner still needs to accept the transfer can only be called by the contract owner",
        "params": {
          "_newOwner": "new contract owner"
        }
      },
      "withdraw(uint256)": {
        "details": "withdraws ETH from the contract",
        "params": {
          "_amount": "amount of ETH to withdraw"
        }
      },
      "withdrawTokens(address,address,uint256)": {
        "details": "withdraws tokens held by the contract and sends them to an account can only be called by the owner",
        "params": {
          "_amount": "amount to withdraw",
          "_to": "account to receive the new amount",
          "_token": "ERC20 token contract address"
        }
      }
    }
  },
  "userdoc": {
    "methods": {}
  }
}