{
  "contractName": "BancorX",
  "abi": [
    {
      "constant": true,
      "inputs": [],
      "name": "bntConverter",
      "outputs": [
        {
          "name": "",
          "type": "address"
        }
      ],
      "payable": false,
      "stateMutability": "view",
      "type": "function"
    },
    {
      "constant": true,
      "inputs": [],
      "name": "BANCOR_CONVERTER_UPGRADER",
      "outputs": [
        {
          "name": "",
          "type": "bytes32"
        }
      ],
      "payable": false,
      "stateMutability": "view",
      "type": "function"
    },
    {
      "constant": true,
      "inputs": [],
      "name": "prevLockLimit",
      "outputs": [
        {
          "name": "",
          "type": "uint256"
        }
      ],
      "payable": false,
      "stateMutability": "view",
      "type": "function"
    },
    {
      "constant": true,
      "inputs": [],
      "name": "prevLockBlockNumber",
      "outputs": [
        {
          "name": "",
          "type": "uint256"
        }
      ],
      "payable": false,
      "stateMutability": "view",
      "type": "function"
    },
    {
      "constant": true,
      "inputs": [],
      "name": "BNT_TOKEN",
      "outputs": [
        {
          "name": "",
          "type": "bytes32"
        }
      ],
      "payable": false,
      "stateMutability": "view",
      "type": "function"
    },
    {
      "constant": true,
      "inputs": [],
      "name": "minLimit",
      "outputs": [
        {
          "name": "",
          "type": "uint256"
        }
      ],
      "payable": false,
      "stateMutability": "view",
      "type": "function"
    },
    {
      "constant": true,
      "inputs": [],
      "name": "allowRegistryUpdate",
      "outputs": [
        {
          "name": "",
          "type": "bool"
        }
      ],
      "payable": false,
      "stateMutability": "view",
      "type": "function"
    },
    {
      "constant": true,
      "inputs": [],
      "name": "CONTRACT_REGISTRY",
      "outputs": [
        {
          "name": "",
          "type": "bytes32"
        }
      ],
      "payable": false,
      "stateMutability": "view",
      "type": "function"
    },
    {
      "constant": true,
      "inputs": [
        {
          "name": "",
          "type": "address"
        }
      ],
      "name": "reporters",
      "outputs": [
        {
          "name": "",
          "type": "bool"
        }
      ],
      "payable": false,
      "stateMutability": "view",
      "type": "function"
    },
    {
      "constant": true,
      "inputs": [],
      "name": "prevReleaseBlockNumber",
      "outputs": [
        {
          "name": "",
          "type": "uint256"
        }
      ],
      "payable": false,
      "stateMutability": "view",
      "type": "function"
    },
    {
      "constant": true,
      "inputs": [],
      "name": "maxReleaseLimit",
      "outputs": [
        {
          "name": "",
          "type": "uint256"
        }
      ],
      "payable": false,
      "stateMutability": "view",
      "type": "function"
    },
    {
      "constant": true,
      "inputs": [],
      "name": "version",
      "outputs": [
        {
          "name": "",
          "type": "uint16"
        }
      ],
      "payable": false,
      "stateMutability": "view",
      "type": "function"
    },
    {
      "constant": true,
      "inputs": [],
      "name": "BANCOR_CONVERTER_FACTORY",
      "outputs": [
        {
          "name": "",
          "type": "bytes32"
        }
      ],
      "payable": false,
      "stateMutability": "view",
      "type": "function"
    },
    {
      "constant": false,
      "inputs": [
        {
          "name": "_token",
          "type": "address"
        },
        {
          "name": "_to",
          "type": "address"
        },
        {
          "name": "_amount",
          "type": "uint256"
        }
      ],
      "name": "withdrawTokens",
      "outputs": [],
      "payable": false,
      "stateMutability": "nonpayable",
      "type": "function"
    },
    {
      "constant": true,
      "inputs": [],
      "name": "prevRegistry",
      "outputs": [
        {
          "name": "",
          "type": "address"
        }
      ],
      "payable": false,
      "stateMutability": "view",
      "type": "function"
    },
    {
      "constant": true,
      "inputs": [],
      "name": "BNT_CONVERTER",
      "outputs": [
        {
          "name": "",
          "type": "bytes32"
        }
      ],
      "payable": false,
      "stateMutability": "view",
      "type": "function"
    },
    {
      "constant": true,
      "inputs": [],
      "name": "BANCOR_FORMULA",
      "outputs": [
        {
          "name": "",
          "type": "bytes32"
        }
      ],
      "payable": false,
      "stateMutability": "view",
      "type": "function"
    },
    {
      "constant": true,
      "inputs": [],
      "name": "limitIncPerBlock",
      "outputs": [
        {
          "name": "",
          "type": "uint256"
        }
      ],
      "payable": false,
      "stateMutability": "view",
      "type": "function"
    },
    {
      "constant": false,
      "inputs": [],
      "name": "acceptOwnership",
      "outputs": [],
      "payable": false,
      "stateMutability": "nonpayable",
      "type": "function"
    },
    {
      "constant": true,
      "inputs": [],
      "name": "registry",
      "outputs": [
        {
          "name": "",
          "type": "address"
        }
      ],
      "payable": false,
      "stateMutability": "view",
      "type": "function"
    },
    {
      "constant": true,
      "inputs": [],
      "name": "CONTRACT_FEATURES",
      "outputs": [
        {
          "name": "",
          "type": "bytes32"
        }
      ],
      "payable": false,
      "stateMutability": "view",
      "type": "function"
    },
    {
      "constant": true,
      "inputs": [
        {
          "name": "",
          "type": "uint256"
        },
        {
          "name": "",
          "type": "address"
        }
      ],
      "name": "reportedTxs",
      "outputs": [
        {
          "name": "",
          "type": "bool"
        }
      ],
      "payable": false,
      "stateMutability": "view",
      "type": "function"
    },
    {
      "constant": true,
      "inputs": [],
      "name": "owner",
      "outputs": [
        {
          "name": "",
          "type": "address"
        }
      ],
      "payable": false,
      "stateMutability": "view",
      "type": "function"
    },
    {
      "constant": true,
      "inputs": [],
      "name": "BANCOR_NETWORK",
      "outputs": [
        {
          "name": "",
          "type": "bytes32"
        }
      ],
      "payable": false,
      "stateMutability": "view",
      "type": "function"
    },
    {
      "constant": true,
      "inputs": [],
      "name": "BANCOR_GAS_PRICE_LIMIT",
      "outputs": [
        {
          "name": "",
          "type": "bytes32"
        }
      ],
      "payable": false,
      "stateMutability": "view",
      "type": "function"
    },
    {
      "constant": true,
      "inputs": [],
      "name": "reportingEnabled",
      "outputs": [
        {
          "name": "",
          "type": "bool"
        }
      ],
      "payable": false,
      "stateMutability": "view",
      "type": "function"
    },
    {
      "constant": true,
      "inputs": [
        {
          "name": "",
          "type": "uint256"
        }
      ],
      "name": "transactions",
      "outputs": [
        {
          "name": "amount",
          "type": "uint256"
        },
        {
          "name": "fromBlockchain",
          "type": "bytes32"
        },
        {
          "name": "to",
          "type": "address"
        },
        {
          "name": "numOfReports",
          "type": "uint8"
        },
        {
          "name": "completed",
          "type": "bool"
        }
      ],
      "payable": false,
      "stateMutability": "view",
      "type": "function"
    },
    {
      "constant": true,
      "inputs": [],
      "name": "maxLockLimit",
      "outputs": [
        {
          "name": "",
          "type": "uint256"
        }
      ],
      "payable": false,
      "stateMutability": "view",
      "type": "function"
    },
    {
      "constant": true,
      "inputs": [],
      "name": "bntToken",
      "outputs": [
        {
          "name": "",
          "type": "address"
        }
      ],
      "payable": false,
      "stateMutability": "view",
      "type": "function"
    },
    {
      "constant": true,
      "inputs": [],
      "name": "BANCOR_X",
      "outputs": [
        {
          "name": "",
          "type": "bytes32"
        }
      ],
      "payable": false,
      "stateMutability": "view",
      "type": "function"
    },
    {
      "constant": true,
      "inputs": [],
      "name": "minRequiredReports",
      "outputs": [
        {
          "name": "",
          "type": "uint256"
        }
      ],
      "payable": false,
      "stateMutability": "view",
      "type": "function"
    },
    {
      "constant": true,
      "inputs": [],
      "name": "BANCOR_X_UPGRADER",
      "outputs": [
        {
          "name": "",
          "type": "bytes32"
        }
      ],
      "payable": false,
      "stateMutability": "view",
      "type": "function"
    },
    {
      "constant": true,
      "inputs": [],
      "name": "newOwner",
      "outputs": [
        {
          "name": "",
          "type": "address"
        }
      ],
      "payable": false,
      "stateMutability": "view",
      "type": "function"
    },
    {
      "constant": true,
      "inputs": [
        {
          "name": "",
          "type": "uint256"
        }
      ],
      "name": "transactionIds",
      "outputs": [
        {
          "name": "",
          "type": "uint256"
        }
      ],
      "payable": false,
      "stateMutability": "view",
      "type": "function"
    },
    {
      "constant": false,
      "inputs": [
        {
          "name": "_newOwner",
          "type": "address"
        }
      ],
      "name": "transferOwnership",
      "outputs": [],
      "payable": false,
      "stateMutability": "nonpayable",
      "type": "function"
    },
    {
      "constant": true,
      "inputs": [],
      "name": "NON_STANDARD_TOKEN_REGISTRY",
      "outputs": [
        {
          "name": "",
          "type": "bytes32"
        }
      ],
      "payable": false,
      "stateMutability": "view",
      "type": "function"
    },
    {
      "constant": true,
      "inputs": [],
      "name": "prevReleaseLimit",
      "outputs": [
        {
          "name": "",
          "type": "uint256"
        }
      ],
      "payable": false,
      "stateMutability": "view",
      "type": "function"
    },
    {
      "constant": true,
      "inputs": [],
      "name": "xTransfersEnabled",
      "outputs": [
        {
          "name": "",
          "type": "bool"
        }
      ],
      "payable": false,
      "stateMutability": "view",
      "type": "function"
    },
    {
      "inputs": [
        {
          "name": "_maxLockLimit",
          "type": "uint256"
        },
        {
          "name": "_maxReleaseLimit",
          "type": "uint256"
        },
        {
          "name": "_minLimit",
          "type": "uint256"
        },
        {
          "name": "_limitIncPerBlock",
          "type": "uint256"
        },
        {
          "name": "_minRequiredReports",
          "type": "uint256"
        },
        {
          "name": "_registry",
          "type": "address"
        }
      ],
      "payable": false,
      "stateMutability": "nonpayable",
      "type": "constructor"
    },
    {
      "anonymous": false,
      "inputs": [
        {
          "indexed": true,
          "name": "_from",
          "type": "address"
        },
        {
          "indexed": false,
          "name": "_amount",
          "type": "uint256"
        }
      ],
      "name": "TokensLock",
      "type": "event"
    },
    {
      "anonymous": false,
      "inputs": [
        {
          "indexed": true,
          "name": "_to",
          "type": "address"
        },
        {
          "indexed": false,
          "name": "_amount",
          "type": "uint256"
        }
      ],
      "name": "TokensRelease",
      "type": "event"
    },
    {
      "anonymous": false,
      "inputs": [
        {
          "indexed": true,
          "name": "_from",
          "type": "address"
        },
        {
          "indexed": false,
          "name": "_toBlockchain",
          "type": "bytes32"
        },
        {
          "indexed": true,
          "name": "_to",
          "type": "bytes32"
        },
        {
          "indexed": false,
          "name": "_amount",
          "type": "uint256"
        },
        {
          "indexed": false,
          "name": "_id",
          "type": "uint256"
        }
      ],
      "name": "XTransfer",
      "type": "event"
    },
    {
      "anonymous": false,
      "inputs": [
        {
          "indexed": true,
          "name": "_reporter",
          "type": "address"
        },
        {
          "indexed": false,
          "name": "_fromBlockchain",
          "type": "bytes32"
        },
        {
          "indexed": false,
          "name": "_txId",
          "type": "uint256"
        },
        {
          "indexed": false,
          "name": "_to",
          "type": "address"
        },
        {
          "indexed": false,
          "name": "_amount",
          "type": "uint256"
        },
        {
          "indexed": false,
          "name": "_xTransferId",
          "type": "uint256"
        }
      ],
      "name": "TxReport",
      "type": "event"
    },
    {
      "anonymous": false,
      "inputs": [
        {
          "indexed": false,
          "name": "_to",
          "type": "address"
        },
        {
          "indexed": false,
          "name": "_id",
          "type": "uint256"
        }
      ],
      "name": "XTransferComplete",
      "type": "event"
    },
    {
      "anonymous": false,
      "inputs": [
        {
          "indexed": true,
          "name": "_prevOwner",
          "type": "address"
        },
        {
          "indexed": true,
          "name": "_newOwner",
          "type": "address"
        }
      ],
      "name": "OwnerUpdate",
      "type": "event"
    },
    {
      "constant": false,
      "inputs": [
        {
          "name": "_maxLockLimit",
          "type": "uint256"
        }
      ],
      "name": "setMaxLockLimit",
      "outputs": [],
      "payable": false,
      "stateMutability": "nonpayable",
      "type": "function"
    },
    {
      "constant": false,
      "inputs": [
        {
          "name": "_maxReleaseLimit",
          "type": "uint256"
        }
      ],
      "name": "setMaxReleaseLimit",
      "outputs": [],
      "payable": false,
      "stateMutability": "nonpayable",
      "type": "function"
    },
    {
      "constant": false,
      "inputs": [
        {
          "name": "_minLimit",
          "type": "uint256"
        }
      ],
      "name": "setMinLimit",
      "outputs": [],
      "payable": false,
      "stateMutability": "nonpayable",
      "type": "function"
    },
    {
      "constant": false,
      "inputs": [
        {
          "name": "_limitIncPerBlock",
          "type": "uint256"
        }
      ],
      "name": "setLimitIncPerBlock",
      "outputs": [],
      "payable": false,
      "stateMutability": "nonpayable",
      "type": "function"
    },
    {
      "constant": false,
      "inputs": [
        {
          "name": "_minRequiredReports",
          "type": "uint256"
        }
      ],
      "name": "setMinRequiredReports",
      "outputs": [],
      "payable": false,
      "stateMutability": "nonpayable",
      "type": "function"
    },
    {
      "constant": false,
      "inputs": [
        {
          "name": "_reporter",
          "type": "address"
        },
        {
          "name": "_active",
          "type": "bool"
        }
      ],
      "name": "setReporter",
      "outputs": [],
      "payable": false,
      "stateMutability": "nonpayable",
      "type": "function"
    },
    {
      "constant": false,
      "inputs": [
        {
          "name": "_enable",
          "type": "bool"
        }
      ],
      "name": "enableXTransfers",
      "outputs": [],
      "payable": false,
      "stateMutability": "nonpayable",
      "type": "function"
    },
    {
      "constant": false,
      "inputs": [
        {
          "name": "_enable",
          "type": "bool"
        }
      ],
      "name": "enableReporting",
      "outputs": [],
      "payable": false,
      "stateMutability": "nonpayable",
      "type": "function"
    },
    {
      "constant": false,
      "inputs": [
        {
          "name": "_disable",
          "type": "bool"
        }
      ],
      "name": "disableRegistryUpdate",
      "outputs": [],
      "payable": false,
      "stateMutability": "nonpayable",
      "type": "function"
    },
    {
      "constant": false,
      "inputs": [],
      "name": "setBNTConverterAddress",
      "outputs": [],
      "payable": false,
      "stateMutability": "nonpayable",
      "type": "function"
    },
    {
      "constant": false,
      "inputs": [],
      "name": "updateRegistry",
      "outputs": [],
      "payable": false,
      "stateMutability": "nonpayable",
      "type": "function"
    },
    {
      "constant": false,
      "inputs": [],
      "name": "restoreRegistry",
      "outputs": [],
      "payable": false,
      "stateMutability": "nonpayable",
      "type": "function"
    },
    {
      "constant": false,
      "inputs": [
        {
          "name": "_reporters",
          "type": "address[]"
        }
      ],
      "name": "upgrade",
      "outputs": [],
      "payable": false,
      "stateMutability": "nonpayable",
      "type": "function"
    },
    {
      "constant": false,
      "inputs": [
        {
          "name": "_toBlockchain",
          "type": "bytes32"
        },
        {
          "name": "_to",
          "type": "bytes32"
        },
        {
          "name": "_amount",
          "type": "uint256"
        },
        {
          "name": "_id",
          "type": "uint256"
        }
      ],
      "name": "xTransfer",
      "outputs": [],
      "payable": false,
      "stateMutability": "nonpayable",
      "type": "function"
    },
    {
      "constant": false,
      "inputs": [
        {
          "name": "_toBlockchain",
          "type": "bytes32"
        },
        {
          "name": "_to",
          "type": "bytes32"
        },
        {
          "name": "_amount",
          "type": "uint256"
        }
      ],
      "name": "xTransfer",
      "outputs": [],
      "payable": false,
      "stateMutability": "nonpayable",
      "type": "function"
    },
    {
      "constant": false,
      "inputs": [
        {
          "name": "_fromBlockchain",
          "type": "bytes32"
        },
        {
          "name": "_txId",
          "type": "uint256"
        },
        {
          "name": "_to",
          "type": "address"
        },
        {
          "name": "_amount",
          "type": "uint256"
        },
        {
          "name": "_xTransferId",
          "type": "uint256"
        }
      ],
      "name": "reportTx",
      "outputs": [],
      "payable": false,
      "stateMutability": "nonpayable",
      "type": "function"
    },
    {
      "constant": true,
      "inputs": [
        {
          "name": "_xTransferId",
          "type": "uint256"
        },
        {
          "name": "_for",
          "type": "address"
        }
      ],
      "name": "getXTransferAmount",
      "outputs": [
        {
          "name": "",
          "type": "uint256"
        }
      ],
      "payable": false,
      "stateMutability": "view",
      "type": "function"
    },
    {
      "constant": true,
      "inputs": [],
      "name": "getCurrentLockLimit",
      "outputs": [
        {
          "name": "",
          "type": "uint256"
        }
      ],
      "payable": false,
      "stateMutability": "view",
      "type": "function"
    },
    {
      "constant": true,
      "inputs": [],
      "name": "getCurrentReleaseLimit",
      "outputs": [
        {
          "name": "",
          "type": "uint256"
        }
      ],
      "payable": false,
      "stateMutability": "view",
      "type": "function"
    }
  ],
  "bytecode": "0x6080604052600180547402000000000000000000000000000000000000000060a060020a61ffff0219909116179055600e805460b060020a60ff021960a860020a60ff021960a060020a60ff021990921674010000000000000000000000000000000000000000179190911675010000000000000000000000000000000000000000001716760100000000000000000000000000000000000000000000179055348015620000ac57600080fd5b5060405160c080620028038339810160408181528251602080850151838601516060870151608088015160a09098015160008054600160a060020a0319908116331782556002889055600386905560048581556007859055600a8c905560058990556006879055436008819055600955600b8054600160a060020a03808716918516821792839055600c80549095169091179093557fbb34534c000000000000000000000000000000000000000000000000000000008c527f424e54546f6b656e000000000000000000000000000000000000000000000000918c01919091529851979a9599949893979596929593169363bb34534c936024808301949391928390030190829087803b158015620001c357600080fd5b505af1158015620001d8573d6000803e3d6000fd5b505050506040513d6020811015620001ef57600080fd5b5051600e8054600160a060020a031916600160a060020a03928316179055600b54604080517fbb34534c0000000000000000000000000000000000000000000000000000000081527f424e54436f6e766572746572000000000000000000000000000000000000000060048201529051919092169163bb34534c9160248083019260209291908290030181600087803b1580156200028c57600080fd5b505af1158015620002a1573d6000803e3d6000fd5b505050506040513d6020811015620002b857600080fd5b5051600d8054600160a060020a03909216600160a060020a031990921691909117905550505050505061251280620002f16000396000f3006080604052600436106102a85763ffffffff7c0100000000000000000000000000000000000000000000000000000000600035041663011857d081146102ad5780630183592b146102de5780630c87355e1461033557806316c76c271461035c57806319967439146103715780631aff29eb146103865780631d000b611461039b5780631e04a593146103b05780631fd8088d146103c557806320d7d367146103da57806325f9bfef146104035780632cc1cd9e14610418578063427c037414610439578063492825381461045a57806349d10b64146104785780634a453af11461048d5780634b3e475c146104a257806352e94ce3146104b757806354fd4d50146104cc5780635a46f06c146104f85780635e35359e1461050d57806361cd756e1461053757806362614ae61461054c5780636d7bd3fc146105615780636dc6a01b146105765780636ec6d4a6146105a357806372f43d19146105bb57806379ba5097146105d05780637b103999146105e557806383315b6e146105fa5780638544c52d1461060f5780638da5cb5b146106335780639232494e146106485780639249993a1461065d5780639390701c146106725780639ace38c214610687578063a50c326c146106d7578063a5c670ca146106ef578063a8c36a9014610709578063aafd6b761461071e578063af2b961814610742578063af6c0f601461075a578063b4a176d31461076f578063bf28ece414610784578063c4a8598e1461079c578063ca27e011146107b1578063cc97b38f146107c6578063d4ee1d90146107db578063df68ab02146107f0578063e1bb513314610808578063e36f8dc51461082e578063ed1d73a614610846578063f2fde38b14610860578063f5286b9c14610881578063f7385f7614610896578063fa1c594e146108ab578063fbb24692146108c5575b600080fd5b3480156102b957600080fd5b506102c26108da565b60408051600160a060020a039092168252519081900360200190f35b3480156102ea57600080fd5b5060408051602060048035808201358381028086018501909652808552610333953695939460249493850192918291850190849080828437509497506108e99650505050505050565b005b34801561034157600080fd5b5061034a610acb565b60408051918252519081900360200190f35b34801561036857600080fd5b5061034a610aef565b34801561037d57600080fd5b5061034a610af5565b34801561039257600080fd5b5061034a610b4f565b3480156103a757600080fd5b5061034a610b55565b3480156103bc57600080fd5b5061034a610b79565b3480156103d157600080fd5b5061034a610bbf565b3480156103e657600080fd5b506103ef610bc5565b604080519115158252519081900360200190f35b34801561040f57600080fd5b5061034a610be8565b34801561042457600080fd5b506103ef600160a060020a0360043516610c0c565b34801561044557600080fd5b50610333600435602435604435606435610c21565b34801561046657600080fd5b50610333600435602435604435610d64565b34801561048457600080fd5b50610333610ea6565b34801561049957600080fd5b506103336110a2565b3480156104ae57600080fd5b5061034a6111d0565b3480156104c357600080fd5b5061034a6111d6565b3480156104d857600080fd5b506104e16111dc565b6040805161ffff9092168252519081900360200190f35b34801561050457600080fd5b5061034a6111ed565b34801561051957600080fd5b50610333600160a060020a0360043581169060243516604435611211565b34801561054357600080fd5b506102c261141f565b34801561055857600080fd5b5061034a61142e565b34801561056d57600080fd5b5061034a611452565b34801561058257600080fd5b50610333600435602435600160a060020a0360443516606435608435611476565b3480156105af57600080fd5b5061033360043561193f565b3480156105c757600080fd5b5061034a611992565b3480156105dc57600080fd5b50610333611998565b3480156105f157600080fd5b506102c2611a6b565b34801561060657600080fd5b5061034a611a7a565b34801561061b57600080fd5b506103ef600435600160a060020a0360243516611a9e565b34801561063f57600080fd5b506102c2611abe565b34801561065457600080fd5b5061034a611acd565b34801561066957600080fd5b5061034a611af1565b34801561067e57600080fd5b506103ef611b15565b34801561069357600080fd5b5061069f600435611b25565b604080519586526020860194909452600160a060020a039092168484015260ff16606084015215156080830152519081900360a00190f35b3480156106e357600080fd5b50610333600435611b65565b3480156106fb57600080fd5b506103336004351515611bb8565b34801561071557600080fd5b5061034a611c35565b34801561072a57600080fd5b5061034a600435600160a060020a0360243516611c3b565b34801561074e57600080fd5b50610333600435611cc9565b34801561076657600080fd5b506102c2611d1c565b34801561077b57600080fd5b50610333611d2b565b34801561079057600080fd5b50610333600435611dca565b3480156107a857600080fd5b5061034a611e1d565b3480156107bd57600080fd5b5061034a611e41565b3480156107d257600080fd5b5061034a611e47565b3480156107e757600080fd5b506102c2611e6b565b3480156107fc57600080fd5b50610333600435611e7a565b34801561081457600080fd5b50610333600160a060020a03600435166024351515611ecd565b34801561083a57600080fd5b5061034a600435611f46565b34801561085257600080fd5b506103336004351515611f58565b34801561086c57600080fd5b50610333600160a060020a0360043516611fd6565b34801561088d57600080fd5b5061034a6120b9565b3480156108a257600080fd5b5061034a6120dd565b3480156108b757600080fd5b5061033360043515156120e3565b3480156108d157600080fd5b506103ef612172565b600d54600160a060020a031681565b60008054600160a060020a03163314610938576040805160e560020a62461bcd028152602060048201526006602482015260d060020a6565373132393302604482015290519081900360640190fd5b600b54604080517fbb34534c0000000000000000000000000000000000000000000000000000000081527f42616e636f72585570677261646572000000000000000000000000000000000060048201529051600160a060020a039092169163bb34534c916024808201926020929091908290030181600087803b1580156109be57600080fd5b505af11580156109d2573d6000803e3d6000fd5b505050506040513d60208110156109e857600080fd5b505190506109f581611fd6565b600154604080517f546872cc00000000000000000000000000000000000000000000000000000000815260a060020a90920461ffff166004830181815260248401928352855160448501528551600160a060020a0386169463546872cc948893929091606401906020808601910280838360005b83811015610a81578181015183820152602001610a69565b505050509050019350505050600060405180830381600087803b158015610aa757600080fd5b505af1158015610abb573d6000803e3d6000fd5b50505050610ac7611998565b5050565b7f42616e636f72436f6e766572746572557067726164657200000000000000000081565b60055481565b600080610b31610b22600754610b166008544361218290919063ffffffff16565b9063ffffffff6121e216565b6005549063ffffffff61226216565b9050600254811115610b47576002549150610b4b565b8091505b5090565b60085481565b7f424e54546f6b656e00000000000000000000000000000000000000000000000081565b600080610ba9610b9a600754610b166009544361218290919063ffffffff16565b6006549063ffffffff61226216565b9050600354811115610b47576003549150610b4b565b60045481565b600e54760100000000000000000000000000000000000000000000900460ff1681565b7f436f6e747261637452656769737472790000000000000000000000000000000081565b60126020526000908152604090205460ff1681565b600e5460009060a060020a900460ff161515610c87576040805160e560020a62461bcd02815260206004820152600660248201527f6132303032630000000000000000000000000000000000000000000000000000604482015290519081900360640190fd5b610c8f610af5565b90506004548310158015610ca35750808311155b1515610cf9576040805160e560020a62461bcd02815260206004820152600660248201527f6462356433660000000000000000000000000000000000000000000000000000604482015290519081900360640190fd5b610d02836122bf565b610d12818463ffffffff61218216565b6005554360085560408051868152602081018590528082018490529051859133917f4780f3edc9124597ede658e04ed3d8887b58c86943b2a805dc961cf512570b629181900360600190a35050505050565b600e5460009060a060020a900460ff161515610dca576040805160e560020a62461bcd02815260206004820152600660248201527f6132303032630000000000000000000000000000000000000000000000000000604482015290519081900360640190fd5b610dd2610af5565b90506004548210158015610de65750808211155b1515610e3c576040805160e560020a62461bcd02815260206004820152600660248201527f3063613938640000000000000000000000000000000000000000000000000000604482015290519081900360640190fd5b610e45826122bf565b610e55818363ffffffff61218216565b6005554360085560408051858152602081018490526000818301529051849133917f4780f3edc9124597ede658e04ed3d8887b58c86943b2a805dc961cf512570b629181900360600190a350505050565b600e54600090760100000000000000000000000000000000000000000000900460ff1680610ede5750600054600160a060020a031633145b1515610f34576040805160e560020a62461bcd02815260206004820152600660248201527f3637393765350000000000000000000000000000000000000000000000000000604482015290519081900360640190fd5b600b54604080517fbb34534c0000000000000000000000000000000000000000000000000000000081527f436f6e747261637452656769737472790000000000000000000000000000000060048201529051600160a060020a039092169163bb34534c916024808201926020929091908290030181600087803b158015610fba57600080fd5b505af1158015610fce573d6000803e3d6000fd5b505050506040513d6020811015610fe457600080fd5b5051600b54909150600160a060020a0380831691161480159061100f5750600160a060020a03811615155b1515611065576040805160e560020a62461bcd02815260206004820152600660248201527f3763393530350000000000000000000000000000000000000000000000000000604482015290519081900360640190fd5b600b8054600c8054600160a060020a0380841673ffffffffffffffffffffffffffffffffffffffff19928316179092559091169216919091179055565b600054600160a060020a031633146110f0576040805160e560020a62461bcd028152602060048201526006602482015260d060020a6565373132393302604482015290519081900360640190fd5b600b54604080517fbb34534c0000000000000000000000000000000000000000000000000000000081527f424e54436f6e766572746572000000000000000000000000000000000000000060048201529051600160a060020a039092169163bb34534c916024808201926020929091908290030181600087803b15801561117657600080fd5b505af115801561118a573d6000803e3d6000fd5b505050506040513d60208110156111a057600080fd5b5051600d805473ffffffffffffffffffffffffffffffffffffffff1916600160a060020a03909216919091179055565b60095481565b60035481565b60015460a060020a900461ffff1681565b7f42616e636f72436f6e766572746572466163746f72790000000000000000000081565b600054600160a060020a0316331461125f576040805160e560020a62461bcd028152602060048201526006602482015260d060020a6565373132393302604482015290519081900360640190fd5b82600160a060020a03811615156112c0576040805160e560020a62461bcd02815260206004820152600660248201527f3335373839660000000000000000000000000000000000000000000000000000604482015290519081900360640190fd5b82600160a060020a0381161515611321576040805160e560020a62461bcd02815260206004820152600660248201527f3335373839660000000000000000000000000000000000000000000000000000604482015290519081900360640190fd5b83600160a060020a038116301415611383576040805160e560020a62461bcd02815260206004820152600660248201527f6665323738630000000000000000000000000000000000000000000000000000604482015290519081900360640190fd5b85600160a060020a031663a9059cbb86866040518363ffffffff167c01000000000000000000000000000000000000000000000000000000000281526004018083600160a060020a0316600160a060020a0316815260200182815260200192505050600060405180830381600087803b1580156113ff57600080fd5b505af1158015611413573d6000803e3d6000fd5b50505050505050505050565b600c54600160a060020a031681565b7f424e54436f6e766572746572000000000000000000000000000000000000000081565b7f42616e636f72466f726d756c610000000000000000000000000000000000000081565b3360009081526012602052604081205460ff1615156114df576040805160e560020a62461bcd02815260206004820152600660248201527f6263623134640000000000000000000000000000000000000000000000000000604482015290519081900360640190fd5b600e5460a860020a900460ff161515611542576040805160e560020a62461bcd02815260206004820152600660248201527f3133336637660000000000000000000000000000000000000000000000000000604482015290519081900360640190fd5b600085815260116020908152604080832033845290915290205460ff16156115b4576040805160e560020a62461bcd02815260206004820152600660248201527f3632633533350000000000000000000000000000000000000000000000000000604482015290519081900360640190fd5b5060008481526011602090815260408083203384528252808320805460ff19166001179055868352600f9091529020600281015460a060020a900460ff1615156116ad5760028101805473ffffffffffffffffffffffffffffffffffffffff1916600160a060020a0386161790558281556001810186905581156116a85760008281526010602052604090205415611696576040805160e560020a62461bcd02815260206004820152600660248201527f3561336331650000000000000000000000000000000000000000000000000000604482015290519081900360640190fd5b60008281526010602052604090208590555b61179c565b6002810154600160a060020a0385811691161480156116cc5750805483145b80156116db5750600181015486145b1515611731576040805160e560020a62461bcd02815260206004820152600660248201527f3066343839380000000000000000000000000000000000000000000000000000604482015290519081900360640190fd5b811561179c57600082815260106020526040902054851461179c576040805160e560020a62461bcd02815260206004820152600660248201527f3564383761320000000000000000000000000000000000000000000000000000604482015290519081900360640190fd5b600281018054600160ff60a060020a808404821692909201160274ff0000000000000000000000000000000000000000199091161790556040805187815260208101879052600160a060020a038616818301526060810185905260808101849052905133917f5e77831e701760f7f4a1e61a8e9834d773b52c45d91ba9006b7d2afb7a144739919081900360a00190a2600a54600282015460a060020a900460ff1610611937576000858152600f602052604090206002015460a860020a900460ff16156118b4576040805160e560020a62461bcd02815260206004820152600660248201527f3832616437640000000000000000000000000000000000000000000000000000604482015290519081900360640190fd5b6000858152600f6020908152604091829020600201805475ff000000000000000000000000000000000000000000191660a860020a1790558151600160a060020a038716815290810184905281517fd87906b7fce534fc5e6dde30064e777d92d0aaf3a28c72315de8ef2e4134dfef929181900390910190a1611937848461237c565b505050505050565b600054600160a060020a0316331461198d576040805160e560020a62461bcd028152602060048201526006602482015260d060020a6565373132393302604482015290519081900360640190fd5b600455565b60075481565b600154600160a060020a031633146119fa576040805160e560020a62461bcd02815260206004820152600660248201527f6639373561650000000000000000000000000000000000000000000000000000604482015290519081900360640190fd5b60015460008054604051600160a060020a0393841693909116917f343765429aea5a34b3ff6a3785a98a5abb2597aca87bfbb58632c173d585373a91a3600180546000805473ffffffffffffffffffffffffffffffffffffffff19908116600160a060020a03841617909155169055565b600b54600160a060020a031681565b7f436f6e747261637446656174757265730000000000000000000000000000000081565b601160209081526000928352604080842090915290825290205460ff1681565b600054600160a060020a031681565b7f42616e636f724e6574776f726b0000000000000000000000000000000000000081565b7f42616e636f7247617350726963654c696d69740000000000000000000000000081565b600e5460a860020a900460ff1681565b600f60205260009081526040902080546001820154600290920154909190600160a060020a0381169060ff60a060020a820481169160a860020a90041685565b600054600160a060020a03163314611bb3576040805160e560020a62461bcd028152602060048201526006602482015260d060020a6565373132393302604482015290519081900360640190fd5b600755565b600054600160a060020a03163314611c06576040805160e560020a62461bcd028152602060048201526006602482015260d060020a6565373132393302604482015290519081900360640190fd5b600e805491151560a060020a0274ff000000000000000000000000000000000000000019909216919091179055565b60025481565b6000828152601060209081526040808320548352600f90915281206002810154600160a060020a03848116911614611cbd576040805160e560020a62461bcd02815260206004820152600660248201527f6630343331350000000000000000000000000000000000000000000000000000604482015290519081900360640190fd5b805491505b5092915050565b600054600160a060020a03163314611d17576040805160e560020a62461bcd028152602060048201526006602482015260d060020a6565373132393302604482015290519081900360640190fd5b600255565b600e54600160a060020a031681565b600054600160a060020a03163314611d79576040805160e560020a62461bcd028152602060048201526006602482015260d060020a6565373132393302604482015290519081900360640190fd5b600c54600b805473ffffffffffffffffffffffffffffffffffffffff1916600160a060020a03909216919091179055600e805476ff0000000000000000000000000000000000000000000019169055565b600054600160a060020a03163314611e18576040805160e560020a62461bcd028152602060048201526006602482015260d060020a6565373132393302604482015290519081900360640190fd5b600355565b7f42616e636f72580000000000000000000000000000000000000000000000000081565b600a5481565b7f42616e636f72585570677261646572000000000000000000000000000000000081565b600154600160a060020a031681565b600054600160a060020a03163314611ec8576040805160e560020a62461bcd028152602060048201526006602482015260d060020a6565373132393302604482015290519081900360640190fd5b600a55565b600054600160a060020a03163314611f1b576040805160e560020a62461bcd028152602060048201526006602482015260d060020a6565373132393302604482015290519081900360640190fd5b600160a060020a03919091166000908152601260205260409020805460ff1916911515919091179055565b60106020526000908152604090205481565b600054600160a060020a03163314611fa6576040805160e560020a62461bcd028152602060048201526006602482015260d060020a6565373132393302604482015290519081900360640190fd5b600e805491151560a860020a0275ff00000000000000000000000000000000000000000019909216919091179055565b600054600160a060020a03163314612024576040805160e560020a62461bcd028152602060048201526006602482015260d060020a6565373132393302604482015290519081900360640190fd5b600054600160a060020a038281169116141561208a576040805160e560020a62461bcd02815260206004820152600660248201527f6632306333390000000000000000000000000000000000000000000000000000604482015290519081900360640190fd5b6001805473ffffffffffffffffffffffffffffffffffffffff1916600160a060020a0392909216919091179055565b7f4e6f6e5374616e64617264546f6b656e5265676973747279000000000000000081565b60065481565b600054600160a060020a03163314612131576040805160e560020a62461bcd028152602060048201526006602482015260d060020a6565373132393302604482015290519081900360640190fd5b600e805476ff000000000000000000000000000000000000000000001916911576010000000000000000000000000000000000000000000002919091179055565b600e5460a060020a900460ff1681565b6000818310156121dc576040805160e560020a62461bcd02815260206004820152600660248201527f3530646533390000000000000000000000000000000000000000000000000000604482015290519081900360640190fd5b50900390565b6000808315156121f55760009150611cc2565b5082820282848281151561220557fe5b041461225b576040805160e560020a62461bcd02815260206004820152600660248201527f6662653835310000000000000000000000000000000000000000000000000000604482015290519081900360640190fd5b9392505050565b60008282018381101561225b576040805160e560020a62461bcd02815260206004820152600660248201527f3232613836390000000000000000000000000000000000000000000000000000604482015290519081900360640190fd5b600d54604080517ffe417fa5000000000000000000000000000000000000000000000000000000008152336004820152602481018490529051600160a060020a039092169163fe417fa59160448082019260009290919082900301818387803b15801561232b57600080fd5b505af115801561233f573d6000803e3d6000fd5b50506040805184815290513393507ff5d7535a395393675f56d066384113754ca9cf4abd37298469934e2e9c2ec90292509081900360200190a250565b6000612386610b79565b9050600454821015801561239a5750808211155b15156123f0576040805160e560020a62461bcd02815260206004820152600660248201527f3837376365300000000000000000000000000000000000000000000000000000604482015290519081900360640190fd5b612400818363ffffffff61218216565b60065543600955600e54604080517fa9059cbb000000000000000000000000000000000000000000000000000000008152600160a060020a038681166004830152602482018690529151919092169163a9059cbb9160448083019260209291908290030181600087803b15801561247657600080fd5b505af115801561248a573d6000803e3d6000fd5b505050506040513d60208110156124a057600080fd5b5050604080518381529051600160a060020a038516917fbfdc1f3c02b4715077e0be4a262f967d53d4d0fcd76c6987fa2ad6e2257d7c8f919081900360200190a25050505600a165627a7a72305820d93e1f10056868a77c0c6375b189d9174040daf30aa435e782319feb0c56339f0029",
  "source": "pragma solidity ^0.4.24;\n\nimport './interfaces/IBancorXUpgrader.sol';\nimport './interfaces/IBancorX.sol';\nimport '../ContractIds.sol';\nimport '../converter/interfaces/IBancorConverter.sol';\nimport '../utility/interfaces/IContractRegistry.sol';\nimport '../utility/Owned.sol';\nimport '../utility/SafeMath.sol';\nimport '../utility/TokenHolder.sol';\nimport '../token/interfaces/ISmartToken.sol';\n\n/**\n    @dev The BancorX contract allows cross chain token transfers.\n\n    There are two processes that take place in the contract -\n    - Initiate a cross chain transfer to a target blockchain (locks tokens from the caller account on Ethereum)\n    - Report a cross chain transfer initiated on a source blockchain (releases tokens to an account on Ethereum)\n\n    Reporting cross chain transfers works similar to standard multisig contracts, meaning that multiple\n    callers are required to report a transfer before tokens are released to the target account.\n*/\ncontract BancorX is IBancorX, Owned, TokenHolder, ContractIds {\n    using SafeMath for uint256;\n\n    // represents a transaction on another blockchain where BNT was destroyed/locked\n    struct Transaction {\n        uint256 amount;\n        bytes32 fromBlockchain;\n        address to;\n        uint8 numOfReports;\n        bool completed;\n    }\n\n    uint16 public version = 2;\n\n    uint256 public maxLockLimit;            // the maximum amount of BNT that can be locked in one transaction\n    uint256 public maxReleaseLimit;         // the maximum amount of BNT that can be released in one transaction\n    uint256 public minLimit;                // the minimum amount of BNT that can be transferred in one transaction\n    uint256 public prevLockLimit;           // the lock limit *after* the last transaction\n    uint256 public prevReleaseLimit;        // the release limit *after* the last transaction\n    uint256 public limitIncPerBlock;        // how much the limit increases per block\n    uint256 public prevLockBlockNumber;     // the block number of the last lock transaction\n    uint256 public prevReleaseBlockNumber;  // the block number of the last release transaction\n    uint256 public minRequiredReports;      // minimum number of required reports to release tokens\n    \n    IContractRegistry public registry;      // contract registry\n    IContractRegistry public prevRegistry;  // address of previous registry as security mechanism\n    IBancorConverter public bntConverter;   // BNT converter\n    ISmartToken public bntToken;            // BNT token\n\n    bool public xTransfersEnabled = true;   // true if x transfers are enabled, false if not\n    bool public reportingEnabled = true;    // true if reporting is enabled, false if not\n    bool public allowRegistryUpdate = true; // allows the owner to prevent/allow the registry to be updated\n\n    // txId -> Transaction\n    mapping (uint256 => Transaction) public transactions;\n\n    // xTransferId -> txId\n    mapping (uint256 => uint256) public transactionIds;\n\n    // txId -> reporter -> true if reporter already reported txId\n    mapping (uint256 => mapping (address => bool)) public reportedTxs;\n\n    // address -> true if address is reporter\n    mapping (address => bool) public reporters;\n\n    /**\n        @dev triggered when BNT is locked in smart contract\n\n        @param _from    wallet address that the tokens are locked from\n        @param _amount  amount locked\n    */\n    event TokensLock(\n        address indexed _from,\n        uint256 _amount\n    );\n\n    /**\n        @dev triggered when BNT is released by the smart contract\n\n        @param _to      wallet address that the tokens are released to\n        @param _amount  amount released\n    */\n    event TokensRelease(\n        address indexed _to,\n        uint256 _amount\n    );\n\n    /**\n        @dev triggered when xTransfer is successfully called\n\n        @param _from            wallet address that initiated the xtransfer\n        @param _toBlockchain    target blockchain\n        @param _to              target wallet\n        @param _amount          transfer amount\n        @param _id              xtransfer id\n    */\n    event XTransfer(\n        address indexed _from,\n        bytes32 _toBlockchain,\n        bytes32 indexed _to,\n        uint256 _amount,\n        uint256 _id\n    );\n\n    /**\n        @dev triggered when report is successfully submitted\n\n        @param _reporter        reporter wallet\n        @param _fromBlockchain  source blockchain\n        @param _txId            tx id on the source blockchain\n        @param _to              target wallet\n        @param _amount          transfer amount\n        @param _xTransferId     xtransfer id\n    */\n    event TxReport(\n        address indexed _reporter,\n        bytes32 _fromBlockchain,\n        uint256 _txId,\n        address _to,\n        uint256 _amount,\n        uint256 _xTransferId\n    );\n\n    /**\n        @dev triggered when final report is successfully submitted\n\n        @param _to  target wallet\n        @param _id  xtransfer id\n    */\n    event XTransferComplete(\n        address _to,\n        uint256 _id\n    );\n\n    /**\n        @dev initializes a new BancorX instance\n\n        @param _maxLockLimit          maximum amount of BNT that can be locked in one transaction\n        @param _maxReleaseLimit       maximum amount of BNT that can be released in one transaction\n        @param _minLimit              minimum amount of BNT that can be transferred in one transaction\n        @param _limitIncPerBlock      how much the limit increases per block\n        @param _minRequiredReports    minimum number of reporters to report transaction before tokens can be released\n        @param _registry              address of contract registry\n     */\n    constructor(\n        uint256 _maxLockLimit,\n        uint256 _maxReleaseLimit,\n        uint256 _minLimit,\n        uint256 _limitIncPerBlock,\n        uint256 _minRequiredReports,\n        address _registry\n    )\n        public\n    {\n        // the maximum limits, minimum limit, and limit increase per block\n        maxLockLimit = _maxLockLimit;\n        maxReleaseLimit = _maxReleaseLimit;\n        minLimit = _minLimit;\n        limitIncPerBlock = _limitIncPerBlock;\n        minRequiredReports = _minRequiredReports;\n\n        // previous limit is _maxLimit, and previous block number is current block number\n        prevLockLimit = _maxLockLimit;\n        prevReleaseLimit = _maxReleaseLimit;\n        prevLockBlockNumber = block.number;\n        prevReleaseBlockNumber = block.number;\n\n        registry = IContractRegistry(_registry);\n        prevRegistry = IContractRegistry(_registry);\n        bntToken = ISmartToken(registry.addressOf(ContractIds.BNT_TOKEN));\n        bntConverter = IBancorConverter(registry.addressOf(ContractIds.BNT_CONVERTER));\n    }\n\n    // validates that the caller is a reporter\n    modifier isReporter {\n        require(reporters[msg.sender], 'bcb14d');\n        _;\n    }\n\n    // allows execution only when x transfers are enabled\n    modifier whenXTransfersEnabled {\n        require(xTransfersEnabled, 'a2002c');\n        _;\n    }\n\n    // allows execution only when reporting is enabled\n    modifier whenReportingEnabled {\n        require(reportingEnabled, '133f7f');\n        _;\n    }\n\n    /**\n        @dev setter\n\n        @param _maxLockLimit    new maxLockLimit\n     */\n    function setMaxLockLimit(uint256 _maxLockLimit) public ownerOnly {\n        maxLockLimit = _maxLockLimit;\n    }\n    \n    /**\n        @dev setter\n\n        @param _maxReleaseLimit    new maxReleaseLimit\n     */\n    function setMaxReleaseLimit(uint256 _maxReleaseLimit) public ownerOnly {\n        maxReleaseLimit = _maxReleaseLimit;\n    }\n    \n    /**\n        @dev setter\n\n        @param _minLimit    new minLimit\n     */\n    function setMinLimit(uint256 _minLimit) public ownerOnly {\n        minLimit = _minLimit;\n    }\n\n    /**\n        @dev setter\n\n        @param _limitIncPerBlock    new limitIncPerBlock\n     */\n    function setLimitIncPerBlock(uint256 _limitIncPerBlock) public ownerOnly {\n        limitIncPerBlock = _limitIncPerBlock;\n    }\n\n    /**\n        @dev setter\n\n        @param _minRequiredReports    new minRequiredReports\n     */\n    function setMinRequiredReports(uint256 _minRequiredReports) public ownerOnly {\n        minRequiredReports = _minRequiredReports;\n    }\n\n    /**\n        @dev allows the owner to set/remove reporters\n\n        @param _reporter    reporter whos status is to be set\n        @param _active      true if the reporter is approved, false otherwise\n     */\n    function setReporter(address _reporter, bool _active) public ownerOnly {\n        reporters[_reporter] = _active;\n    }\n\n    /**\n        @dev allows the owner enable/disable the xTransfer method\n\n        @param _enable     true to enable, false to disable\n     */\n    function enableXTransfers(bool _enable) public ownerOnly {\n        xTransfersEnabled = _enable;\n    }\n\n    /**\n        @dev allows the owner enable/disable the reportTransaction method\n\n        @param _enable     true to enable, false to disable\n     */\n    function enableReporting(bool _enable) public ownerOnly {\n        reportingEnabled = _enable;\n    }\n\n    /**\n        @dev disables the registry update functionality\n        this is a safety mechanism in case of a emergency\n        can only be called by the manager or owner\n\n        @param _disable    true to disable registry updates, false to re-enable them\n    */\n    function disableRegistryUpdate(bool _disable) public ownerOnly {\n        allowRegistryUpdate = !_disable;\n    }\n\n    /**\n        @dev allows the owner to set the BNT converters address to wherever the\n        contract registry currently points to\n     */\n    function setBNTConverterAddress() public ownerOnly {\n        bntConverter = IBancorConverter(registry.addressOf(ContractIds.BNT_CONVERTER));\n    }\n\n    /**\n        @dev sets the contract registry to whichever address the current registry is pointing to\n     */\n    function updateRegistry() public {\n        // require that upgrading is allowed or that the caller is the owner\n        require(allowRegistryUpdate || msg.sender == owner, '6797e5');\n\n        // get the address of whichever registry the current registry is pointing to\n        address newRegistry = registry.addressOf(ContractIds.CONTRACT_REGISTRY);\n\n        // if the new registry hasn't changed or is the zero address, revert\n        require(newRegistry != address(registry) && newRegistry != address(0), '7c9505');\n\n        // set the previous registry as current registry and current registry as newRegistry\n        prevRegistry = registry;\n        registry = IContractRegistry(newRegistry);\n    }\n\n    /**\n        @dev security mechanism allowing the converter owner to revert to the previous registry,\n        to be used in emergency scenario\n    */\n    function restoreRegistry() public ownerOnly {\n        // set the registry as previous registry\n        registry = prevRegistry;\n\n        // after a previous registry is restored, only the owner can allow future updates\n        allowRegistryUpdate = false;\n    }\n\n    /**\n        @dev upgrades the contract to the latest version\n        can only be called by the owner\n        note that the owner needs to call acceptOwnership on the new contract after the upgrade\n\n        @param _reporters    new list of reporters\n    */\n    function upgrade(address[] _reporters) public ownerOnly {\n        IBancorXUpgrader bancorXUpgrader = IBancorXUpgrader(registry.addressOf(ContractIds.BANCOR_X_UPGRADER));\n\n        transferOwnership(bancorXUpgrader);\n        bancorXUpgrader.upgrade(version, _reporters);\n        acceptOwnership();\n    }\n\n    /**\n        @dev claims BNT from msg.sender to be converted to BNT on another blockchain\n\n        @param _toBlockchain    blockchain BNT will be issued on\n        @param _to              address to send the BNT to\n        @param _amount          the amount to transfer\n     */\n    function xTransfer(bytes32 _toBlockchain, bytes32 _to, uint256 _amount) public whenXTransfersEnabled {\n        // get the current lock limit\n        uint256 currentLockLimit = getCurrentLockLimit();\n\n        // require that; minLimit <= _amount <= currentLockLimit\n        require(_amount >= minLimit && _amount <= currentLockLimit, '0ca98d');\n        \n        lockTokens(_amount);\n\n        // set the previous lock limit and block number\n        prevLockLimit = currentLockLimit.sub(_amount);\n        prevLockBlockNumber = block.number;\n\n        // emit XTransfer event with id of 0\n        emit XTransfer(msg.sender, _toBlockchain, _to, _amount, 0);\n    }\n\n    /**\n        @dev claims BNT from msg.sender to be converted to BNT on another blockchain\n\n        @param _toBlockchain    blockchain BNT will be issued on\n        @param _to              address to send the BNT to\n        @param _amount          the amount to transfer\n        @param _id              pre-determined unique (if non zero) id which refers to this transaction \n     */\n    function xTransfer(bytes32 _toBlockchain, bytes32 _to, uint256 _amount, uint256 _id) public whenXTransfersEnabled {\n        // get the current lock limit\n        uint256 currentLockLimit = getCurrentLockLimit();\n\n        // require that; minLimit <= _amount <= currentLockLimit\n        require(_amount >= minLimit && _amount <= currentLockLimit, 'db5d3f');\n        \n        lockTokens(_amount);\n\n        // set the previous lock limit and block number\n        prevLockLimit = currentLockLimit.sub(_amount);\n        prevLockBlockNumber = block.number;\n\n        // emit XTransfer event\n        emit XTransfer(msg.sender, _toBlockchain, _to, _amount, _id);\n    }\n\n    /**\n        @dev allows reporter to report transaction which occured on another blockchain\n\n        @param _fromBlockchain  blockchain BNT was destroyed in\n        @param _txId            transactionId of transaction thats being reported\n        @param _to              address to receive BNT\n        @param _amount          amount of BNT destroyed on another blockchain\n        @param _xTransferId     unique (if non zero) pre-determined id (unlike _txId which is determined after the transactions been mined)\n     */\n    function reportTx(\n        bytes32 _fromBlockchain,\n        uint256 _txId,\n        address _to,\n        uint256 _amount,\n        uint256 _xTransferId \n    )\n        public\n        isReporter\n        whenReportingEnabled\n    {\n        // require that the transaction has not been reported yet by the reporter\n        require(!reportedTxs[_txId][msg.sender], '62c535');\n\n        // set reported as true\n        reportedTxs[_txId][msg.sender] = true;\n\n        Transaction storage txn = transactions[_txId];\n\n        // If the caller is the first reporter, set the transaction details\n        if (txn.numOfReports == 0) {\n            txn.to = _to;\n            txn.amount = _amount;\n            txn.fromBlockchain = _fromBlockchain;\n\n            if (_xTransferId != 0) {\n                // verify uniqueness of xTransfer id to prevent overwriting\n                require(transactionIds[_xTransferId] == 0, '5a3c1e');\n                transactionIds[_xTransferId] = _txId;\n            }\n        } else {\n            // otherwise, verify transaction details\n            require(txn.to == _to && txn.amount == _amount && txn.fromBlockchain == _fromBlockchain, '0f4898');\n            \n            if (_xTransferId != 0) {\n                require(transactionIds[_xTransferId] == _txId, '5d87a2');\n            }\n        }\n        \n        // increment the number of reports\n        txn.numOfReports++;\n\n        emit TxReport(msg.sender, _fromBlockchain, _txId, _to, _amount, _xTransferId);\n\n        // if theres enough reports, try to release tokens\n        if (txn.numOfReports >= minRequiredReports) {\n            require(!transactions[_txId].completed, '82ad7d');\n\n            // set the transaction as completed\n            transactions[_txId].completed = true;\n\n            emit XTransferComplete(_to, _xTransferId);\n\n            releaseTokens(_to, _amount);\n        }\n    }\n\n    /**\n        @dev gets x transfer amount by xTransferId (not txId)\n\n        @param _xTransferId    unique (if non zero) pre-determined id (unlike _txId which is determined after the transactions been broadcasted)\n        @param _for            address corresponding to xTransferId\n\n        @return amount that was sent in xTransfer corresponding to _xTransferId\n    */\n    function getXTransferAmount(uint256 _xTransferId, address _for) public view returns (uint256) {\n        // xTransferId -> txId -> Transaction\n        Transaction storage transaction = transactions[transactionIds[_xTransferId]];\n\n        // verify that the xTransferId is for _for\n        require(transaction.to == _for, 'f04315');\n\n        return transaction.amount;\n    }\n\n    /**\n        @dev method for calculating current lock limit\n\n        @return the current maximum limit of BNT that can be locked\n     */\n    function getCurrentLockLimit() public view returns (uint256) {\n        // prevLockLimit + ((currBlockNumber - prevLockBlockNumber) * limitIncPerBlock)\n        uint256 currentLockLimit = prevLockLimit.add(((block.number).sub(prevLockBlockNumber)).mul(limitIncPerBlock));\n        if (currentLockLimit > maxLockLimit)\n            return maxLockLimit;\n        return currentLockLimit;\n    }\n \n    /**\n        @dev method for calculating current release limit\n\n        @return the current maximum limit of BNT that can be released\n     */\n    function getCurrentReleaseLimit() public view returns (uint256) {\n        // prevReleaseLimit + ((currBlockNumber - prevReleaseBlockNumber) * limitIncPerBlock)\n        uint256 currentReleaseLimit = prevReleaseLimit.add(((block.number).sub(prevReleaseBlockNumber)).mul(limitIncPerBlock));\n        if (currentReleaseLimit > maxReleaseLimit)\n            return maxReleaseLimit;\n        return currentReleaseLimit;\n    }\n\n    /**\n        @dev claims and locks BNT from msg.sender to be converted to BNT on another blockchain\n\n        @param _amount  the amount to lock\n     */\n    function lockTokens(uint256 _amount) private {\n        // lock the BNT from msg.sender in this contract\n        bntConverter.claimTokens(msg.sender, _amount);\n\n        emit TokensLock(msg.sender, _amount);\n    }\n\n    /**\n        @dev private method to release BNT the contract holds\n\n        @param _to      the address to release BNT to\n        @param _amount  the amount to release\n     */\n    function releaseTokens(address _to, uint256 _amount) private {\n        // get the current release limit\n        uint256 currentReleaseLimit = getCurrentReleaseLimit();\n\n        require(_amount >= minLimit && _amount <= currentReleaseLimit, '877ce0');\n        \n        // update the previous release limit and block number\n        prevReleaseLimit = currentReleaseLimit.sub(_amount);\n        prevReleaseBlockNumber = block.number;\n\n        // no need to require, reverts on failure\n        bntToken.transfer(_to, _amount);\n\n        emit TokensRelease(_to, _amount);\n    }\n}",
  "sourcePath": "/home/lash/src/ext/sempo/contracts/solidity/contracts/bancorx/BancorX.sol",
  "compiler": {
    "name": "solc",
    "version": "0.4.26+commit.4563c3fc.Emscripten.clang"
  },
  "schemaVersion": "3.0.11",
  "updatedAt": "2020-02-26T09:32:34.091Z",
  "devdoc": {
    "methods": {
      "acceptOwnership()": {
        "details": "used by a new owner to accept an ownership transfer"
      },
      "disableRegistryUpdate(bool)": {
        "details": "disables the registry update functionality this is a safety mechanism in case of a emergency can only be called by the manager or owner",
        "params": {
          "_disable": "true to disable registry updates, false to re-enable them"
        }
      },
      "enableReporting(bool)": {
        "details": "allows the owner enable/disable the reportTransaction method",
        "params": {
          "_enable": "true to enable, false to disable"
        }
      },
      "enableXTransfers(bool)": {
        "details": "allows the owner enable/disable the xTransfer method",
        "params": {
          "_enable": "true to enable, false to disable"
        }
      },
      "getCurrentLockLimit()": {
        "details": "method for calculating current lock limit",
        "return": "the current maximum limit of BNT that can be locked"
      },
      "getCurrentReleaseLimit()": {
        "details": "method for calculating current release limit",
        "return": "the current maximum limit of BNT that can be released"
      },
      "getXTransferAmount(uint256,address)": {
        "details": "gets x transfer amount by xTransferId (not txId)",
        "params": {
          "_for": "address corresponding to xTransferId",
          "_xTransferId": "unique (if non zero) pre-determined id (unlike _txId which is determined after the transactions been broadcasted)"
        },
        "return": "amount that was sent in xTransfer corresponding to _xTransferId"
      },
      "reportTx(bytes32,uint256,address,uint256,uint256)": {
        "details": "allows reporter to report transaction which occured on another blockchain",
        "params": {
          "_amount": "amount of BNT destroyed on another blockchain",
          "_fromBlockchain": "blockchain BNT was destroyed in",
          "_to": "address to receive BNT",
          "_txId": "transactionId of transaction thats being reported",
          "_xTransferId": "unique (if non zero) pre-determined id (unlike _txId which is determined after the transactions been mined)"
        }
      },
      "restoreRegistry()": {
        "details": "security mechanism allowing the converter owner to revert to the previous registry, to be used in emergency scenario"
      },
      "setBNTConverterAddress()": {
        "details": "allows the owner to set the BNT converters address to wherever the contract registry currently points to"
      },
      "setLimitIncPerBlock(uint256)": {
        "details": "setter",
        "params": {
          "_limitIncPerBlock": "new limitIncPerBlock"
        }
      },
      "setMaxLockLimit(uint256)": {
        "details": "setter",
        "params": {
          "_maxLockLimit": "new maxLockLimit"
        }
      },
      "setMaxReleaseLimit(uint256)": {
        "details": "setter",
        "params": {
          "_maxReleaseLimit": "new maxReleaseLimit"
        }
      },
      "setMinLimit(uint256)": {
        "details": "setter",
        "params": {
          "_minLimit": "new minLimit"
        }
      },
      "setMinRequiredReports(uint256)": {
        "details": "setter",
        "params": {
          "_minRequiredReports": "new minRequiredReports"
        }
      },
      "setReporter(address,bool)": {
        "details": "allows the owner to set/remove reporters",
        "params": {
          "_active": "true if the reporter is approved, false otherwise",
          "_reporter": "reporter whos status is to be set"
        }
      },
      "transferOwnership(address)": {
        "details": "allows transferring the contract ownership the new owner still needs to accept the transfer can only be called by the contract owner",
        "params": {
          "_newOwner": "new contract owner"
        }
      },
      "updateRegistry()": {
        "details": "sets the contract registry to whichever address the current registry is pointing to"
      },
      "upgrade(address[])": {
        "details": "upgrades the contract to the latest version can only be called by the owner note that the owner needs to call acceptOwnership on the new contract after the upgrade",
        "params": {
          "_reporters": "new list of reporters"
        }
      },
      "withdrawTokens(address,address,uint256)": {
        "details": "withdraws tokens held by the contract and sends them to an account can only be called by the owner",
        "params": {
          "_amount": "amount to withdraw",
          "_to": "account to receive the new amount",
          "_token": "ERC20 token contract address"
        }
      },
      "xTransfer(bytes32,bytes32,uint256)": {
        "details": "claims BNT from msg.sender to be converted to BNT on another blockchain",
        "params": {
          "_amount": "the amount to transfer",
          "_to": "address to send the BNT to",
          "_toBlockchain": "blockchain BNT will be issued on"
        }
      },
      "xTransfer(bytes32,bytes32,uint256,uint256)": {
        "details": "claims BNT from msg.sender to be converted to BNT on another blockchain",
        "params": {
          "_amount": "the amount to transfer",
          "_id": "pre-determined unique (if non zero) id which refers to this transaction ",
          "_to": "address to send the BNT to",
          "_toBlockchain": "blockchain BNT will be issued on"
        }
      }
    }
  },
  "userdoc": {
    "methods": {}
  }
}