{
  "contractName": "BancorConverterRegistry",
  "abi": [
    {
      "constant": true,
      "inputs": [
        {
          "name": "",
          "type": "uint256"
        }
      ],
      "name": "tokens",
      "outputs": [
        {
          "name": "",
          "type": "address"
        }
      ],
      "payable": false,
      "stateMutability": "view",
      "type": "function"
    },
    {
      "constant": false,
      "inputs": [],
      "name": "acceptOwnership",
      "outputs": [],
      "payable": false,
      "stateMutability": "nonpayable",
      "type": "function"
    },
    {
      "constant": true,
      "inputs": [],
      "name": "owner",
      "outputs": [
        {
          "name": "",
          "type": "address"
        }
      ],
      "payable": false,
      "stateMutability": "view",
      "type": "function"
    },
    {
      "constant": true,
      "inputs": [],
      "name": "newOwner",
      "outputs": [
        {
          "name": "",
          "type": "address"
        }
      ],
      "payable": false,
      "stateMutability": "view",
      "type": "function"
    },
    {
      "constant": false,
      "inputs": [
        {
          "name": "_newOwner",
          "type": "address"
        }
      ],
      "name": "transferOwnership",
      "outputs": [],
      "payable": false,
      "stateMutability": "nonpayable",
      "type": "function"
    },
    {
      "inputs": [],
      "payable": false,
      "stateMutability": "nonpayable",
      "type": "constructor"
    },
    {
      "anonymous": false,
      "inputs": [
        {
          "indexed": true,
          "name": "_token",
          "type": "address"
        },
        {
          "indexed": false,
          "name": "_address",
          "type": "address"
        }
      ],
      "name": "ConverterAddition",
      "type": "event"
    },
    {
      "anonymous": false,
      "inputs": [
        {
          "indexed": true,
          "name": "_token",
          "type": "address"
        },
        {
          "indexed": false,
          "name": "_address",
          "type": "address"
        }
      ],
      "name": "ConverterRemoval",
      "type": "event"
    },
    {
      "anonymous": false,
      "inputs": [
        {
          "indexed": true,
          "name": "_prevOwner",
          "type": "address"
        },
        {
          "indexed": true,
          "name": "_newOwner",
          "type": "address"
        }
      ],
      "name": "OwnerUpdate",
      "type": "event"
    },
    {
      "constant": true,
      "inputs": [],
      "name": "tokenCount",
      "outputs": [
        {
          "name": "",
          "type": "uint256"
        }
      ],
      "payable": false,
      "stateMutability": "view",
      "type": "function"
    },
    {
      "constant": true,
      "inputs": [
        {
          "name": "_token",
          "type": "address"
        }
      ],
      "name": "converterCount",
      "outputs": [
        {
          "name": "",
          "type": "uint256"
        }
      ],
      "payable": false,
      "stateMutability": "view",
      "type": "function"
    },
    {
      "constant": true,
      "inputs": [
        {
          "name": "_token",
          "type": "address"
        },
        {
          "name": "_index",
          "type": "uint32"
        }
      ],
      "name": "converterAddress",
      "outputs": [
        {
          "name": "",
          "type": "address"
        }
      ],
      "payable": false,
      "stateMutability": "view",
      "type": "function"
    },
    {
      "constant": true,
      "inputs": [
        {
          "name": "_converter",
          "type": "address"
        }
      ],
      "name": "tokenAddress",
      "outputs": [
        {
          "name": "",
          "type": "address"
        }
      ],
      "payable": false,
      "stateMutability": "view",
      "type": "function"
    },
    {
      "constant": false,
      "inputs": [
        {
          "name": "_token",
          "type": "address"
        },
        {
          "name": "_converter",
          "type": "address"
        }
      ],
      "name": "registerConverter",
      "outputs": [],
      "payable": false,
      "stateMutability": "nonpayable",
      "type": "function"
    },
    {
      "constant": false,
      "inputs": [
        {
          "name": "_token",
          "type": "address"
        },
        {
          "name": "_index",
          "type": "uint32"
        }
      ],
      "name": "unregisterConverter",
      "outputs": [],
      "payable": false,
      "stateMutability": "nonpayable",
      "type": "function"
    }
  ],
  "bytecode": "0x608060405234801561001057600080fd5b5060008054600160a060020a03191633179055610b1b806100326000396000f3006080604052600436106100ae5763ffffffff7c010000000000000000000000000000000000000000000000000000000060003504166338cb066f81146100b35780634f64b2be146100df57806379ba5097146101135780638da5cb5b1461012857806390ab31061461013d5780639884e801146101675780639f181b5e14610188578063cd9d4d66146101af578063d26a8d2e146101d0578063d4ee1d90146101f7578063f2fde38b1461020c575b600080fd5b3480156100bf57600080fd5b506100dd600160a060020a036004351663ffffffff6024351661022d565b005b3480156100eb57600080fd5b506100f7600435610521565b60408051600160a060020a039092168252519081900360200190f35b34801561011f57600080fd5b506100dd610549565b34801561013457600080fd5b506100f761061c565b34801561014957600080fd5b506100f7600160a060020a036004351663ffffffff6024351661062b565b34801561017357600080fd5b506100f7600160a060020a03600435166106a0565b34801561019457600080fd5b5061019d6106be565b60408051918252519081900360200190f35b3480156101bb57600080fd5b5061019d600160a060020a03600435166106c5565b3480156101dc57600080fd5b506100dd600160a060020a03600435811690602435166106e0565b34801561020357600080fd5b506100f76109a2565b34801561021857600080fd5b506100dd600160a060020a03600435166109b1565b600080548190600160a060020a03163314610292576040805160e560020a62461bcd02815260206004820152600660248201527f6537313239330000000000000000000000000000000000000000000000000000604482015290519081900360640190fd5b83600160a060020a03811615156102f3576040805160e560020a62461bcd02815260206004820152600660248201527f3335373839660000000000000000000000000000000000000000000000000000604482015290519081900360640190fd5b600160a060020a03851660009081526003602052604090205463ffffffff851610610368576040805160e560020a62461bcd02815260206004820152600660248201527f3934616562630000000000000000000000000000000000000000000000000000604482015290519081900360640190fd5b600160a060020a0385166000908152600360205260409020805463ffffffff861690811061039257fe5b600091825260209091200154600160a060020a031692506001840191505b600160a060020a03851660009081526003602052604090205463ffffffff8316101561048357600160a060020a0385166000908152600360205260409020805463ffffffff841690811061040057fe5b6000918252602080832090910154600160a060020a03888116845260039092526040909220805491909216919063ffffffff60001986011690811061044157fe5b6000918252602090912001805473ffffffffffffffffffffffffffffffffffffffff1916600160a060020a0392909216919091179055600191909101906103b0565b600160a060020a03851660009081526003602052604090208054906104ac906000198301610aa8565b50600160a060020a03808416600081815260046020908152604091829020805473ffffffffffffffffffffffffffffffffffffffff1916905581519283529051928816927fc3b25a6c3b7509edde0f2e6cc317b5820a901fa82ac554709206e1d7237fe2949281900390910190a25050505050565b600580548290811061052f57fe5b600091825260209091200154600160a060020a0316905081565b600154600160a060020a031633146105ab576040805160e560020a62461bcd02815260206004820152600660248201527f6639373561650000000000000000000000000000000000000000000000000000604482015290519081900360640190fd5b60015460008054604051600160a060020a0393841693909116917f343765429aea5a34b3ff6a3785a98a5abb2597aca87bfbb58632c173d585373a91a3600180546000805473ffffffffffffffffffffffffffffffffffffffff19908116600160a060020a03841617909155169055565b600054600160a060020a031681565b600160a060020a03821660009081526003602052604081205463ffffffff8316106106585750600061069a565b600160a060020a0383166000908152600360205260409020805463ffffffff841690811061068257fe5b600091825260209091200154600160a060020a031690505b92915050565b600160a060020a039081166000908152600460205260409020541690565b6005545b90565b600160a060020a031660009081526003602052604090205490565b600054600160a060020a03163314610742576040805160e560020a62461bcd02815260206004820152600660248201527f6537313239330000000000000000000000000000000000000000000000000000604482015290519081900360640190fd5b81600160a060020a03811615156107a3576040805160e560020a62461bcd02815260206004820152600660248201527f3335373839660000000000000000000000000000000000000000000000000000604482015290519081900360640190fd5b81600160a060020a0381161515610804576040805160e560020a62461bcd02815260206004820152600660248201527f3335373839660000000000000000000000000000000000000000000000000000604482015290519081900360640190fd5b600160a060020a038381166000908152600460205260409020541615610874576040805160e560020a62461bcd02815260206004820152600660248201527f3133663937340000000000000000000000000000000000000000000000000000604482015290519081900360640190fd5b600160a060020a03841660009081526002602052604090205460ff161515610907576005805460018082019092557f036b6384b5eca791c62761152d0c79bb0604c104a5fb6f4eb0703f3154bb3db001805473ffffffffffffffffffffffffffffffffffffffff1916600160a060020a0387169081179091556000908152600260205260409020805460ff191690911790555b600160a060020a038085166000818152600360209081526040808320805460018101825590845282842001805495891673ffffffffffffffffffffffffffffffffffffffff1996871681179091558084526004835292819020805490951684179094558351918252925191927f229aec2ec4b21e700d6daf13a894e7b38c18b844b021f2eee263f04af3ea6f0092918290030190a250505050565b600154600160a060020a031681565b600054600160a060020a03163314610a13576040805160e560020a62461bcd02815260206004820152600660248201527f6537313239330000000000000000000000000000000000000000000000000000604482015290519081900360640190fd5b600054600160a060020a0382811691161415610a79576040805160e560020a62461bcd02815260206004820152600660248201527f6632306333390000000000000000000000000000000000000000000000000000604482015290519081900360640190fd5b6001805473ffffffffffffffffffffffffffffffffffffffff1916600160a060020a0392909216919091179055565b815481835581811115610acc57600083815260209020610acc918101908301610ad1565b505050565b6106c291905b80821115610aeb5760008155600101610ad7565b50905600a165627a7a72305820f58cf40d61c62b322ef7c3dae2ed56fdb51fa517fcd2ac117d056be7bd2835be0029",
  "source": "pragma solidity ^0.4.24;\nimport './utility/Owned.sol';\nimport './utility/Utils.sol';\n\n/**\n    @dev Bancor Converter Registry\n\n    The Bancor Converter Registry keeps converter addresses by token addresses and vice versa. The owner can update converter addresses so that the token address always points to the updated list of converters for each token. \n\n    The contract is also able to iterate through all the tokens in the network. \n\n    Note that converter addresses for each token are returned in ascending order (from oldest to newest).\n\n*/\ncontract BancorConverterRegistry is Owned, Utils {\n    mapping (address => bool) private tokensRegistered;         // token address -> registered or not\n    mapping (address => address[]) private tokensToConverters;  // token address -> converter addresses\n    mapping (address => address) private convertersToTokens;    // converter address -> token address\n    address[] public tokens;                                    // list of all token addresses\n\n    /**\n        @dev triggered when a converter is added to the registry\n\n        @param _token   token\n        @param _address converter\n    */\n    event ConverterAddition(address indexed _token, address _address);\n\n    /**\n        @dev triggered when a converter is removed from the registry\n\n        @param _token   token\n        @param _address converter\n    */\n    event ConverterRemoval(address indexed _token, address _address);\n\n    /**\n        @dev initializes a new BancorConverterRegistry instance\n    */\n    constructor() public {\n    }\n\n    /**\n        @dev returns the number of tokens in the registry\n\n        @return number of tokens\n    */\n    function tokenCount() public view returns (uint256) {\n        return tokens.length;\n    }\n\n    /**\n        @dev returns the number of converters associated with the given token\n        or 0 if the token isn't registered\n\n        @param _token   token address\n\n        @return number of converters\n    */\n    function converterCount(address _token) public view returns (uint256) {\n        return tokensToConverters[_token].length;\n    }\n\n    /**\n        @dev returns the converter address associated with the given token\n        or zero address if no such converter exists\n\n        @param _token   token address\n        @param _index   converter index\n\n        @return converter address\n    */\n    function converterAddress(address _token, uint32 _index) public view returns (address) {\n        if (_index >= tokensToConverters[_token].length)\n            return address(0);\n\n        return tokensToConverters[_token][_index];\n    }\n\n    /**\n        @dev returns the token address associated with the given converter\n        or zero address if no such converter exists\n\n        @param _converter   converter address\n\n        @return token address\n    */\n    function tokenAddress(address _converter) public view returns (address) {\n        return convertersToTokens[_converter];\n    }\n\n    /**\n        @dev adds a new converter address for a given token to the registry\n        throws if the converter is already registered\n\n        @param _token       token address\n        @param _converter   converter address\n    */\n    function registerConverter(address _token, address _converter)\n        public\n        ownerOnly\n        validAddress(_token)\n        validAddress(_converter)\n    {\n        require(convertersToTokens[_converter] == address(0), '13f974');\n\n        // add the token to the list of tokens\n        if (!tokensRegistered[_token]) {\n            tokens.push(_token);\n            tokensRegistered[_token] = true;\n        }\n\n        tokensToConverters[_token].push(_converter);\n        convertersToTokens[_converter] = _token;\n\n        // dispatch the converter addition event\n        emit ConverterAddition(_token, _converter);\n    }\n\n    /**\n        @dev removes an existing converter from the registry\n        note that the function doesn't scale and might be needed to be called\n        multiple times when removing an older converter from a large converter list\n\n        @param _token   token address\n        @param _index   converter index\n    */\n    function unregisterConverter(address _token, uint32 _index)\n        public\n        ownerOnly\n        validAddress(_token)\n    {\n        require(_index < tokensToConverters[_token].length, '94aebc');\n\n        address converter = tokensToConverters[_token][_index];\n\n        // move all newer converters 1 position lower\n        for (uint32 i = _index + 1; i < tokensToConverters[_token].length; i++) {\n            tokensToConverters[_token][i - 1] = tokensToConverters[_token][i];\n        }\n\n        // decrease the number of converters defined for the token by 1\n        tokensToConverters[_token].length--;\n        \n        // removes the converter from the converters -> tokens list\n        delete convertersToTokens[converter];\n\n        // dispatch the converter removal event\n        emit ConverterRemoval(_token, converter);\n    }\n}\n",
  "sourcePath": "/home/lash/src/ext/sempo/contracts/solidity/contracts/BancorConverterRegistry.sol",
  "compiler": {
    "name": "solc",
    "version": "0.4.26+commit.4563c3fc.Emscripten.clang"
  },
  "schemaVersion": "3.0.11",
  "updatedAt": "2020-02-26T09:32:34.048Z",
  "devdoc": {
    "methods": {
      "acceptOwnership()": {
        "details": "used by a new owner to accept an ownership transfer"
      },
      "converterAddress(address,uint32)": {
        "details": "returns the converter address associated with the given token or zero address if no such converter exists",
        "params": {
          "_index": "converter index",
          "_token": "token address"
        },
        "return": "converter address"
      },
      "converterCount(address)": {
        "details": "returns the number of converters associated with the given token or 0 if the token isn't registered",
        "params": {
          "_token": "token address"
        },
        "return": "number of converters"
      },
      "registerConverter(address,address)": {
        "details": "adds a new converter address for a given token to the registry throws if the converter is already registered",
        "params": {
          "_converter": "converter address",
          "_token": "token address"
        }
      },
      "tokenAddress(address)": {
        "details": "returns the token address associated with the given converter or zero address if no such converter exists",
        "params": {
          "_converter": "converter address"
        },
        "return": "token address"
      },
      "tokenCount()": {
        "details": "returns the number of tokens in the registry",
        "return": "number of tokens"
      },
      "transferOwnership(address)": {
        "details": "allows transferring the contract ownership the new owner still needs to accept the transfer can only be called by the contract owner",
        "params": {
          "_newOwner": "new contract owner"
        }
      },
      "unregisterConverter(address,uint32)": {
        "details": "removes an existing converter from the registry note that the function doesn't scale and might be needed to be called multiple times when removing an older converter from a large converter list",
        "params": {
          "_index": "converter index",
          "_token": "token address"
        }
      }
    }
  },
  "userdoc": {
    "methods": {}
  }
}