{
  "contractName": "BancorNetwork",
  "abi": [
    {
      "constant": true,
      "inputs": [],
      "name": "BANCOR_CONVERTER_UPGRADER",
      "outputs": [
        {
          "name": "",
          "type": "bytes32"
        }
      ],
      "payable": false,
      "stateMutability": "view",
      "type": "function"
    },
    {
      "constant": true,
      "inputs": [],
      "name": "BNT_TOKEN",
      "outputs": [
        {
          "name": "",
          "type": "bytes32"
        }
      ],
      "payable": false,
      "stateMutability": "view",
      "type": "function"
    },
    {
      "constant": true,
      "inputs": [],
      "name": "CONTRACT_REGISTRY",
      "outputs": [
        {
          "name": "",
          "type": "bytes32"
        }
      ],
      "payable": false,
      "stateMutability": "view",
      "type": "function"
    },
    {
      "constant": true,
      "inputs": [],
      "name": "BANCOR_CONVERTER_FACTORY",
      "outputs": [
        {
          "name": "",
          "type": "bytes32"
        }
      ],
      "payable": false,
      "stateMutability": "view",
      "type": "function"
    },
    {
      "constant": true,
      "inputs": [],
      "name": "signerAddress",
      "outputs": [
        {
          "name": "",
          "type": "address"
        }
      ],
      "payable": false,
      "stateMutability": "view",
      "type": "function"
    },
    {
      "constant": false,
      "inputs": [
        {
          "name": "_token",
          "type": "address"
        },
        {
          "name": "_to",
          "type": "address"
        },
        {
          "name": "_amount",
          "type": "uint256"
        }
      ],
      "name": "withdrawTokens",
      "outputs": [],
      "payable": false,
      "stateMutability": "nonpayable",
      "type": "function"
    },
    {
      "constant": true,
      "inputs": [],
      "name": "BNT_CONVERTER",
      "outputs": [
        {
          "name": "",
          "type": "bytes32"
        }
      ],
      "payable": false,
      "stateMutability": "view",
      "type": "function"
    },
    {
      "constant": true,
      "inputs": [],
      "name": "BANCOR_FORMULA",
      "outputs": [
        {
          "name": "",
          "type": "bytes32"
        }
      ],
      "payable": false,
      "stateMutability": "view",
      "type": "function"
    },
    {
      "constant": false,
      "inputs": [],
      "name": "acceptOwnership",
      "outputs": [],
      "payable": false,
      "stateMutability": "nonpayable",
      "type": "function"
    },
    {
      "constant": true,
      "inputs": [],
      "name": "registry",
      "outputs": [
        {
          "name": "",
          "type": "address"
        }
      ],
      "payable": false,
      "stateMutability": "view",
      "type": "function"
    },
    {
      "constant": true,
      "inputs": [
        {
          "name": "",
          "type": "address"
        }
      ],
      "name": "etherTokens",
      "outputs": [
        {
          "name": "",
          "type": "bool"
        }
      ],
      "payable": false,
      "stateMutability": "view",
      "type": "function"
    },
    {
      "constant": true,
      "inputs": [],
      "name": "CONTRACT_FEATURES",
      "outputs": [
        {
          "name": "",
          "type": "bytes32"
        }
      ],
      "payable": false,
      "stateMutability": "view",
      "type": "function"
    },
    {
      "constant": true,
      "inputs": [
        {
          "name": "",
          "type": "bytes32"
        }
      ],
      "name": "conversionHashes",
      "outputs": [
        {
          "name": "",
          "type": "bool"
        }
      ],
      "payable": false,
      "stateMutability": "view",
      "type": "function"
    },
    {
      "constant": true,
      "inputs": [],
      "name": "owner",
      "outputs": [
        {
          "name": "",
          "type": "address"
        }
      ],
      "payable": false,
      "stateMutability": "view",
      "type": "function"
    },
    {
      "constant": true,
      "inputs": [],
      "name": "BANCOR_NETWORK",
      "outputs": [
        {
          "name": "",
          "type": "bytes32"
        }
      ],
      "payable": false,
      "stateMutability": "view",
      "type": "function"
    },
    {
      "constant": true,
      "inputs": [],
      "name": "BANCOR_GAS_PRICE_LIMIT",
      "outputs": [
        {
          "name": "",
          "type": "bytes32"
        }
      ],
      "payable": false,
      "stateMutability": "view",
      "type": "function"
    },
    {
      "constant": true,
      "inputs": [],
      "name": "CONVERTER_CONVERSION_WHITELIST",
      "outputs": [
        {
          "name": "",
          "type": "uint256"
        }
      ],
      "payable": false,
      "stateMutability": "view",
      "type": "function"
    },
    {
      "constant": true,
      "inputs": [],
      "name": "BANCOR_X",
      "outputs": [
        {
          "name": "",
          "type": "bytes32"
        }
      ],
      "payable": false,
      "stateMutability": "view",
      "type": "function"
    },
    {
      "constant": true,
      "inputs": [],
      "name": "BANCOR_X_UPGRADER",
      "outputs": [
        {
          "name": "",
          "type": "bytes32"
        }
      ],
      "payable": false,
      "stateMutability": "view",
      "type": "function"
    },
    {
      "constant": true,
      "inputs": [],
      "name": "newOwner",
      "outputs": [
        {
          "name": "",
          "type": "address"
        }
      ],
      "payable": false,
      "stateMutability": "view",
      "type": "function"
    },
    {
      "constant": false,
      "inputs": [
        {
          "name": "_newOwner",
          "type": "address"
        }
      ],
      "name": "transferOwnership",
      "outputs": [],
      "payable": false,
      "stateMutability": "nonpayable",
      "type": "function"
    },
    {
      "constant": true,
      "inputs": [],
      "name": "NON_STANDARD_TOKEN_REGISTRY",
      "outputs": [
        {
          "name": "",
          "type": "bytes32"
        }
      ],
      "payable": false,
      "stateMutability": "view",
      "type": "function"
    },
    {
      "inputs": [
        {
          "name": "_registry",
          "type": "address"
        }
      ],
      "payable": false,
      "stateMutability": "nonpayable",
      "type": "constructor"
    },
    {
      "anonymous": false,
      "inputs": [
        {
          "indexed": true,
          "name": "_prevOwner",
          "type": "address"
        },
        {
          "indexed": true,
          "name": "_newOwner",
          "type": "address"
        }
      ],
      "name": "OwnerUpdate",
      "type": "event"
    },
    {
      "constant": false,
      "inputs": [
        {
          "name": "_registry",
          "type": "address"
        }
      ],
      "name": "setRegistry",
      "outputs": [],
      "payable": false,
      "stateMutability": "nonpayable",
      "type": "function"
    },
    {
      "constant": false,
      "inputs": [
        {
          "name": "_signerAddress",
          "type": "address"
        }
      ],
      "name": "setSignerAddress",
      "outputs": [],
      "payable": false,
      "stateMutability": "nonpayable",
      "type": "function"
    },
    {
      "constant": false,
      "inputs": [
        {
          "name": "_token",
          "type": "address"
        },
        {
          "name": "_register",
          "type": "bool"
        }
      ],
      "name": "registerEtherToken",
      "outputs": [],
      "payable": false,
      "stateMutability": "nonpayable",
      "type": "function"
    },
    {
      "constant": false,
      "inputs": [
        {
          "name": "_path",
          "type": "address[]"
        },
        {
          "name": "_amount",
          "type": "uint256"
        },
        {
          "name": "_minReturn",
          "type": "uint256"
        },
        {
          "name": "_for",
          "type": "address"
        }
      ],
      "name": "convertFor",
      "outputs": [
        {
          "name": "",
          "type": "uint256"
        }
      ],
      "payable": true,
      "stateMutability": "payable",
      "type": "function"
    },
    {
      "constant": false,
      "inputs": [
        {
          "name": "_path",
          "type": "address[]"
        },
        {
          "name": "_amount",
          "type": "uint256"
        },
        {
          "name": "_minReturn",
          "type": "uint256"
        },
        {
          "name": "_for",
          "type": "address"
        },
        {
          "name": "_customVal",
          "type": "uint256"
        },
        {
          "name": "_block",
          "type": "uint256"
        },
        {
          "name": "_v",
          "type": "uint8"
        },
        {
          "name": "_r",
          "type": "bytes32"
        },
        {
          "name": "_s",
          "type": "bytes32"
        }
      ],
      "name": "convertForPrioritized3",
      "outputs": [
        {
          "name": "",
          "type": "uint256"
        }
      ],
      "payable": true,
      "stateMutability": "payable",
      "type": "function"
    },
    {
      "constant": false,
      "inputs": [
        {
          "name": "_path",
          "type": "address[]"
        },
        {
          "name": "_amount",
          "type": "uint256"
        },
        {
          "name": "_minReturn",
          "type": "uint256"
        },
        {
          "name": "_toBlockchain",
          "type": "bytes32"
        },
        {
          "name": "_to",
          "type": "bytes32"
        },
        {
          "name": "_conversionId",
          "type": "uint256"
        }
      ],
      "name": "xConvert",
      "outputs": [
        {
          "name": "",
          "type": "uint256"
        }
      ],
      "payable": true,
      "stateMutability": "payable",
      "type": "function"
    },
    {
      "constant": false,
      "inputs": [
        {
          "name": "_path",
          "type": "address[]"
        },
        {
          "name": "_amount",
          "type": "uint256"
        },
        {
          "name": "_minReturn",
          "type": "uint256"
        },
        {
          "name": "_toBlockchain",
          "type": "bytes32"
        },
        {
          "name": "_to",
          "type": "bytes32"
        },
        {
          "name": "_conversionId",
          "type": "uint256"
        },
        {
          "name": "_block",
          "type": "uint256"
        },
        {
          "name": "_v",
          "type": "uint8"
        },
        {
          "name": "_r",
          "type": "bytes32"
        },
        {
          "name": "_s",
          "type": "bytes32"
        }
      ],
      "name": "xConvertPrioritized",
      "outputs": [
        {
          "name": "",
          "type": "uint256"
        }
      ],
      "payable": true,
      "stateMutability": "payable",
      "type": "function"
    },
    {
      "constant": true,
      "inputs": [
        {
          "name": "_path",
          "type": "address[]"
        },
        {
          "name": "_amount",
          "type": "uint256"
        }
      ],
      "name": "getReturnByPath",
      "outputs": [
        {
          "name": "",
          "type": "uint256"
        },
        {
          "name": "",
          "type": "uint256"
        }
      ],
      "payable": false,
      "stateMutability": "view",
      "type": "function"
    },
    {
      "constant": false,
      "inputs": [
        {
          "name": "_path",
          "type": "address[]"
        },
        {
          "name": "_amount",
          "type": "uint256"
        },
        {
          "name": "_minReturn",
          "type": "uint256"
        },
        {
          "name": "_for",
          "type": "address"
        }
      ],
      "name": "claimAndConvertFor",
      "outputs": [
        {
          "name": "",
          "type": "uint256"
        }
      ],
      "payable": false,
      "stateMutability": "nonpayable",
      "type": "function"
    },
    {
      "constant": false,
      "inputs": [
        {
          "name": "_path",
          "type": "address[]"
        },
        {
          "name": "_amount",
          "type": "uint256"
        },
        {
          "name": "_minReturn",
          "type": "uint256"
        }
      ],
      "name": "convert",
      "outputs": [
        {
          "name": "",
          "type": "uint256"
        }
      ],
      "payable": true,
      "stateMutability": "payable",
      "type": "function"
    },
    {
      "constant": false,
      "inputs": [
        {
          "name": "_path",
          "type": "address[]"
        },
        {
          "name": "_amount",
          "type": "uint256"
        },
        {
          "name": "_minReturn",
          "type": "uint256"
        }
      ],
      "name": "claimAndConvert",
      "outputs": [
        {
          "name": "",
          "type": "uint256"
        }
      ],
      "payable": false,
      "stateMutability": "nonpayable",
      "type": "function"
    },
    {
      "constant": false,
      "inputs": [
        {
          "name": "_path",
          "type": "address[]"
        },
        {
          "name": "_amount",
          "type": "uint256"
        },
        {
          "name": "_minReturn",
          "type": "uint256"
        },
        {
          "name": "_for",
          "type": "address"
        },
        {
          "name": "_block",
          "type": "uint256"
        },
        {
          "name": "_v",
          "type": "uint8"
        },
        {
          "name": "_r",
          "type": "bytes32"
        },
        {
          "name": "_s",
          "type": "bytes32"
        }
      ],
      "name": "convertForPrioritized2",
      "outputs": [
        {
          "name": "",
          "type": "uint256"
        }
      ],
      "payable": true,
      "stateMutability": "payable",
      "type": "function"
    },
    {
      "constant": false,
      "inputs": [
        {
          "name": "_path",
          "type": "address[]"
        },
        {
          "name": "_amount",
          "type": "uint256"
        },
        {
          "name": "_minReturn",
          "type": "uint256"
        },
        {
          "name": "_for",
          "type": "address"
        },
        {
          "name": "_block",
          "type": "uint256"
        },
        {
          "name": "_nonce",
          "type": "uint256"
        },
        {
          "name": "_v",
          "type": "uint8"
        },
        {
          "name": "_r",
          "type": "bytes32"
        },
        {
          "name": "_s",
          "type": "bytes32"
        }
      ],
      "name": "convertForPrioritized",
      "outputs": [
        {
          "name": "",
          "type": "uint256"
        }
      ],
      "payable": true,
      "stateMutability": "payable",
      "type": "function"
    }
  ],
  "bytecode": "0x608060405260028054600160a060020a031916905534801561002057600080fd5b50604051602080613a1c833981016040525160008054600160a060020a0319163317905580600160a060020a03811615156100bc57604080517f08c379a000000000000000000000000000000000000000000000000000000000815260206004820152600660248201527f3837633937330000000000000000000000000000000000000000000000000000604482015290519081900360640190fd5b5060038054600160a060020a031916600160a060020a0392909216919091179055613930806100ec6000396000f30060806040526004361061019d5763ffffffff60e060020a60003504166302ef521e81146101a2578063046dc166146101ca5780630c8496cc146101eb5780630c87355e1461025b5780631134269a146102825780631d000b61146102ff57806325f9bfef146103145780635a46f06c146103295780635b7633d01461033e5780635e35359e1461036f57806362614ae6146103995780636896b999146103ae5780636b08f2ef146104295780636d7bd3fc146104a057806379ba5097146104b55780637b103999146104ca5780638077ccf7146104df57806383315b6e1461051457806389e63a60146105295780638da5cb5b146105415780639232494e146105565780639249993a1461056b57806392d1abb714610580578063a91ee0dc14610595578063b1e9932b146105b6578063b406d38614610621578063c4a8598e1461069e578063c52173de146106b3578063c7ba24bc14610712578063c98fefed14610770578063cc97b38f146107ce578063d4ee1d90146107e3578063f2fde38b146107f8578063f3898a9714610819578063f5286b9c1461086a575b600080fd5b3480156101ae57600080fd5b506101c8600160a060020a0360043516602435151561087f565b005b3480156101d657600080fd5b506101c8600160a060020a036004351661099b565b3480156101f757600080fd5b5060408051602060048035808201358381028086018501909652808552610242953695939460249493850192918291850190849080828437509497505093359450610abb9350505050565b6040805192835260208301919091528051918290030190f35b34801561026757600080fd5b506102706112d1565b60408051918252519081900360200190f35b604080516020600480358082013583810280860185019096528085526102709536959394602494938501929182918501908490808284375094975050843595505050602083013592600160a060020a0360408201351692506060810135915060808101359060ff60a0820135169060c08101359060e001356112f5565b34801561030b57600080fd5b50610270611316565b34801561032057600080fd5b5061027061133a565b34801561033557600080fd5b5061027061135e565b34801561034a57600080fd5b50610353611382565b60408051600160a060020a039092168252519081900360200190f35b34801561037b57600080fd5b506101c8600160a060020a0360043581169060243516604435611391565b3480156103a557600080fd5b50610270611552565b604080516020600480358082013583810280860185019096528085526102709536959394602494938501929182918501908490808284375094975050843595505050602083013592604081013592506060810135915060808101359060a08101359060ff60c0820135169060e0810135906101000135611576565b604080516020600480358082013583810280860185019096528085526102709536959394602494938501929182918501908490808284375094975050843595505050602083013592600160a060020a0360408201351692506060810135915060ff6080820135169060a08101359060c001356116eb565b3480156104ac57600080fd5b5061027061170b565b3480156104c157600080fd5b506101c861172f565b3480156104d657600080fd5b50610353611802565b3480156104eb57600080fd5b50610500600160a060020a0360043516611811565b604080519115158252519081900360200190f35b34801561052057600080fd5b50610270611826565b34801561053557600080fd5b5061050060043561184a565b34801561054d57600080fd5b5061035361185f565b34801561056257600080fd5b5061027061186e565b34801561057757600080fd5b50610270611892565b34801561058c57600080fd5b506102706118b6565b3480156105a157600080fd5b506101c8600160a060020a03600435166118bb565b3480156105c257600080fd5b5060408051602060048035808201358381028086018501909652808552610270953695939460249493850192918291850190849080828437509497505084359550505060208301359260400135600160a060020a031691506119db9050565b604080516020600480358082013583810280860185019096528085526102709536959394602494938501929182918501908490808284375094975050843595505050602083013592600160a060020a0360408201351692506060810135915060808101359060ff60a0820135169060c08101359060e00135611a1b565b3480156106aa57600080fd5b50610270611b41565b604080516020600480358082013583810280860185019096528085526102709536959394602494938501929182918501908490808284375094975050843595505050602083013592604081013592506060810135915060800135611b65565b34801561071e57600080fd5b506040805160206004803580820135838102808601850190965280855261027095369593946024949385019291829185019084908082843750949750508435955050506020909201359150611b849050565b60408051602060048035808201358381028086018501909652808552610270953695939460249493850192918291850190849080828437509497505084359550505060208301359260400135600160a060020a03169150611b9a9050565b3480156107da57600080fd5b50610270611bb6565b3480156107ef57600080fd5b50610353611bda565b34801561080457600080fd5b506101c8600160a060020a0360043516611be9565b6040805160206004803580820135838102808601850190965280855261027095369593946024949385019291829185019084908082843750949750508435955050506020909201359150611cce9050565b34801561087657600080fd5b50610270611cdc565b600054600160a060020a031633146108cf576040805160e560020a62461bcd02815260206004820152600660248201526000805160206138a5833981519152604482015290519081900360640190fd5b81600160a060020a038116151561091e576040805160e560020a62461bcd02815260206004820152600660248201526000805160206138e5833981519152604482015290519081900360640190fd5b82600160a060020a03811630141561096e576040805160e560020a62461bcd02815260206004820152600660248201526000805160206138c5833981519152604482015290519081900360640190fd5b5050600160a060020a03919091166000908152600460205260409020805460ff1916911515919091179055565b600054600160a060020a031633146109eb576040805160e560020a62461bcd02815260206004820152600660248201526000805160206138a5833981519152604482015290519081900360640190fd5b80600160a060020a0381161515610a3a576040805160e560020a62461bcd02815260206004820152600660248201526000805160206138e5833981519152604482015290519081900360640190fd5b81600160a060020a038116301415610a8a576040805160e560020a62461bcd02815260206004820152600660248201526000805160206138c5833981519152604482015290519081900360640190fd5b50506002805473ffffffffffffffffffffffffffffffffffffffff1916600160a060020a0392909216919091179055565b600080600080600080600080600080600080600080600360009054906101000a9004600160a060020a0316600160a060020a03166321f8a7217f42616e636f72466f726d756c61000000000000000000000000000000000000006040518263ffffffff1660e060020a028152600401808260001916600019168152602001915050602060405180830381600087803b158015610b5657600080fd5b505af1158015610b6a573d6000803e3d6000fd5b505050506040513d6020811015610b8057600080fd5b810190808051906020019092919050505091508e97508f6000815181101515610ba557fe5b906020019060200201519b50600190505b8f518110156112bb578f81815181101515610bcd57fe5b906020019060200201519a508f81600101815181101515610bea57fe5b9060200190602002015199508a600160a060020a0316638da5cb5b6040518163ffffffff1660e060020a028152600401602060405180830381600087803b158015610c3457600080fd5b505af1158015610c48573d6000803e3d6000fd5b505050506040513d6020811015610c5e57600080fd5b50519850600160a060020a038a8116908c161415610fcf5782600160a060020a03168b600160a060020a031614610cfe578a600160a060020a03166318160ddd6040518163ffffffff1660e060020a028152600401602060405180830381600087803b158015610ccd57600080fd5b505af1158015610ce1573d6000803e3d6000fd5b505050506040513d6020811015610cf757600080fd5b5051610d00565b855b9550610d0c898d611d00565b1515610d62576040805160e560020a62461bcd02815260206004820152600660248201527f3339393535620000000000000000000000000000000000000000000000000000604482015290519081900360640190fd5b88600160a060020a031663d89595128d6040518263ffffffff1660e060020a0281526004018082600160a060020a0316600160a060020a03168152602001915050602060405180830381600087803b158015610dbd57600080fd5b505af1158015610dd1573d6000803e3d6000fd5b505050506040513d6020811015610de757600080fd5b50519450610df5898d611d9f565b604080517f29a00e7c000000000000000000000000000000000000000000000000000000008152600481018990526024810188905263ffffffff83166044820152606481018b90529051919550600160a060020a038416916329a00e7c916084808201926020929091908290030181600087803b158015610e7557600080fd5b505af1158015610e89573d6000803e3d6000fd5b505050506040513d6020811015610e9f57600080fd5b5051604080517f579cd3ca0000000000000000000000000000000000000000000000000000000081529051919950610f5591620f424091610f4991600160a060020a038e169163579cd3ca9160048083019260209291908290030181600087803b158015610f0c57600080fd5b505af1158015610f20573d6000803e3d6000fd5b505050506040513d6020811015610f3657600080fd5b50518b9063ffffffff90811690611e3e16565b9063ffffffff611ec216565b96508688039750878b600160a060020a03166318160ddd6040518163ffffffff1660e060020a028152600401602060405180830381600087803b158015610f9b57600080fd5b505af1158015610faf573d6000803e3d6000fd5b505050506040513d6020811015610fc557600080fd5b50510195506112ab565b8a600160a060020a03168c600160a060020a031614156112995782600160a060020a03168b600160a060020a031614611071578a600160a060020a03166318160ddd6040518163ffffffff1660e060020a028152600401602060405180830381600087803b15801561104057600080fd5b505af1158015611054573d6000803e3d6000fd5b505050506040513d602081101561106a57600080fd5b5051611073565b855b955088600160a060020a031663d89595128b6040518263ffffffff1660e060020a0281526004018082600160a060020a0316600160a060020a03168152602001915050602060405180830381600087803b1580156110d057600080fd5b505af11580156110e4573d6000803e3d6000fd5b505050506040513d60208110156110fa57600080fd5b50519450611108898b611d9f565b604080517f49f9b0f7000000000000000000000000000000000000000000000000000000008152600481018990526024810188905263ffffffff83166044820152606481018b90529051919550600160a060020a038416916349f9b0f7916084808201926020929091908290030181600087803b15801561118857600080fd5b505af115801561119c573d6000803e3d6000fd5b505050506040513d60208110156111b257600080fd5b5051604080517f579cd3ca000000000000000000000000000000000000000000000000000000008152905191995061121f91620f424091610f4991600160a060020a038e169163579cd3ca9160048083019260209291908290030181600087803b158015610f0c57600080fd5b96508688039750878b600160a060020a03166318160ddd6040518163ffffffff1660e060020a028152600401602060405180830381600087803b15801561126557600080fd5b505af1158015611279573d6000803e3d6000fd5b505050506040513d602081101561128f57600080fd5b50510395506112ab565b6112a5898d8c8b611f30565b90985096505b989a508a988a9250600201610bb6565b50959e949d50939b505050505050505050505050565b7f42616e636f72436f6e766572746572557067726164657200000000000000000081565b60006113088a8a8a8a8d8b8a8a8a611a1b565b9a9950505050505050505050565b7f424e54546f6b656e00000000000000000000000000000000000000000000000081565b7f436f6e747261637452656769737472790000000000000000000000000000000081565b7f42616e636f72436f6e766572746572466163746f72790000000000000000000081565b600254600160a060020a031681565b600054600160a060020a031633146113e1576040805160e560020a62461bcd02815260206004820152600660248201526000805160206138a5833981519152604482015290519081900360640190fd5b82600160a060020a0381161515611430576040805160e560020a62461bcd02815260206004820152600660248201526000805160206138e5833981519152604482015290519081900360640190fd5b82600160a060020a038116151561147f576040805160e560020a62461bcd02815260206004820152600660248201526000805160206138e5833981519152604482015290519081900360640190fd5b83600160a060020a0381163014156114cf576040805160e560020a62461bcd02815260206004820152600660248201526000805160206138c5833981519152604482015290519081900360640190fd5b85600160a060020a031663a9059cbb86866040518363ffffffff1660e060020a0281526004018083600160a060020a0316600160a060020a0316815260200182815260200192505050600060405180830381600087803b15801561153257600080fd5b505af1158015611546573d6000803e3d6000fd5b50505050505050505050565b7f424e54436f6e766572746572000000000000000000000000000000000000000081565b6000806115878c8c8888888861204e565b6115ac8c8c8c8f600081518110151561159c57fe5b90602001906020020151306124ac565b6003546040805160e260020a632ecd14d30281527f42616e636f72580000000000000000000000000000000000000000000000000060048201529051929450600160a060020a03909116925063bb34534c9160248083019260209291908290030181600087803b15801561161f57600080fd5b505af1158015611633573d6000803e3d6000fd5b505050506040513d602081101561164957600080fd5b5051604080517f427c0374000000000000000000000000000000000000000000000000000000008152600481018c9052602481018b905260448101849052606481018a90529051600160a060020a039092169163427c03749160848082019260009290919082900301818387803b1580156116c357600080fd5b505af11580156116d7573d6000803e3d6000fd5b50929e9d5050505050505050505050505050565b60006116fe898989898c8a8a8a8a611a1b565b9998505050505050505050565b7f42616e636f72466f726d756c610000000000000000000000000000000000000081565b600154600160a060020a03163314611791576040805160e560020a62461bcd02815260206004820152600660248201527f6636663630300000000000000000000000000000000000000000000000000000604482015290519081900360640190fd5b60015460008054604051600160a060020a0393841693909116917f343765429aea5a34b3ff6a3785a98a5abb2597aca87bfbb58632c173d585373a91a3600180546000805473ffffffffffffffffffffffffffffffffffffffff19908116600160a060020a03841617909155169055565b600354600160a060020a031681565b60046020526000908152604090205460ff1681565b7f436f6e747261637446656174757265730000000000000000000000000000000081565b60056020526000908152604090205460ff1681565b600054600160a060020a031681565b7f42616e636f724e6574776f726b0000000000000000000000000000000000000081565b7f42616e636f7247617350726963654c696d69740000000000000000000000000081565b600181565b600054600160a060020a0316331461190b576040805160e560020a62461bcd02815260206004820152600660248201526000805160206138a5833981519152604482015290519081900360640190fd5b80600160a060020a038116151561195a576040805160e560020a62461bcd02815260206004820152600660248201526000805160206138e5833981519152604482015290519081900360640190fd5b81600160a060020a0381163014156119aa576040805160e560020a62461bcd02815260206004820152600660248201526000805160206138c5833981519152604482015290519081900360640190fd5b50506003805473ffffffffffffffffffffffffffffffffffffffff1916600160a060020a0392909216919091179055565b6000808560008151811015156119ed57fe5b906020019060200201519050611a058133308861271b565b611a1186868686611b9a565b9695505050505050565b6000808a6000815181101515611a2d57fe5b9060200190602002015190503460001480611a6a5750348a148015611a6a5750600160a060020a03811660009081526004602052604090205460ff165b1515611ac0576040805160e560020a62461bcd02815260206004820152600660248201527f3562623137610000000000000000000000000000000000000000000000000000604482015290519081900360640190fd5b6000341115611b215780600160a060020a031663d0e30db0346040518263ffffffff1660e060020a0281526004016000604051808303818588803b158015611b0757600080fd5b505af1158015611b1b573d6000803e3d6000fd5b50505050505b611b328b8b8b8b8b8b8b8b8b612ab3565b9b9a5050505050505050505050565b7f42616e636f72580000000000000000000000000000000000000000000000000081565b6000611b7987878787878787808080611576565b979650505050505050565b6000611b92848484336119db565b949350505050565b6000611bad858585858286808080611a1b565b95945050505050565b7f42616e636f72585570677261646572000000000000000000000000000000000081565b600154600160a060020a031681565b600054600160a060020a03163314611c39576040805160e560020a62461bcd02815260206004820152600660248201526000805160206138a5833981519152604482015290519081900360640190fd5b600054600160a060020a0382811691161415611c9f576040805160e560020a62461bcd02815260206004820152600660248201527f6466376430320000000000000000000000000000000000000000000000000000604482015290519081900360640190fd5b6001805473ffffffffffffffffffffffffffffffffffffffff1916600160a060020a0392909216919091179055565b6000611b9284848433611b9a565b7f4e6f6e5374616e64617264546f6b656e5265676973747279000000000000000081565b60008060008060008087600160a060020a0316630e53aae9886040518263ffffffff1660e060020a0281526004018082600160a060020a0316600160a060020a0316815260200191505060a060405180830381600087803b158015611d6457600080fd5b505af1158015611d78573d6000803e3d6000fd5b505050506040513d60a0811015611d8e57600080fd5b506060015198975050505050505050565b60008060008060008087600160a060020a0316630e53aae9886040518263ffffffff1660e060020a0281526004018082600160a060020a0316600160a060020a0316815260200191505060a060405180830381600087803b158015611e0357600080fd5b505af1158015611e17573d6000803e3d6000fd5b505050506040513d60a0811015611e2d57600080fd5b506020015198975050505050505050565b600080831515611e515760009150611ebb565b50828202828482811515611e6157fe5b0414611eb7576040805160e560020a62461bcd02815260206004820152600660248201527f6464383166380000000000000000000000000000000000000000000000000000604482015290519081900360640190fd5b8091505b5092915050565b600080808311611f1c576040805160e560020a62461bcd02815260206004820152600660248201527f6236643436660000000000000000000000000000000000000000000000000000604482015290519081900360640190fd5b8284811515611f2757fe5b04949350505050565b600080611f3b613889565b604080517f67657452657475726e28616464726573732c616464726573732c75696e74323581527f36290000000000000000000000000000000000000000000000000000000000006020808301919091528251918290036022018220600160a060020a03808b166024850152891660448401526064808401899052845180850390910181526084909301845290820180517bffffffffffffffffffffffffffffffffffffffffffffffffffffffff167fffffffff0000000000000000000000000000000000000000000000000000000060e060020a9384900490930292909216919091178152815191929184918b5afa80151561203757600080fd5b505080516020909101519097909650945050505050565b600080876002815111801561206557506015815111155b801561207657508051600290066001145b15156120cc576040805160e560020a62461bcd02815260206004820152600660248201527f6135636165650000000000000000000000000000000000000000000000000000604482015290519081900360640190fd5b8860008151811015156120db57fe5b9060200190602002015192503460001480612118575034881480156121185750600160a060020a03831660009081526004602052604090205460ff165b151561216e576040805160e560020a62461bcd02815260206004820152600660248201527f3663326230310000000000000000000000000000000000000000000000000000604482015290519081900360640190fd5b6003546040805160e260020a632ecd14d30281527f424e54546f6b656e00000000000000000000000000000000000000000000000060048201529051600160a060020a039092169163bb34534c916024808201926020929091908290030181600087803b1580156121de57600080fd5b505af11580156121f2573d6000803e3d6000fd5b505050506040513d602081101561220857600080fd5b50518951600160a060020a03909116908a90600019810190811061222857fe5b60209081029091010151600160a060020a031614612290576040805160e560020a62461bcd02815260206004820152600660248201527f3830343439640000000000000000000000000000000000000000000000000000604482015290519081900360640190fd5b60003411156122f55782600160a060020a031663d0e30db0346040518263ffffffff1660e060020a0281526004016000604051808303818588803b1580156122d757600080fd5b505af11580156122eb573d6000803e3d6000fd5b5050505050612301565b6123018333308b61271b565b60ff8616158015612310575084155b801561231a575083155b1561243c576003546040805160e260020a632ecd14d30281527f42616e636f7247617350726963654c696d69740000000000000000000000000060048201529051600160a060020a039092169163bb34534c916024808201926020929091908290030181600087803b15801561238f57600080fd5b505af11580156123a3573d6000803e3d6000fd5b505050506040513d60208110156123b957600080fd5b5051604080517f6b4dff1f0000000000000000000000000000000000000000000000000000000081523a60048201529051919350600160a060020a03841691636b4dff1f9160248082019260009290919082900301818387803b15801561241f57600080fd5b505af1158015612433573d6000803e3d6000fd5b505050506124a1565b61244b898989338a8a8a612dc0565b15156124a1576040805160e560020a62461bcd02815260206004820152600660248201527f6538613636660000000000000000000000000000000000000000000000000000604482015290519081900360640190fd5b505050505050505050565b6003546040805160e260020a632ecd14d30281527f436f6e7472616374466561747572657300000000000000000000000000000000600482015290516000928392839283928392839283928392600160a060020a039091169163bb34534c9160248082019260209290919082900301818787803b15801561252c57600080fd5b505af1158015612540573d6000803e3d6000fd5b505050506040513d602081101561255657600080fd5b50518d519093509150600190505b8181101561270a578c8181518110151561257a57fe5b9060200190602002015195508c8160010181518110151561259757fe5b90602001906020020151945085600160a060020a0316638da5cb5b6040518163ffffffff1660e060020a028152600401602060405180830381600087803b1580156125e157600080fd5b505af11580156125f5573d6000803e3d6000fd5b505050506040513d602081101561260b57600080fd5b5051935061261a848a856130ca565b600160a060020a03868116908b1614612638576126388a858e6132d1565b83600160a060020a0316635e5144eb8b878f60028703861461265b57600161265d565b8f5b6040518563ffffffff1660e060020a0281526004018085600160a060020a0316600160a060020a0316815260200184600160a060020a0316600160a060020a03168152602001838152602001828152602001945050505050602060405180830381600087803b1580156126cf57600080fd5b505af11580156126e3573d6000803e3d6000fd5b505050506040513d60208110156126f957600080fd5b50519b509398508893600201612564565b50929b999a50505050505050505050565b6003546040805160e260020a632ecd14d30281527f4e6f6e5374616e64617264546f6b656e526567697374727900000000000000006004820152905160009283928392600160a060020a039092169163bb34534c9160248082019260209290919082900301818787803b15801561279157600080fd5b505af11580156127a5573d6000803e3d6000fd5b505050506040513d60208110156127bb57600080fd5b5051604080517faeea10bd000000000000000000000000000000000000000000000000000000008152600160a060020a038a8116600483015291519295509085169163aeea10bd916024808201926020929091908290030181600087803b15801561282557600080fd5b505af1158015612839573d6000803e3d6000fd5b505050506040513d602081101561284f57600080fd5b505115612a025786600160a060020a03166370a08231866040518263ffffffff1660e060020a0281526004018082600160a060020a0316600160a060020a03168152602001915050602060405180830381600087803b1580156128b157600080fd5b505af11580156128c5573d6000803e3d6000fd5b505050506040513d60208110156128db57600080fd5b5051604080517f23b872dd000000000000000000000000000000000000000000000000000000008152600160a060020a0389811660048301528881166024830152604482018890529151929450908916916323b872dd9160648082019260009290919082900301818387803b15801561295357600080fd5b505af1158015612967573d6000803e3d6000fd5b5050505086600160a060020a03166370a08231866040518263ffffffff1660e060020a0281526004018082600160a060020a0316600160a060020a03168152602001915050602060405180830381600087803b1580156129c657600080fd5b505af11580156129da573d6000803e3d6000fd5b505050506040513d60208110156129f057600080fd5b505190508181116129fd57fe5b612aaa565b604080517f23b872dd000000000000000000000000000000000000000000000000000000008152600160a060020a0388811660048301528781166024830152604482018790529151918916916323b872dd916064808201926020929091908290030181600087803b158015612a7657600080fd5b505af1158015612a8a573d6000803e3d6000fd5b505050506040513d6020811015612aa057600080fd5b50511515612aaa57fe5b50505050505050565b6000806000808c60028151118015612acd57506015815111155b8015612ade57508051600290066001145b1515612b34576040805160e560020a62461bcd02815260206004820152600660248201527f6135636165650000000000000000000000000000000000000000000000000000604482015290519081900360640190fd5b60ff8816158015612b43575086155b8015612b4d575085155b15612c6f576003546040805160e260020a632ecd14d30281527f42616e636f7247617350726963654c696d69740000000000000000000000000060048201529051600160a060020a039092169163bb34534c916024808201926020929091908290030181600087803b158015612bc257600080fd5b505af1158015612bd6573d6000803e3d6000fd5b505050506040513d6020811015612bec57600080fd5b5051604080517f6b4dff1f0000000000000000000000000000000000000000000000000000000081523a60048201529051919550600160a060020a03861691636b4dff1f9160248082019260009290919082900301818387803b158015612c5257600080fd5b505af1158015612c66573d6000803e3d6000fd5b50505050612cd4565b612c7e8e8b8b8e8c8c8c612dc0565b1515612cd4576040805160e560020a62461bcd02815260206004820152600660248201527f6135313365610000000000000000000000000000000000000000000000000000604482015290519081900360640190fd5b8d6000815181101515612ce357fe5b906020019060200201519250612cfc8e8e8e868f6124ac565b600160a060020a038216600090815260046020526040902054909e5090925060ff1615612da35781600160a060020a031663205c28788c8f6040518363ffffffff1660e060020a0281526004018083600160a060020a0316600160a060020a0316815260200182815260200192505050600060405180830381600087803b158015612d8657600080fd5b505af1158015612d9a573d6000803e3d6000fd5b50505050612dae565b612dae828c8f61350b565b509a9c9b505050505050505050505050565b600080600080883a89338d8f6040516020018087815260200186815260200185600160a060020a0316600160a060020a03166c0100000000000000000000000002815260140184600160a060020a0316600160a060020a03166c01000000000000000000000000028152601401838152602001828051906020019060200280838360005b83811015612e5c578181015183820152602001612e44565b5050505090500196505050505050506040516020818303038152906040526040518082805190602001908083835b60208310612ea95780518252601f199092019160209182019101612e8a565b51815160209384036101000a6000190180199092169116179052604080519290940182900390912060008181526005909252929020549196505060ff16159150508015612ef65750884311155b1515612f4c576040805160e560020a62461bcd02815260206004820152600660248201527f3138376336650000000000000000000000000000000000000000000000000000604482015290519081900360640190fd5b604080517f19457468657265756d205369676e6564204d6573736167653a0a333200000000602080830191909152603c80830187905283518084039091018152605c90920192839052815191929182918401908083835b60208310612fc25780518252601f199092019160209182019101612fa3565b6001836020036101000a03801982511681845116808217855250505050505090500191505060405180910390209150600260009054906101000a9004600160a060020a0316600160a060020a0316600183898989604051600081526020016040526040518085600019166000191681526020018460ff1660ff1681526020018360001916600019168152602001826000191660001916815260200194505050505060206040516020810390808403906000865af1158015613087573d6000803e3d6000fd5b50505060206040510351600160a060020a03161490508015611308576000838152600560205260409020805460ff191660011790559a9950505050505050505050565b604080517fa5fbf287000000000000000000000000000000000000000000000000000000008152600160a060020a03858116600483015260016024830152915160009284169163a5fbf28791604480830192602092919082900301818787803b15801561313657600080fd5b505af115801561314a573d6000803e3d6000fd5b505050506040513d602081101561316057600080fd5b5051151561316d576132cb565b83600160a060020a031663c45d3d926040518163ffffffff1660e060020a028152600401602060405180830381600087803b1580156131ab57600080fd5b505af11580156131bf573d6000803e3d6000fd5b505050506040513d60208110156131d557600080fd5b50519050600160a060020a03811615156131ee576132cb565b80600160a060020a0316633af32abf846040518263ffffffff1660e060020a0281526004018082600160a060020a0316600160a060020a03168152602001915050602060405180830381600087803b15801561324957600080fd5b505af115801561325d573d6000803e3d6000fd5b505050506040513d602081101561327357600080fd5b505115156132cb576040805160e560020a62461bcd02815260206004820152600660248201527f6532353034610000000000000000000000000000000000000000000000000000604482015290519081900360640190fd5b50505050565b604080517fdd62ed3e000000000000000000000000000000000000000000000000000000008152306004820152600160a060020a0384811660248301529151839286169163dd62ed3e9160448083019260209291908290030181600087803b15801561333c57600080fd5b505af1158015613350573d6000803e3d6000fd5b505050506040513d602081101561336657600080fd5b50511061337257613506565b604080517fdd62ed3e000000000000000000000000000000000000000000000000000000008152306004820152600160a060020a03848116602483015291519185169163dd62ed3e916044808201926020929091908290030181600087803b1580156133dd57600080fd5b505af11580156133f1573d6000803e3d6000fd5b505050506040513d602081101561340757600080fd5b50511561348f57604080517f095ea7b3000000000000000000000000000000000000000000000000000000008152600160a060020a03848116600483015260006024830181905292519086169263095ea7b3926044808201939182900301818387803b15801561347657600080fd5b505af115801561348a573d6000803e3d6000fd5b505050505b82600160a060020a031663095ea7b383836040518363ffffffff1660e060020a0281526004018083600160a060020a0316600160a060020a0316815260200182815260200192505050600060405180830381600087803b1580156134f257600080fd5b505af1158015612aaa573d6000803e3d6000fd5b505050565b6003546040805160e260020a632ecd14d30281527f4e6f6e5374616e64617264546f6b656e526567697374727900000000000000006004820152905160009283928392600160a060020a039092169163bb34534c9160248082019260209290919082900301818787803b15801561358157600080fd5b505af1158015613595573d6000803e3d6000fd5b505050506040513d60208110156135ab57600080fd5b5051604080517faeea10bd000000000000000000000000000000000000000000000000000000008152600160a060020a03898116600483015291519295509085169163aeea10bd916024808201926020929091908290030181600087803b15801561361557600080fd5b505af1158015613629573d6000803e3d6000fd5b505050506040513d602081101561363f57600080fd5b5051156137ea5785600160a060020a03166370a08231866040518263ffffffff1660e060020a0281526004018082600160a060020a0316600160a060020a03168152602001915050602060405180830381600087803b1580156136a157600080fd5b505af11580156136b5573d6000803e3d6000fd5b505050506040513d60208110156136cb57600080fd5b5051604080517fa9059cbb000000000000000000000000000000000000000000000000000000008152600160a060020a0388811660048301526024820188905291519294509088169163a9059cbb9160448082019260009290919082900301818387803b15801561373b57600080fd5b505af115801561374f573d6000803e3d6000fd5b5050505085600160a060020a03166370a08231866040518263ffffffff1660e060020a0281526004018082600160a060020a0316600160a060020a03168152602001915050602060405180830381600087803b1580156137ae57600080fd5b505af11580156137c2573d6000803e3d6000fd5b505050506040513d60208110156137d857600080fd5b505190508181116137e557fe5b613881565b85600160a060020a031663a9059cbb86866040518363ffffffff1660e060020a0281526004018083600160a060020a0316600160a060020a0316815260200182815260200192505050602060405180830381600087803b15801561384d57600080fd5b505af1158015613861573d6000803e3d6000fd5b505050506040513d602081101561387757600080fd5b5051151561388157fe5b505050505050565b604080518082018252906002908290803883395091929150505600613233353037000000000000000000000000000000000000000000000000000064613266346400000000000000000000000000000000000000000000000000003837633937330000000000000000000000000000000000000000000000000000a165627a7a7230582023017cd328b6031531ba07afec6c851bab7809e624248eb81784cc30770349f70029",
  "source": "pragma solidity ^0.4.24;\nimport './IBancorNetwork.sol';\nimport './ContractIds.sol';\nimport './FeatureIds.sol';\nimport './converter/interfaces/IBancorConverter.sol';\nimport './converter/interfaces/IBancorFormula.sol';\nimport './converter/interfaces/IBancorGasPriceLimit.sol';\nimport './utility/TokenHolder.sol';\nimport './utility/SafeMath.sol';\nimport './utility/interfaces/IContractRegistry.sol';\nimport './utility/interfaces/IContractFeatures.sol';\nimport './utility/interfaces/IWhitelist.sol';\nimport './utility/interfaces/IAddressList.sol';\nimport './token/interfaces/IEtherToken.sol';\nimport './token/interfaces/ISmartToken.sol';\nimport './token/interfaces/INonStandardERC20.sol';\nimport './bancorx/interfaces/IBancorX.sol';\n\n/**\n    @dev The BancorNetwork contract is the main entry point for Bancor token conversions. It also allows for the conversion of any token in the Bancor Network to any other token in a single transaction by providing a conversion path. \n\n    A note on Conversion Path: Conversion path is a data structure that is used when converting a token to another token in the Bancor Network when the conversion cannot necessarily be done by a single converter and might require multiple 'hops'. The path defines which converters should be used and what kind of conversion should be done in each step. \n    \n    The path format doesn't include complex structure; instead, it is represented by a single array in which each 'hop' is represented by a 2-tuple - smart token & to token. In addition, the first element is always the source token. The smart token is only used as a pointer to a converter (since converter addresses are more likely to change as opposed to smart token addresses).\n\n    Format:\n    [source token, smart token, to token, smart token, to token...]\n*/\ncontract BancorNetwork is IBancorNetwork, TokenHolder, ContractIds, FeatureIds {\n    using SafeMath for uint256;\n\n    uint64 private constant MAX_CONVERSION_FEE = 1000000;\n\n    address public signerAddress = 0x0;         // verified address that allows conversions with higher gas price\n    IContractRegistry public registry;          // contract registry contract address\n\n    mapping (address => bool) public etherTokens;       // list of all supported ether tokens\n    mapping (bytes32 => bool) public conversionHashes;  // list of conversion hashes, to prevent re-use of the same hash\n\n    /**\n        @dev initializes a new BancorNetwork instance\n\n        @param _registry    address of a contract registry contract\n    */\n    constructor(IContractRegistry _registry) public validAddress(_registry) {\n        registry = _registry;\n    }\n\n    // validates a conversion path - verifies that the number of elements is odd and that maximum number of 'hops' is 10\n    modifier validConversionPath(IERC20Token[] _path) {\n        require(_path.length > 2 && _path.length <= (1 + 2 * 10) && _path.length % 2 == 1, 'a5caee');\n        _;\n    }\n\n    /**\n        @dev allows the owner to update the contract registry contract address\n\n        @param _registry   address of a contract registry contract\n    */\n    function setRegistry(IContractRegistry _registry)\n        public\n        ownerOnly\n        validAddress(_registry)\n        notThis(_registry)\n    {\n        registry = _registry;\n    }\n\n    /**\n        @dev allows the owner to update the signer address\n\n        @param _signerAddress    new signer address\n    */\n    function setSignerAddress(address _signerAddress)\n        public\n        ownerOnly\n        validAddress(_signerAddress)\n        notThis(_signerAddress)\n    {\n        signerAddress = _signerAddress;\n    }\n\n    /**\n        @dev allows the owner to register/unregister ether tokens\n\n        @param _token       ether token contract address\n        @param _register    true to register, false to unregister\n    */\n    function registerEtherToken(IEtherToken _token, bool _register)\n        public\n        ownerOnly\n        validAddress(_token)\n        notThis(_token)\n    {\n        etherTokens[_token] = _register;\n    }\n\n    /**\n        @dev verifies that the signer address is trusted by recovering \n        the address associated with the public key from elliptic \n        curve signature, returns zero on error.\n        notice that the signature is valid only for one conversion\n        and expires after the give block.\n\n        @return true if the signer is verified\n    */\n    function verifyTrustedSender(IERC20Token[] _path, uint256 _customVal, uint256 _block, address _addr, uint8 _v, bytes32 _r, bytes32 _s) private returns(bool) {\n        bytes32 hash = keccak256(abi.encodePacked(_block, tx.gasprice, _addr, msg.sender, _customVal, _path));\n\n        // checking that it is the first conversion with the given signature\n        // and that the current block number doesn't exceeded the maximum block\n        // number that's allowed with the current signature\n        require(!conversionHashes[hash] && block.number <= _block, '187c6e');\n\n        // recovering the signing address and comparing it to the trusted signer\n        // address that was set in the contract\n        bytes32 prefixedHash = keccak256(abi.encodePacked(\"\\x19Ethereum Signed Message:\\n32\", hash));\n        bool verified = ecrecover(prefixedHash, _v, _r, _s) == signerAddress;\n\n        // if the signer is the trusted signer - mark the hash so that it can't\n        // be used multiple times\n        if (verified)\n            conversionHashes[hash] = true;\n        return verified;\n    }\n\n    /**\n        @dev validates xConvert call by verifying the path format, claiming the callers tokens (if not ETH),\n        and verifying the gas price limit\n\n        @param _path        conversion path, see conversion path format above\n        @param _amount      amount to convert from (in the initial source token)\n        @param _block       if the current block exceeded the given parameter - it is cancelled\n        @param _v           (signature[128:130]) associated with the signer address and helps to validate if the signature is legit\n        @param _r           (signature[0:64]) associated with the signer address and helps to validate if the signature is legit\n        @param _s           (signature[64:128]) associated with the signer address and helps to validate if the signature is legit\n    */\n    function validateXConversion(\n        IERC20Token[] _path,\n        uint256 _amount,\n        uint256 _block,\n        uint8 _v,\n        bytes32 _r,\n        bytes32 _s\n    ) \n        private \n        validConversionPath(_path)    \n    {\n        // if ETH is provided, ensure that the amount is identical to _amount and verify that the source token is an ether token\n        IERC20Token fromToken = _path[0];\n        require(msg.value == 0 || (_amount == msg.value && etherTokens[fromToken]), '6c2b01');\n\n        // require that the dest token is BNT\n        require(_path[_path.length - 1] == registry.addressOf(ContractIds.BNT_TOKEN), '80449d');\n\n        // if ETH was sent with the call, the source is an ether token - deposit the ETH in it\n        // otherwise, we claim the tokens from the sender\n        if (msg.value > 0) {\n            IEtherToken(fromToken).deposit.value(msg.value)();\n        } else {\n            ensureTransferFrom(fromToken, msg.sender, this, _amount);\n        }\n\n        // verify gas price limit\n        if (_v == 0x0 && _r == 0x0 && _s == 0x0) {\n            IBancorGasPriceLimit gasPriceLimit = IBancorGasPriceLimit(registry.addressOf(ContractIds.BANCOR_GAS_PRICE_LIMIT));\n            gasPriceLimit.validateGasPrice(tx.gasprice);\n        } else {\n            require(verifyTrustedSender(_path, _amount, _block, msg.sender, _v, _r, _s), 'e8a66f');\n        }\n    }\n\n    /**\n        @dev converts the token to any other token in the bancor network by following\n        a predefined conversion path and transfers the result tokens to a target account\n        note that the converter should already own the source tokens\n\n        @param _path        conversion path, see conversion path format above\n        @param _amount      amount to convert from (in the initial source token)\n        @param _minReturn   if the conversion results in an amount smaller than the minimum return - it is cancelled, must be nonzero\n        @param _for         account that will receive the conversion result\n\n        @return tokens issued in return\n    */\n    function convertFor(IERC20Token[] _path, uint256 _amount, uint256 _minReturn, address _for) public payable returns (uint256) {\n        return convertForPrioritized3(_path, _amount, _minReturn, _for, _amount, 0x0, 0x0, 0x0, 0x0);\n    }\n\n    /**\n        @dev converts the token to any other token in the bancor network\n        by following a predefined conversion path and transfers the result\n        tokens to a target account.\n        this version of the function also allows the verified signer\n        to bypass the universal gas price limit.\n        note that the converter should already own the source tokens\n\n        @param _path        conversion path, see conversion path format above\n        @param _amount      amount to convert from (in the initial source token)\n        @param _minReturn   if the conversion results in an amount smaller than the minimum return - it is cancelled, must be nonzero\n        @param _for         account that will receive the conversion result\n        @param _customVal   custom value that was signed for prioritized conversion\n        @param _block       if the current block exceeded the given parameter - it is cancelled\n        @param _v           (signature[128:130]) associated with the signer address and helps to validate if the signature is legit\n        @param _r           (signature[0:64]) associated with the signer address and helps to validate if the signature is legit\n        @param _s           (signature[64:128]) associated with the signer address and helps to validate if the signature is legit\n\n        @return tokens issued in return\n    */\n    function convertForPrioritized3(\n        IERC20Token[] _path,\n        uint256 _amount,\n        uint256 _minReturn,\n        address _for,\n        uint256 _customVal,\n        uint256 _block,\n        uint8 _v,\n        bytes32 _r,\n        bytes32 _s\n    )\n        public\n        payable\n        returns (uint256)\n    {\n        // if ETH is provided, ensure that the amount is identical to _amount and verify that the source token is an ether token\n        IERC20Token fromToken = _path[0];\n        require(msg.value == 0 || (_amount == msg.value && etherTokens[fromToken]), '5bb17a');\n\n        // if ETH was sent with the call, the source is an ether token - deposit the ETH in it\n        // otherwise, we assume we already have the tokens\n        if (msg.value > 0)\n            IEtherToken(fromToken).deposit.value(msg.value)();\n\n        return convertForInternal(_path, _amount, _minReturn, _for, _customVal, _block, _v, _r, _s);\n    }\n\n    /**\n        @dev converts any other token to BNT in the bancor network\n        by following a predefined conversion path and transfers the resulting\n        tokens to BancorX.\n        note that the network should already have been given allowance of the source token (if not ETH)\n\n        @param _path             conversion path, see conversion path format above\n        @param _amount           amount to convert from (in the initial source token)\n        @param _minReturn        if the conversion results in an amount smaller than the minimum return - it is cancelled, must be nonzero\n        @param _toBlockchain     blockchain BNT will be issued on\n        @param _to               address/account on _toBlockchain to send the BNT to\n        @param _conversionId     pre-determined unique (if non zero) id which refers to this transaction \n\n        @return the amount of BNT received from this conversion\n    */\n    function xConvert(\n        IERC20Token[] _path,\n        uint256 _amount,\n        uint256 _minReturn,\n        bytes32 _toBlockchain,\n        bytes32 _to,\n        uint256 _conversionId\n    )\n        public\n        payable\n        returns (uint256)\n    {\n        return xConvertPrioritized(_path, _amount, _minReturn, _toBlockchain, _to, _conversionId, 0x0, 0x0, 0x0, 0x0);\n    }\n\n    /**\n        @dev converts any other token to BNT in the bancor network\n        by following a predefined conversion path and transfers the resulting\n        tokens to BancorX.\n        this version of the function also allows the verified signer\n        to bypass the universal gas price limit.\n        note that the network should already have been given allowance of the source token (if not ETH)\n\n        @param _path            conversion path, see conversion path format above\n        @param _amount          amount to convert from (in the initial source token)\n        @param _minReturn       if the conversion results in an amount smaller than the minimum return - it is cancelled, must be nonzero\n        @param _toBlockchain    blockchain BNT will be issued on\n        @param _to              address/account on _toBlockchain to send the BNT to\n        @param _conversionId    pre-determined unique (if non zero) id which refers to this transaction \n        @param _block           if the current block exceeded the given parameter - it is cancelled\n        @param _v               (signature[128:130]) associated with the signer address and helps to validate if the signature is legit\n        @param _r               (signature[0:64]) associated with the signer address and helps to validate if the signature is legit\n        @param _s               (signature[64:128]) associated with the signer address and helps to validate if the signature is legit\n\n        @return the amount of BNT received from this conversion\n    */\n    function xConvertPrioritized(\n        IERC20Token[] _path,\n        uint256 _amount,\n        uint256 _minReturn,\n        bytes32 _toBlockchain,\n        bytes32 _to,\n        uint256 _conversionId,\n        uint256 _block,\n        uint8 _v,\n        bytes32 _r,\n        bytes32 _s\n    )\n        public\n        payable\n        returns (uint256)\n    {\n        // do a lot of validation and transfers in separate function to work around 16 variable limit\n        validateXConversion(_path, _amount, _block, _v, _r, _s);\n\n        // convert to BNT and get the resulting amount\n        (, uint256 retAmount) = convertByPath(_path, _amount, _minReturn, _path[0], this);\n\n        // transfer the resulting amount to BancorX, and return the amount\n        IBancorX(registry.addressOf(ContractIds.BANCOR_X)).xTransfer(_toBlockchain, _to, retAmount, _conversionId);\n\n        return retAmount;\n    }\n\n    /**\n        @dev converts token to any other token in the bancor network\n        by following a predefined conversion paths and transfers the result\n        tokens to a target account.\n\n        @param _path        conversion path, see conversion path format above\n        @param _amount      amount to convert from (in the initial source token)\n        @param _minReturn   if the conversion results in an amount smaller than the minimum return - it is cancelled, must be nonzero\n        @param _for         account that will receive the conversion result\n        @param _block       if the current block exceeded the given parameter - it is cancelled\n        @param _v           (signature[128:130]) associated with the signer address and helps to validate if the signature is legit\n        @param _r           (signature[0:64]) associated with the signer address and helps to validate if the signature is legit\n        @param _s           (signature[64:128]) associated with the signer address and helps to validate if the signature is legit\n\n        @return tokens issued in return\n    */\n    function convertForInternal(\n        IERC20Token[] _path, \n        uint256 _amount, \n        uint256 _minReturn, \n        address _for, \n        uint256 _customVal,\n        uint256 _block,\n        uint8 _v, \n        bytes32 _r, \n        bytes32 _s\n    )\n        private\n        validConversionPath(_path)\n        returns (uint256)\n    {\n        if (_v == 0x0 && _r == 0x0 && _s == 0x0) {\n            IBancorGasPriceLimit gasPriceLimit = IBancorGasPriceLimit(registry.addressOf(ContractIds.BANCOR_GAS_PRICE_LIMIT));\n            gasPriceLimit.validateGasPrice(tx.gasprice);\n        }\n        else {\n            require(verifyTrustedSender(_path, _customVal, _block, _for, _v, _r, _s), 'a513ea');\n        }\n\n        // if ETH is provided, ensure that the amount is identical to _amount and verify that the source token is an ether token\n        IERC20Token fromToken = _path[0];\n\n        IERC20Token toToken;\n        \n        (toToken, _amount) = convertByPath(_path, _amount, _minReturn, fromToken, _for);\n\n        // finished the conversion, transfer the funds to the target account\n        // if the target token is an ether token, withdraw the tokens and send them as ETH\n        // otherwise, transfer the tokens as is\n        if (etherTokens[toToken])\n            IEtherToken(toToken).withdrawTo(_for, _amount);\n        else\n            ensureTransfer(toToken, _for, _amount);\n\n        return _amount;\n    }\n\n    /**\n        @dev executes the actual conversion by following the conversion path\n\n        @param _path        conversion path, see conversion path format above\n        @param _amount      amount to convert from (in the initial source token)\n        @param _minReturn   if the conversion results in an amount smaller than the minimum return - it is cancelled, must be nonzero\n        @param _fromToken   ERC20 token to convert from (the first element in the path)\n        @param _for         account that will receive the conversion result\n\n        @return ERC20 token to convert to (the last element in the path) & tokens issued in return\n    */\n    function convertByPath(\n        IERC20Token[] _path,\n        uint256 _amount,\n        uint256 _minReturn,\n        IERC20Token _fromToken,\n        address _for\n    ) private returns (IERC20Token, uint256) {\n        ISmartToken smartToken;\n        IERC20Token toToken;\n        IBancorConverter converter;\n\n        // get the contract features address from the registry\n        IContractFeatures features = IContractFeatures(registry.addressOf(ContractIds.CONTRACT_FEATURES));\n\n        // iterate over the conversion path\n        uint256 pathLength = _path.length;\n        for (uint256 i = 1; i < pathLength; i += 2) {\n            smartToken = ISmartToken(_path[i]);\n            toToken = _path[i + 1];\n            converter = IBancorConverter(smartToken.owner());\n            checkWhitelist(converter, _for, features);\n\n            // if the smart token isn't the source (from token), the converter doesn't have control over it and thus we need to approve the request\n            if (smartToken != _fromToken)\n                ensureAllowance(_fromToken, converter, _amount);\n\n            // make the conversion - if it's the last one, also provide the minimum return value\n            _amount = converter.change(_fromToken, toToken, _amount, i == pathLength - 2 ? _minReturn : 1);\n            _fromToken = toToken;\n        }\n        return (toToken, _amount);\n    }\n\n    bytes4 private constant GET_RETURN_FUNC_SELECTOR = bytes4(uint256(keccak256(\"getReturn(address,address,uint256)\") >> (256 - 4 * 8)));\n\n    function getReturn(address _dest, address _fromToken, address _toToken, uint256 _amount) internal view returns (uint256, uint256) {\n        uint256[2] memory ret;\n        bytes memory data = abi.encodeWithSelector(GET_RETURN_FUNC_SELECTOR, _fromToken, _toToken, _amount);\n\n        assembly {\n            let success := staticcall(\n                gas,           // gas remaining\n                _dest,         // destination address\n                add(data, 32), // input buffer (starts after the first 32 bytes in the `data` array)\n                mload(data),   // input length (loaded from the first 32 bytes in the `data` array)\n                ret,           // output buffer\n                64             // output length\n            )\n            if iszero(success) {\n                revert(0, 0)\n            }\n        }\n\n        return (ret[0], ret[1]);\n    }\n\n    /**\n        @dev returns the expected return amount for converting a specific amount by following\n        a given conversion path.\n        notice that there is no support for circular paths.\n\n        @param _path        conversion path, see conversion path format above\n        @param _amount      amount to convert from (in the initial source token)\n\n        @return expected conversion return amount and conversion fee\n    */\n    function getReturnByPath(IERC20Token[] _path, uint256 _amount) public view returns (uint256, uint256) {\n        IERC20Token fromToken;\n        ISmartToken smartToken; \n        IERC20Token toToken;\n        IBancorConverter converter;\n        uint256 amount;\n        uint256 fee;\n        uint256 supply;\n        uint256 balance;\n        uint32 weight;\n        ISmartToken prevSmartToken;\n        IBancorFormula formula = IBancorFormula(registry.getAddress(ContractIds.BANCOR_FORMULA));\n\n        amount = _amount;\n        fromToken = _path[0];\n\n        // iterate over the conversion path\n        for (uint256 i = 1; i < _path.length; i += 2) {\n            smartToken = ISmartToken(_path[i]);\n            toToken = _path[i + 1];\n            converter = IBancorConverter(smartToken.owner());\n\n            if (toToken == smartToken) { // buy the smart token\n                // check if the current smart token supply was changed in the previous iteration\n                supply = smartToken == prevSmartToken ? supply : smartToken.totalSupply();\n\n                // validate input\n                require(getConnectorSaleEnabled(converter, fromToken), '39955b');\n\n                // calculate the amount & the conversion fee\n                balance = converter.getConnectorBalance(fromToken);\n                weight = getConnectorWeight(converter, fromToken);\n                amount = formula.calculatePurchaseReturn(supply, balance, weight, amount);\n                fee = amount.mul(converter.conversionFee()).div(MAX_CONVERSION_FEE);\n                amount -= fee;\n\n                // update the smart token supply for the next iteration\n                supply = smartToken.totalSupply() + amount;\n            }\n            else if (fromToken == smartToken) { // sell the smart token\n                // check if the current smart token supply was changed in the previous iteration\n                supply = smartToken == prevSmartToken ? supply : smartToken.totalSupply();\n\n                // calculate the amount & the conversion fee\n                balance = converter.getConnectorBalance(toToken);\n                weight = getConnectorWeight(converter, toToken);\n                amount = formula.calculateSaleReturn(supply, balance, weight, amount);\n                fee = amount.mul(converter.conversionFee()).div(MAX_CONVERSION_FEE);\n                amount -= fee;\n\n                // update the smart token supply for the next iteration\n                supply = smartToken.totalSupply() - amount;\n            }\n            else { // cross connector conversion\n                (amount, fee) = getReturn(converter, fromToken, toToken, amount);\n            }\n\n            prevSmartToken = smartToken;\n            fromToken = toToken;\n        }\n\n        return (amount, fee);\n    }\n\n    /**\n        @dev checks whether the given converter supports a whitelist and if so, ensures that\n        the account that should receive the conversion result is actually whitelisted\n\n        @param _converter   converter to check for whitelist\n        @param _for         account that will receive the conversion result\n        @param _features    contract features contract address\n    */\n    function checkWhitelist(IBancorConverter _converter, address _for, IContractFeatures _features) private view {\n        IWhitelist whitelist;\n\n        // check if the converter supports the conversion whitelist feature\n        if (!_features.isSupported(_converter, FeatureIds.CONVERTER_CONVERSION_WHITELIST))\n            return;\n\n        // get the whitelist contract from the converter\n        whitelist = _converter.conversionWhitelist();\n        if (whitelist == address(0))\n            return;\n\n        // check if the account that should receive the conversion result is actually whitelisted\n        require(whitelist.isWhitelisted(_for), 'e2504a');\n    }\n\n    /**\n        @dev claims the caller's tokens, converts them to any other token in the bancor network\n        by following a predefined conversion path and transfers the result tokens to a target account\n        note that allowance must be set beforehand\n\n        @param _path        conversion path, see conversion path format above\n        @param _amount      amount to convert from (in the initial source token)\n        @param _minReturn   if the conversion results in an amount smaller than the minimum return - it is cancelled, must be nonzero\n        @param _for         account that will receive the conversion result\n\n        @return tokens issued in return\n    */\n    function claimAndConvertFor(IERC20Token[] _path, uint256 _amount, uint256 _minReturn, address _for) public returns (uint256) {\n        // we need to transfer the tokens from the caller to the converter before we follow\n        // the conversion path, to allow it to execute the conversion on behalf of the caller\n        // note: we assume we already have allowance\n        IERC20Token fromToken = _path[0];\n        ensureTransferFrom(fromToken, msg.sender, this, _amount);\n        return convertFor(_path, _amount, _minReturn, _for);\n    }\n\n    /**\n        @dev converts the token to any other token in the bancor network by following\n        a predefined conversion path and transfers the result tokens back to the sender\n        note that the converter should already own the source tokens\n\n        @param _path        conversion path, see conversion path format above\n        @param _amount      amount to convert from (in the initial source token)\n        @param _minReturn   if the conversion results in an amount smaller than the minimum return - it is cancelled, must be nonzero\n\n        @return tokens issued in return\n    */\n    function convert(IERC20Token[] _path, uint256 _amount, uint256 _minReturn) public payable returns (uint256) {\n        return convertFor(_path, _amount, _minReturn, msg.sender);\n    }\n\n    /**\n        @dev claims the caller's tokens, converts them to any other token in the bancor network\n        by following a predefined conversion path and transfers the result tokens back to the sender\n        note that allowance must be set beforehand\n\n        @param _path        conversion path, see conversion path format above\n        @param _amount      amount to convert from (in the initial source token)\n        @param _minReturn   if the conversion results in an amount smaller than the minimum return - it is cancelled, must be nonzero\n\n        @return tokens issued in return\n    */\n    function claimAndConvert(IERC20Token[] _path, uint256 _amount, uint256 _minReturn) public returns (uint256) {\n        return claimAndConvertFor(_path, _amount, _minReturn, msg.sender);\n    }\n\n    /**\n        @dev ensures transfer of tokens, taking into account that some ERC-20 implementations don't return\n        true on success but revert on failure instead\n\n        @param _token     the token to transfer\n        @param _to        the address to transfer the tokens to\n        @param _amount    the amount to transfer\n    */\n    function ensureTransfer(IERC20Token _token, address _to, uint256 _amount) private {\n        IAddressList addressList = IAddressList(registry.addressOf(ContractIds.NON_STANDARD_TOKEN_REGISTRY));\n\n        if (addressList.listedAddresses(_token)) {\n            uint256 prevBalance = _token.balanceOf(_to);\n            // we have to cast the token contract in an interface which has no return value\n            INonStandardERC20(_token).transfer(_to, _amount);\n            uint256 postBalance = _token.balanceOf(_to);\n            assert(postBalance > prevBalance);\n        } else {\n            // if the token isn't whitelisted, we assert on transfer\n            assert(_token.transfer(_to, _amount));\n        }\n    }\n\n    /**\n        @dev ensures transfer of tokens, taking into account that some ERC-20 implementations don't return\n        true on success but revert on failure instead\n\n        @param _token     the token to transfer\n        @param _from      the address to transfer the tokens from\n        @param _to        the address to transfer the tokens to\n        @param _amount    the amount to transfer\n    */\n    function ensureTransferFrom(IERC20Token _token, address _from, address _to, uint256 _amount) private {\n        IAddressList addressList = IAddressList(registry.addressOf(ContractIds.NON_STANDARD_TOKEN_REGISTRY));\n\n        if (addressList.listedAddresses(_token)) {\n            uint256 prevBalance = _token.balanceOf(_to);\n            // we have to cast the token contract in an interface which has no return value\n            INonStandardERC20(_token).transferFrom(_from, _to, _amount);\n            uint256 postBalance = _token.balanceOf(_to);\n            assert(postBalance > prevBalance);\n        } else {\n            // if the token isn't whitelisted, we assert on transfer\n            assert(_token.transferFrom(_from, _to, _amount));\n        }\n    }\n\n    /**\n        @dev utility, checks whether allowance for the given spender exists and approves one if it doesn't.\n        Note that we use the non standard erc-20 interface in which `approve` has no return value so that\n        this function will work for both standard and non standard tokens\n\n        @param _token   token to check the allowance in\n        @param _spender approved address\n        @param _value   allowance amount\n    */\n    function ensureAllowance(IERC20Token _token, address _spender, uint256 _value) private {\n        // check if allowance for the given amount already exists\n        if (_token.allowance(this, _spender) >= _value)\n            return;\n\n        // if the allowance is nonzero, must reset it to 0 first\n        if (_token.allowance(this, _spender) != 0)\n            INonStandardERC20(_token).approve(_spender, 0);\n\n        // approve the new allowance\n        INonStandardERC20(_token).approve(_spender, _value);\n    }\n\n    /**\n        @dev returns the connector weight\n\n        @param _converter       converter contract address\n        @param _connector       connector's address to read from\n\n        @return connector's weight\n    */\n    function getConnectorWeight(IBancorConverter _converter, IERC20Token _connector) \n        private\n        view\n        returns(uint32)\n    {\n        uint256 virtualBalance;\n        uint32 weight;\n        bool isVirtualBalanceEnabled;\n        bool isSaleEnabled;\n        bool isSet;\n        (virtualBalance, weight, isVirtualBalanceEnabled, isSaleEnabled, isSet) = _converter.connectors(_connector);\n        return weight;\n    }\n\n    /**\n        @dev returns true if connector sale is enabled\n\n        @param _converter       converter contract address\n        @param _connector       connector's address to read from\n\n        @return true if connector sale is enabled, otherwise - false\n    */\n    function getConnectorSaleEnabled(IBancorConverter _converter, IERC20Token _connector) \n        private\n        view\n        returns(bool)\n    {\n        uint256 virtualBalance;\n        uint32 weight;\n        bool isVirtualBalanceEnabled;\n        bool isSaleEnabled;\n        bool isSet;\n        (virtualBalance, weight, isVirtualBalanceEnabled, isSaleEnabled, isSet) = _converter.connectors(_connector);\n        return isSaleEnabled;\n    }\n\n    /**\n        @dev deprecated, backward compatibility\n    */\n    function convertForPrioritized2(\n        IERC20Token[] _path,\n        uint256 _amount,\n        uint256 _minReturn,\n        address _for,\n        uint256 _block,\n        uint8 _v,\n        bytes32 _r,\n        bytes32 _s\n    )\n        public\n        payable\n        returns (uint256)\n    {\n        return convertForPrioritized3(_path, _amount, _minReturn, _for, _amount, _block, _v, _r, _s);\n    }\n\n    /**\n        @dev deprecated, backward compatibility\n    */\n    function convertForPrioritized(\n        IERC20Token[] _path,\n        uint256 _amount,\n        uint256 _minReturn,\n        address _for,\n        uint256 _block,\n        uint256 _nonce,\n        uint8 _v,\n        bytes32 _r,\n        bytes32 _s)\n        public payable returns (uint256)\n    {\n        _nonce;\n        return convertForPrioritized3(_path, _amount, _minReturn, _for, _amount, _block, _v, _r, _s);\n    }\n}\n",
  "sourcePath": "/home/lash/src/ext/sempo/contracts/solidity/contracts/BancorNetwork.sol",
  "compiler": {
    "name": "solc",
    "version": "0.4.26+commit.4563c3fc.Emscripten.clang"
  },
  "schemaVersion": "3.0.11",
  "updatedAt": "2020-02-25T22:15:59.589Z",
  "devdoc": {
    "methods": {
      "acceptOwnership()": {
        "details": "used by a new owner to accept an ownership transfer"
      },
      "claimAndConvert(address[],uint256,uint256)": {
        "details": "claims the caller's tokens, converts them to any other token in the bancor network by following a predefined conversion path and transfers the result tokens back to the sender note that allowance must be set beforehand",
        "params": {
          "_amount": "amount to convert from (in the initial source token)",
          "_minReturn": "if the conversion results in an amount smaller than the minimum return - it is cancelled, must be nonzero",
          "_path": "conversion path, see conversion path format above"
        },
        "return": "tokens issued in return"
      },
      "claimAndConvertFor(address[],uint256,uint256,address)": {
        "details": "claims the caller's tokens, converts them to any other token in the bancor network by following a predefined conversion path and transfers the result tokens to a target account note that allowance must be set beforehand",
        "params": {
          "_amount": "amount to convert from (in the initial source token)",
          "_for": "account that will receive the conversion result",
          "_minReturn": "if the conversion results in an amount smaller than the minimum return - it is cancelled, must be nonzero",
          "_path": "conversion path, see conversion path format above"
        },
        "return": "tokens issued in return"
      },
      "convert(address[],uint256,uint256)": {
        "details": "converts the token to any other token in the bancor network by following a predefined conversion path and transfers the result tokens back to the sender note that the converter should already own the source tokens",
        "params": {
          "_amount": "amount to convert from (in the initial source token)",
          "_minReturn": "if the conversion results in an amount smaller than the minimum return - it is cancelled, must be nonzero",
          "_path": "conversion path, see conversion path format above"
        },
        "return": "tokens issued in return"
      },
      "convertFor(address[],uint256,uint256,address)": {
        "details": "converts the token to any other token in the bancor network by following a predefined conversion path and transfers the result tokens to a target account note that the converter should already own the source tokens",
        "params": {
          "_amount": "amount to convert from (in the initial source token)",
          "_for": "account that will receive the conversion result",
          "_minReturn": "if the conversion results in an amount smaller than the minimum return - it is cancelled, must be nonzero",
          "_path": "conversion path, see conversion path format above"
        },
        "return": "tokens issued in return"
      },
      "convertForPrioritized(address[],uint256,uint256,address,uint256,uint256,uint8,bytes32,bytes32)": {
        "details": "deprecated, backward compatibility"
      },
      "convertForPrioritized2(address[],uint256,uint256,address,uint256,uint8,bytes32,bytes32)": {
        "details": "deprecated, backward compatibility"
      },
      "convertForPrioritized3(address[],uint256,uint256,address,uint256,uint256,uint8,bytes32,bytes32)": {
        "details": "converts the token to any other token in the bancor network by following a predefined conversion path and transfers the result tokens to a target account. this version of the function also allows the verified signer to bypass the universal gas price limit. note that the converter should already own the source tokens",
        "params": {
          "_amount": "amount to convert from (in the initial source token)",
          "_block": "if the current block exceeded the given parameter - it is cancelled",
          "_customVal": "custom value that was signed for prioritized conversion",
          "_for": "account that will receive the conversion result",
          "_minReturn": "if the conversion results in an amount smaller than the minimum return - it is cancelled, must be nonzero",
          "_path": "conversion path, see conversion path format above",
          "_r": "(signature[0:64]) associated with the signer address and helps to validate if the signature is legit",
          "_s": "(signature[64:128]) associated with the signer address and helps to validate if the signature is legit",
          "_v": "(signature[128:130]) associated with the signer address and helps to validate if the signature is legit"
        },
        "return": "tokens issued in return"
      },
      "getReturnByPath(address[],uint256)": {
        "details": "returns the expected return amount for converting a specific amount by following a given conversion path. notice that there is no support for circular paths.",
        "params": {
          "_amount": "amount to convert from (in the initial source token)",
          "_path": "conversion path, see conversion path format above"
        },
        "return": "expected conversion return amount and conversion fee"
      },
      "registerEtherToken(address,bool)": {
        "details": "allows the owner to register/unregister ether tokens",
        "params": {
          "_register": "true to register, false to unregister",
          "_token": "ether token contract address"
        }
      },
      "setRegistry(address)": {
        "details": "allows the owner to update the contract registry contract address",
        "params": {
          "_registry": "address of a contract registry contract"
        }
      },
      "setSignerAddress(address)": {
        "details": "allows the owner to update the signer address",
        "params": {
          "_signerAddress": "new signer address"
        }
      },
      "transferOwnership(address)": {
        "details": "allows transferring the contract ownership the new owner still needs to accept the transfer can only be called by the contract owner",
        "params": {
          "_newOwner": "new contract owner"
        }
      },
      "withdrawTokens(address,address,uint256)": {
        "details": "withdraws tokens held by the contract and sends them to an account can only be called by the owner",
        "params": {
          "_amount": "amount to withdraw",
          "_to": "account to receive the new amount",
          "_token": "ERC20 token contract address"
        }
      },
      "xConvert(address[],uint256,uint256,bytes32,bytes32,uint256)": {
        "details": "converts any other token to BNT in the bancor network by following a predefined conversion path and transfers the resulting tokens to BancorX. note that the network should already have been given allowance of the source token (if not ETH)",
        "params": {
          "_amount": "amount to convert from (in the initial source token)",
          "_conversionId": "pre-determined unique (if non zero) id which refers to this transaction ",
          "_minReturn": "if the conversion results in an amount smaller than the minimum return - it is cancelled, must be nonzero",
          "_path": "conversion path, see conversion path format above",
          "_to": "address/account on _toBlockchain to send the BNT to",
          "_toBlockchain": "blockchain BNT will be issued on"
        },
        "return": "the amount of BNT received from this conversion"
      },
      "xConvertPrioritized(address[],uint256,uint256,bytes32,bytes32,uint256,uint256,uint8,bytes32,bytes32)": {
        "details": "converts any other token to BNT in the bancor network by following a predefined conversion path and transfers the resulting tokens to BancorX. this version of the function also allows the verified signer to bypass the universal gas price limit. note that the network should already have been given allowance of the source token (if not ETH)",
        "params": {
          "_amount": "amount to convert from (in the initial source token)",
          "_block": "if the current block exceeded the given parameter - it is cancelled",
          "_conversionId": "pre-determined unique (if non zero) id which refers to this transaction ",
          "_minReturn": "if the conversion results in an amount smaller than the minimum return - it is cancelled, must be nonzero",
          "_path": "conversion path, see conversion path format above",
          "_r": "(signature[0:64]) associated with the signer address and helps to validate if the signature is legit",
          "_s": "(signature[64:128]) associated with the signer address and helps to validate if the signature is legit",
          "_to": "address/account on _toBlockchain to send the BNT to",
          "_toBlockchain": "blockchain BNT will be issued on",
          "_v": "(signature[128:130]) associated with the signer address and helps to validate if the signature is legit"
        },
        "return": "the amount of BNT received from this conversion"
      }
    }
  },
  "userdoc": {
    "methods": {}
  }
}