{
  "contractName": "BancorGasPriceLimit",
  "abi": [
    {
      "constant": false,
      "inputs": [],
      "name": "acceptOwnership",
      "outputs": [],
      "payable": false,
      "stateMutability": "nonpayable",
      "type": "function"
    },
    {
      "constant": true,
      "inputs": [],
      "name": "owner",
      "outputs": [
        {
          "name": "",
          "type": "address"
        }
      ],
      "payable": false,
      "stateMutability": "view",
      "type": "function"
    },
    {
      "constant": true,
      "inputs": [],
      "name": "newOwner",
      "outputs": [
        {
          "name": "",
          "type": "address"
        }
      ],
      "payable": false,
      "stateMutability": "view",
      "type": "function"
    },
    {
      "constant": false,
      "inputs": [
        {
          "name": "_newOwner",
          "type": "address"
        }
      ],
      "name": "transferOwnership",
      "outputs": [],
      "payable": false,
      "stateMutability": "nonpayable",
      "type": "function"
    },
    {
      "constant": true,
      "inputs": [],
      "name": "gasPrice",
      "outputs": [
        {
          "name": "",
          "type": "uint256"
        }
      ],
      "payable": false,
      "stateMutability": "view",
      "type": "function"
    },
    {
      "inputs": [
        {
          "name": "_gasPrice",
          "type": "uint256"
        }
      ],
      "payable": false,
      "stateMutability": "nonpayable",
      "type": "constructor"
    },
    {
      "anonymous": false,
      "inputs": [
        {
          "indexed": true,
          "name": "_prevOwner",
          "type": "address"
        },
        {
          "indexed": true,
          "name": "_newOwner",
          "type": "address"
        }
      ],
      "name": "OwnerUpdate",
      "type": "event"
    },
    {
      "constant": false,
      "inputs": [
        {
          "name": "_gasPrice",
          "type": "uint256"
        }
      ],
      "name": "setGasPrice",
      "outputs": [],
      "payable": false,
      "stateMutability": "nonpayable",
      "type": "function"
    },
    {
      "constant": true,
      "inputs": [
        {
          "name": "_gasPrice",
          "type": "uint256"
        }
      ],
      "name": "validateGasPrice",
      "outputs": [],
      "payable": false,
      "stateMutability": "view",
      "type": "function"
    }
  ],
  "bytecode": "0x6080604052600060025534801561001557600080fd5b506040516020806105a7833981016040525160008054600160a060020a03191633178155819081116100a857604080517f08c379a000000000000000000000000000000000000000000000000000000000815260206004820152600660248201527f6231646534610000000000000000000000000000000000000000000000000000604482015290519081900360640190fd5b506002556104ec806100bb6000396000f3006080604052600436106100825763ffffffff7c01000000000000000000000000000000000000000000000000000000006000350416636b4dff1f811461008757806379ba5097146100a15780638da5cb5b146100b6578063bf1fe420146100e7578063d4ee1d90146100ff578063f2fde38b14610114578063fe173b9714610135575b600080fd5b34801561009357600080fd5b5061009f60043561015c565b005b3480156100ad57600080fd5b5061009f610211565b3480156100c257600080fd5b506100cb6102e4565b60408051600160a060020a039092168252519081900360200190f35b3480156100f357600080fd5b5061009f6004356102f3565b34801561010b57600080fd5b506100cb6103b4565b34801561012057600080fd5b5061009f600160a060020a03600435166103c3565b34801561014157600080fd5b5061014a6104ba565b60408051918252519081900360200190f35b600081116101b4576040805160e560020a62461bcd02815260206004820152600660248201527f7765667765660000000000000000000000000000000000000000000000000000604482015290519081900360640190fd5b60025481111561020e576040805160e560020a62461bcd02815260206004820152600660248201527f3761633264320000000000000000000000000000000000000000000000000000604482015290519081900360640190fd5b50565b600154600160a060020a03163314610273576040805160e560020a62461bcd02815260206004820152600660248201527f6639373561650000000000000000000000000000000000000000000000000000604482015290519081900360640190fd5b60015460008054604051600160a060020a0393841693909116917f343765429aea5a34b3ff6a3785a98a5abb2597aca87bfbb58632c173d585373a91a3600180546000805473ffffffffffffffffffffffffffffffffffffffff19908116600160a060020a03841617909155169055565b600054600160a060020a031681565b600054600160a060020a03163314610355576040805160e560020a62461bcd02815260206004820152600660248201527f6537313239330000000000000000000000000000000000000000000000000000604482015290519081900360640190fd5b80600081116103ae576040805160e560020a62461bcd02815260206004820152600660248201527f6231646534610000000000000000000000000000000000000000000000000000604482015290519081900360640190fd5b50600255565b600154600160a060020a031681565b600054600160a060020a03163314610425576040805160e560020a62461bcd02815260206004820152600660248201527f6537313239330000000000000000000000000000000000000000000000000000604482015290519081900360640190fd5b600054600160a060020a038281169116141561048b576040805160e560020a62461bcd02815260206004820152600660248201527f6632306333390000000000000000000000000000000000000000000000000000604482015290519081900360640190fd5b6001805473ffffffffffffffffffffffffffffffffffffffff1916600160a060020a0392909216919091179055565b600254815600a165627a7a723058201c6aed0d8d44ee2c15f448eb7db6e7bc42fb1c8bb5541dc93c92dd108d0064d50029",
  "source": "pragma solidity ^0.4.24;\nimport './interfaces/IBancorGasPriceLimit.sol';\nimport '../utility/Owned.sol';\nimport '../utility/Utils.sol';\n\n/**\n    @dev The BancorGasPriceLimit contract serves as an extra front-running attack mitigation mechanism.\n    It sets a maximum gas price on all bancor conversions, which prevents users from \"cutting in line\"\n    in order to front-run other transactions.\n    The gas price limit is universal to all converters and it can be updated by the owner to be in line\n    with the network's current gas price.\n*/\ncontract BancorGasPriceLimit is IBancorGasPriceLimit, Owned, Utils {\n    uint256 public gasPrice = 0 wei;    // maximum gas price for bancor transactions\n    \n    /**\n        @dev initializes a new BancorGasPriceLimit instance\n\n        @param _gasPrice    gas price limit\n    */\n    constructor(uint256 _gasPrice)\n        public\n        greaterThanZero(_gasPrice)\n    {\n        gasPrice = _gasPrice;\n    }\n\n    /**\n        @dev allows the owner to update the gas price limit\n\n        @param _gasPrice    new gas price limit\n    */\n    function setGasPrice(uint256 _gasPrice)\n        public\n        ownerOnly\n        greaterThanZero(_gasPrice)\n    {\n        gasPrice = _gasPrice;\n    }\n\n    /**\n        @dev validate that the given gas price is equal to the current network gas price\n\n        @param _gasPrice    tested gas price\n    */\n    function validateGasPrice(uint256 _gasPrice)\n        public\n        view\n    {\n        require(_gasPrice > 0, 'wefwef');\n        require(_gasPrice <= gasPrice, '7ac2d2');\n    }\n}\n",
  "sourcePath": "/home/lash/src/ext/sempo/contracts/solidity/contracts/converter/BancorGasPriceLimit.sol",
  "compiler": {
    "name": "solc",
    "version": "0.4.26+commit.4563c3fc.Emscripten.clang"
  },
  "schemaVersion": "3.0.11",
  "updatedAt": "2020-02-26T16:15:09.996Z",
  "devdoc": {
    "methods": {
      "acceptOwnership()": {
        "details": "used by a new owner to accept an ownership transfer"
      },
      "setGasPrice(uint256)": {
        "details": "allows the owner to update the gas price limit",
        "params": {
          "_gasPrice": "new gas price limit"
        }
      },
      "transferOwnership(address)": {
        "details": "allows transferring the contract ownership the new owner still needs to accept the transfer can only be called by the contract owner",
        "params": {
          "_newOwner": "new contract owner"
        }
      },
      "validateGasPrice(uint256)": {
        "details": "validate that the given gas price is equal to the current network gas price",
        "params": {
          "_gasPrice": "tested gas price"
        }
      }
    }
  },
  "userdoc": {
    "methods": {}
  }
}