{
  "contractName": "BancorConverterFactory",
  "abi": [
    {
      "inputs": [],
      "payable": false,
      "stateMutability": "nonpayable",
      "type": "constructor"
    },
    {
      "anonymous": false,
      "inputs": [
        {
          "indexed": true,
          "name": "_converter",
          "type": "address"
        },
        {
          "indexed": true,
          "name": "_owner",
          "type": "address"
        }
      ],
      "name": "NewConverter",
      "type": "event"
    },
    {
      "constant": false,
      "inputs": [
        {
          "name": "_token",
          "type": "address"
        },
        {
          "name": "_registry",
          "type": "address"
        },
        {
          "name": "_maxConversionFee",
          "type": "uint32"
        },
        {
          "name": "_connectorToken",
          "type": "address"
        },
        {
          "name": "_connectorWeight",
          "type": "uint32"
        }
      ],
      "name": "createConverter",
      "outputs": [
        {
          "name": "converterAddress",
          "type": "address"
        }
      ],
      "payable": false,
      "stateMutability": "nonpayable",
      "type": "function"
    }
  ],
  "bytecode": "0x608060405234801561001057600080fd5b506165e2806100206000396000f3006080604052600436106100405763ffffffff7c0100000000000000000000000000000000000000000000000000000000600035041663034efaeb8114610045575b600080fd5b34801561005157600080fd5b5061008f73ffffffffffffffffffffffffffffffffffffffff60043581169060243581169063ffffffff6044358116916064351690608435166100b8565b6040805173ffffffffffffffffffffffffffffffffffffffff9092168252519081900360200190f35b600080600087878787876100ca61028c565b73ffffffffffffffffffffffffffffffffffffffff9586168152938516602085015263ffffffff9283166040808601919091529190941660608401529216608082015290519081900360a001906000f08015801561012c573d6000803e3d6000fd5b50604080517ff2fde38b000000000000000000000000000000000000000000000000000000008152336004820152905191935073ffffffffffffffffffffffffffffffffffffffff84169163f2fde38b9160248082019260009290919082900301818387803b15801561019e57600080fd5b505af11580156101b2573d6000803e3d6000fd5b5050604080517fe4edf852000000000000000000000000000000000000000000000000000000008152336004820152905173ffffffffffffffffffffffffffffffffffffffff8616935063e4edf8529250602480830192600092919082900301818387803b15801561022357600080fd5b505af1158015610237573d6000803e3d6000fd5b505060405184935033925073ffffffffffffffffffffffffffffffffffffffff841691507fb54eb8f70476910bea510b4ca1ece1fdb11eeb345b0d46221dd40ba86e64953390600090a3979650505050505050565b60405161631a8061029d8339019056006004805460a060020a61ffff021916740d000000000000000000000000000000000000000017905560c0604052600660808190527f62616e636f72000000000000000000000000000000000000000000000000000060a090815262000068916005919062000905565b506006805461ff001960ff19909116600117169055600b80546001606860020a0319166c01000000000000000000000000179055348015620000a957600080fd5b5060405160a0806200631a8339810160409081528151602083015191830151606084015160809094015160008054600160a060020a03191633178155929491928580600160a060020a03811615156200016357604080517f08c379a000000000000000000000000000000000000000000000000000000000815260206004820152600660248201527f3335373839660000000000000000000000000000000000000000000000000000604482015290519081900360640190fd5b5060028054600160a060020a03928316600160a060020a03199182161790915560038054909116331790558590811615156200020057604080517f08c379a000000000000000000000000000000000000000000000000000000000815260206004820152600660248201527f3335373839660000000000000000000000000000000000000000000000000000604482015290519081900360640190fd5b8460008163ffffffff1610158015620002225750620f424063ffffffff821611155b15156200029057604080517f08c379a000000000000000000000000000000000000000000000000000000000815260206004820152600660248201527f6261646236630000000000000000000000000000000000000000000000000000604482015290519081900360640190fd5b60078054600160a060020a031916600160a060020a0389811691821792839055600680546201000060b060020a0319166201000090930292909217909155604080517fbb34534c0000000000000000000000000000000000000000000000000000000081527f436f6e747261637446656174757265730000000000000000000000000000000060048201529051929091169163bb34534c916024808201926020929091908290030181600087803b1580156200034b57600080fd5b505af115801562000360573d6000803e3d6000fd5b505050506040513d60208110156200037757600080fd5b50519250600160a060020a038316156200040e57604080517f2c7077c000000000000000000000000000000000000000000000000000000000815260016004820181905260248201529051600160a060020a03851691632c7077c091604480830192600092919082900301818387803b158015620003f457600080fd5b505af115801562000409573d6000803e3d6000fd5b505050505b600b805467ffffffff00000000191664010000000063ffffffff891602179055600160a060020a038516156200045557620004558585600064010000000062000463810204565b5050505050505050620009aa565b600054600160a060020a03163314620004dd57604080517f08c379a000000000000000000000000000000000000000000000000000000000815260206004820152600660248201527f6537313239330000000000000000000000000000000000000000000000000000604482015290519081900360640190fd5b600254604080517f8da5cb5b00000000000000000000000000000000000000000000000000000000815290513092600160a060020a031691638da5cb5b9160048083019260209291908290030181600087803b1580156200053d57600080fd5b505af115801562000552573d6000803e3d6000fd5b505050506040513d60208110156200056957600080fd5b5051600160a060020a03161415620005e257604080517f08c379a000000000000000000000000000000000000000000000000000000000815260206004820152600660248201527f3830373730320000000000000000000000000000000000000000000000000000604482015290519081900360640190fd5b82600160a060020a03811615156200065b57604080517f08c379a000000000000000000000000000000000000000000000000000000000815260206004820152600660248201527f3335373839660000000000000000000000000000000000000000000000000000604482015290519081900360640190fd5b83600160a060020a038116301415620006d557604080517f08c379a000000000000000000000000000000000000000000000000000000000815260206004820152600660248201527f6665323738630000000000000000000000000000000000000000000000000000604482015290519081900360640190fd5b8360008163ffffffff16118015620006f65750620f424063ffffffff821611155b15156200076457604080517f08c379a000000000000000000000000000000000000000000000000000000000815260206004820152600660248201527f3738333138370000000000000000000000000000000000000000000000000000604482015290519081900360640190fd5b600254600160a060020a03878116911614801590620007a95750600160a060020a0386166000908152600a60205260409020600101546601000000000000900460ff16155b8015620007c85750600b54620f424063ffffffff918216870190911611155b15156200083657604080517f08c379a000000000000000000000000000000000000000000000000000000000815260206004820152600660248201527f6563393238330000000000000000000000000000000000000000000000000000604482015290519081900360640190fd5b505050600160a060020a039092166000818152600a602052604081208181556001908101805466ff0000000000001965ff0000000000199715156401000000000264ff000000001963ffffffff808a1663ffffffff19958616179190911691909117989098166501000000000017166601000000000000179091556009805492830181559092527f6e1540171b6c0c960b71a7020d9f60077f6af931a8bbf590da0223dacf75c7af018054600160a060020a031916909217909155600b80548085169093019093169116179055565b828054600181600116156101000203166002900490600052602060002090601f016020900481019282601f106200094857805160ff191683800117855562000978565b8280016001018555821562000978579182015b82811115620009785782518255916020019190600101906200095b565b50620009869291506200098a565b5090565b620009a791905b8082111562000986576000815560010162000991565b90565b61596080620009ba6000396000f3006080604052600436106102f25763ffffffff60e060020a6000350416630c87355e81146102f75780630ca789231461031e5780630e53aae91461035257806319b64015146103a75780631d000b61146103db5780631e1401f8146103f057806320d7d3671461043357806321e6b53d1461045c578063227425641461047d578063228d2820146104e557806325f9bfef146104ff5780632a2e2f0c1461051457806338a5e016146105415780633aa0145a146105565780633e8ff43f146105745780633f4d2fc2146105fe578063415f12401461062d57806341a5b33d14610645578063429060291461066f578063481c6a751461068457806349d10b64146106995780634af80f0e146106ae57806350057351146106cf57806354fd4d5014610744578063579cd3ca146107705780635a46f06c1461079e5780635e35359e146107b35780635e5144eb146107dd57806361cd756e1461080a57806362614ae61461081f5780636d7bd3fc1461083457806371f52bf31461084957806372b44b2c1461085e57806375892cf11461088257806379ba5097146108af5780637b103999146108c457806383315b6e146108d957806385d5e631146108ee5780638b34839f146109085780638da5cb5b1461091d5780638e3047e0146109325780639232494e1461095c5780639249993a1461097157806392d1abb71461098657806394c275ad1461099b5780639e568553146109b0578063a2c4c336146109d6578063ad374f5b146109fa578063b4a176d314610a14578063bf75455814610a29578063c45d3d9214610a3e578063c4a8598e14610a53578063c8c2fe6c14610a68578063ca1d209d14610a7d578063cc97b38f14610a95578063d4ee1d9014610aaa578063d55ec69714610abf578063d895951214610ad4578063e4edf85214610af5578063ecbca55d14610b16578063f0843ba914610b34578063f2fde38b14610b85578063f5286b9c14610ba6578063fa1c594e14610bbb578063fc0c546a14610bd5578063fe417fa514610bea575b600080fd5b34801561030357600080fd5b5061030c610c0e565b60408051918252519081900360200190f35b34801561032a57600080fd5b50610350600160a060020a036004351663ffffffff602435166044351515606435610c20565b005b34801561035e57600080fd5b50610373600160a060020a0360043516610e37565b6040805195865263ffffffff9094166020860152911515848401521515606084015215156080830152519081900360a00190f35b3480156103b357600080fd5b506103bf600435610e7d565b60408051600160a060020a039092168252519081900360200190f35b3480156103e757600080fd5b5061030c610ea5565b3480156103fc57600080fd5b5061041a600160a060020a0360043581169060243516604435610ec9565b6040805192835260208301919091528051918290030190f35b34801561043f57600080fd5b50610448610f91565b604080519115158252519081900360200190f35b34801561046857600080fd5b50610350600160a060020a0360043516610f9a565b6040805160206004803580820135838102808601850190965280855261030c95369593946024949385019291829185019084908082843750949750508435955050506020830135926040810135925060ff606082013516915060808101359060a001356110e6565b3480156104f157600080fd5b5061035060043515156113d6565b34801561050b57600080fd5b5061030c6114ce565b34801561052057600080fd5b5061030c600160a060020a03600435811690602435166044356064356114f2565b34801561054d57600080fd5b5061035061167a565b34801561056257600080fd5b5061030c60043560ff60243516611735565b34801561058057600080fd5b50610589611793565b6040805160208082528351818301528351919283929083019185019080838360005b838110156105c35781810151838201526020016105ab565b50505050905090810190601f1680156105f05780820380516001836020036101000a031916815260200191505b509250505060405180910390f35b34801561060a57600080fd5b50610350600160a060020a036004351663ffffffff602435166044351515611821565b34801561063957600080fd5b50610350600435611c19565b34801561065157600080fd5b50610350600160a060020a0360043581169060243516604435611e80565b34801561067b57600080fd5b506103bf611f58565b34801561069057600080fd5b506103bf611f67565b3480156106a557600080fd5b50610350611f76565b3480156106ba57600080fd5b50610350600160a060020a0360043516612153565b3480156106db57600080fd5b506040805160206004803580820135838102808601850190965280855261030c95369593946024949385019291829185019084908082843750949750508435955050506020830135926040810135925060ff606082013516915060808101359060a00135612226565b34801561075057600080fd5b50610759612727565b6040805161ffff9092168252519081900360200190f35b34801561077c57600080fd5b50610785612749565b6040805163ffffffff9092168252519081900360200190f35b3480156107aa57600080fd5b5061030c612761565b3480156107bf57600080fd5b50610350600160a060020a0360043581169060243516604435612785565b3480156107e957600080fd5b5061030c600160a060020a0360043581169060243516604435606435612951565b34801561081657600080fd5b506103bf612968565b34801561082b57600080fd5b5061030c61297d565b34801561084057600080fd5b5061030c6129a1565b34801561085557600080fd5b506107596129b3565b34801561086a57600080fd5b5061041a600160a060020a03600435166024356129ba565b34801561088e57600080fd5b5061030c600160a060020a0360043581169060243516604435606435612d20565b3480156108bb57600080fd5b50610350612dc1565b3480156108d057600080fd5b506103bf612e87565b3480156108e557600080fd5b5061030c612e96565b3480156108fa57600080fd5b506103506004351515612eba565b34801561091457600080fd5b50610448612f8a565b34801561092957600080fd5b506103bf612f98565b34801561093e57600080fd5b5061041a600160a060020a0360043581169060243516604435612fa7565b34801561096857600080fd5b5061030c61336a565b34801561097d57600080fd5b5061030c61338e565b34801561099257600080fd5b5061030c6133b2565b3480156109a757600080fd5b506107856133b7565b3480156109bc57600080fd5b50610350600160a060020a036004351660243515156133cb565b3480156109e257600080fd5b5061041a600160a060020a03600435166024356134c1565b348015610a0657600080fd5b50610350600435151561383f565b348015610a2057600080fd5b506103506138a7565b348015610a3557600080fd5b5061044861393a565b348015610a4a57600080fd5b506103bf613953565b348015610a5f57600080fd5b5061030c613962565b348015610a7457600080fd5b50610350613986565b348015610a8957600080fd5b50610350600435613a4e565b348015610aa157600080fd5b5061030c613d24565b348015610ab657600080fd5b506103bf613d48565b348015610acb57600080fd5b50610350613d57565b348015610ae057600080fd5b5061030c600160a060020a0360043516613ebc565b348015610b0157600080fd5b50610350600160a060020a0360043516613ff7565b348015610b2257600080fd5b5061035063ffffffff600435166140e6565b6040805160206004803580820135838102808601850190965280855261030c953695939460249493850192918291850190849080828437509497505084359550505060209092013591506142519050565b348015610b9157600080fd5b50610350600160a060020a0360043516614262565b348015610bb257600080fd5b5061030c614338565b348015610bc757600080fd5b50610350600435151561435c565b348015610be157600080fd5b506103bf6143d5565b348015610bf657600080fd5b50610350600160a060020a03600435166024356143e4565b6000805160206158f583398151915281565b60008054600160a060020a03163314610c6f576040805160e560020a62461bcd028152602060048201526006602482015260d060020a6565373132393302604482015290519081900360640190fd5b600160a060020a0385166000908152600a602052604090206001015485906601000000000000900460ff161515610cdc576040805160e560020a62461bcd028152602060048201526006602482015260d160020a65329a331a18b102604482015290519081900360640190fd5b8460008163ffffffff16118015610cfc5750620f424063ffffffff821611155b1515610d52576040805160e560020a62461bcd02815260206004820152600660248201527f3738333138370000000000000000000000000000000000000000000000000000604482015290519081900360640190fd5b600160a060020a0387166000908152600a602052604090206001810154600b54919450620f424063ffffffff918216928216929092038801161115610de1576040805160e560020a62461bcd02815260206004820152600660248201527f6134376630330000000000000000000000000000000000000000000000000000604482015290519081900360640190fd5b5050600181018054600b805463ffffffff928316818416038801831663ffffffff199182161790915582549515156401000000000264ff0000000019929097169516949094179390931693909317909155905550565b600a602052600090815260409020805460019091015463ffffffff81169060ff640100000000820481169165010000000000810482169166010000000000009091041685565b6009805482908110610e8b57fe5b600091825260209091200154600160a060020a0316905081565b7f424e54546f6b656e00000000000000000000000000000000000000000000000081565b600080600160a060020a038581169085161415610f30576040805160e560020a62461bcd02815260206004820152600660248201527f3564323930350000000000000000000000000000000000000000000000000000604482015290519081900360640190fd5b600254600160a060020a0385811691161415610f5957610f5085846134c1565b91509150610f89565b600254600160a060020a0386811691161415610f7957610f5084846129ba565b610f84858585612fa7565b915091505b935093915050565b60065460ff1681565b600054600160a060020a03163314610fe8576040805160e560020a62461bcd028152602060048201526006602482015260d060020a6565373132393302604482015290519081900360640190fd5b6007546040805160e260020a632ecd14d30281526000805160206158f583398151915260048201529051600092600160a060020a03169163bb34534c91602480830192602092919082900301818787803b15801561104557600080fd5b505af1158015611059573d6000803e3d6000fd5b505050506040513d602081101561106f57600080fd5b5051600054909150600160a060020a038083169116146110d9576040805160e560020a62461bcd02815260206004820152600660248201527f3433623730350000000000000000000000000000000000000000000000000000604482015290519081900360640190fd5b6110e28261460c565b5050565b60008060008960008151811015156110fa57fe5b60209081029091018101516007546040805160e260020a632ecd14d30281527f42616e636f724e6574776f726b0000000000000000000000000000000000000060048201529051929550600160a060020a039091169263bb34534c926024808401938290030181600087803b15801561117257600080fd5b505af1158015611186573d6000803e3d6000fd5b505050506040513d602081101561119c57600080fd5b505190503415156112ac57600254600160a060020a03838116911614156112a0576002546040805160e060020a63a24835d1028152336004820152602481018c90529051600160a060020a039092169163a24835d19160448082019260009290919082900301818387803b15801561121357600080fd5b505af1158015611227573d6000803e3d6000fd5b50506002546040805160e260020a63219e412d028152600160a060020a038681166004830152602482018f9052915191909216935063867904b49250604480830192600092919082900301818387803b15801561128357600080fd5b505af1158015611297573d6000803e3d6000fd5b505050506112ac565b6112ac8233838c6146c1565b80600160a060020a031663b406d386348c8c8c338f8e8e8e8e6040518b63ffffffff1660e060020a02815260040180806020018a815260200189815260200188600160a060020a0316600160a060020a031681526020018781526020018681526020018560ff1660ff1681526020018460001916600019168152602001836000191660001916815260200182810382528b818151815260200191508051906020019060200280838360005b8381101561136f578181015183820152602001611357565b505050509050019a50505050505050505050506020604051808303818588803b15801561139b57600080fd5b505af11580156113af573d6000803e3d6000fd5b50505050506040513d60208110156113c657600080fd5b50519a9950505050505050505050565b600054600160a060020a03163314806113f95750600354600160a060020a031633145b151561143d576040805160e560020a62461bcd02815260206004820152600660248201526000805160206158d5833981519152604482015290519081900360640190fd5b600b5460ff6c0100000000000000000000000090910416151581151514156114cb57600b80546c01000000000000000000000000831581026cff000000000000000000000000199092169190911791829055604080519190920460ff161515815290517fb8e670608a57255ce4f35952b324cba70211a4200a91ce81d26e06d488c1f66b9181900360200190a15b50565b7f436f6e747261637452656769737472790000000000000000000000000000000081565b60008080808080600160a060020a038a8116908a16141561155d576040805160e560020a62461bcd02815260206004820152600660248201527f3338336636320000000000000000000000000000000000000000000000000000604482015290519081900360640190fd5b600254600160a060020a038a8116911614156115855761157e8a8989614a50565b955061166d565b600254600160a060020a038b8116911614156115a65761157e898989614c75565b6115b18a8a8a612fa7565b909550935084158015906115c55750868510155b151561161b576040805160e560020a62461bcd02815260206004820152600660248201527f3039643738650000000000000000000000000000000000000000000000000000604482015290519081900360640190fd5b6040805160e560020a62461bcd028152602060048083019190915260248201527f6265656500000000000000000000000000000000000000000000000000000000604482015290519081900360640190fd5b5050505050949350505050565b600054600160a060020a031633146116c8576040805160e560020a62461bcd028152602060048201526006602482015260d060020a6565373132393302604482015290519081900360640190fd5b600260009054906101000a9004600160a060020a0316600160a060020a03166379ba50976040518163ffffffff1660e060020a028152600401600060405180830381600087803b15801561171b57600080fd5b505af115801561172f573d6000803e3d6000fd5b50505050565b600b5460009061178c9060ff8416620f424081810a67ffffffffffffffff9081169361178093899363ffffffff680100000000000000009093048316900383160a9091169061554f16565b9063ffffffff6155c816565b9392505050565b6005805460408051602060026001851615610100026000190190941693909304601f810184900484028201840190925281815292918301828280156118195780601f106117ee57610100808354040283529160200191611819565b820191906000526020600020905b8154815290600101906020018083116117fc57829003601f168201915b505050505081565b600054600160a060020a0316331461186f576040805160e560020a62461bcd028152602060048201526006602482015260d060020a6565373132393302604482015290519081900360640190fd5b600254604080517f8da5cb5b00000000000000000000000000000000000000000000000000000000815290513092600160a060020a031691638da5cb5b9160048083019260209291908290030181600087803b1580156118ce57600080fd5b505af11580156118e2573d6000803e3d6000fd5b505050506040513d60208110156118f857600080fd5b5051600160a060020a03161415611959576040805160e560020a62461bcd02815260206004820152600660248201527f3830373730320000000000000000000000000000000000000000000000000000604482015290519081900360640190fd5b82600160a060020a03811615156119ba576040805160e560020a62461bcd02815260206004820152600660248201527f3335373839660000000000000000000000000000000000000000000000000000604482015290519081900360640190fd5b83600160a060020a038116301415611a1c576040805160e560020a62461bcd02815260206004820152600660248201527f6665323738630000000000000000000000000000000000000000000000000000604482015290519081900360640190fd5b8360008163ffffffff16118015611a3c5750620f424063ffffffff821611155b1515611a92576040805160e560020a62461bcd02815260206004820152600660248201527f3738333138370000000000000000000000000000000000000000000000000000604482015290519081900360640190fd5b600254600160a060020a03878116911614801590611ad65750600160a060020a0386166000908152600a60205260409020600101546601000000000000900460ff16155b8015611af45750600b54620f424063ffffffff918216870190911611155b1515611b4a576040805160e560020a62461bcd02815260206004820152600660248201527f6563393238330000000000000000000000000000000000000000000000000000604482015290519081900360640190fd5b505050600160a060020a039092166000818152600a602052604081208181556001908101805466ff0000000000001965ff0000000000199715156401000000000264ff000000001963ffffffff808a1663ffffffff19958616179190911691909117989098166501000000000017166601000000000000179091556009805492830181559092527f6e1540171b6c0c960b71a7020d9f60077f6af931a8bbf590da0223dacf75c7af018054600160a060020a031916909217909155600b80548085169093019093169116179055565b600b546000908190819081908190819063ffffffff16620f424014611c88576040805160e560020a62461bcd02815260206004820152600660248201527f3663303737380000000000000000000000000000000000000000000000000000604482015290519081900360640190fd5b600260009054906101000a9004600160a060020a0316600160a060020a03166318160ddd6040518163ffffffff1660e060020a028152600401602060405180830381600087803b158015611cdb57600080fd5b505af1158015611cef573d6000803e3d6000fd5b505050506040513d6020811015611d0557600080fd5b50516002546040805160e060020a63a24835d1028152336004820152602481018b90529051929850600160a060020a039091169163a24835d19160448082019260009290919082900301818387803b158015611d6057600080fd5b505af1158015611d74573d6000803e3d6000fd5b50505050600091505b60095461ffff83161015611e77576009805461ffff8416908110611d9d57fe5b600091825260209091200154600160a060020a03169450611dbd85613ebc565b9350611dd386611780898763ffffffff61554f16565b600160a060020a0386166000908152600a6020526040902060018101549194509150640100000000900460ff1615611e1a578054611e17908463ffffffff6150ed16565b81555b611e2585338561514d565b6001810154604080518989038152858703602082015263ffffffff9092168282015251600160a060020a03871691600080516020615915833981519152919081900360600190a2600190910190611d7d565b50505050505050565b600054600160a060020a03163314611ece576040805160e560020a62461bcd028152602060048201526006602482015260d060020a6565373132393302604482015290519081900360640190fd5b600254604080517f5e35359e000000000000000000000000000000000000000000000000000000008152600160a060020a03868116600483015285811660248301526044820185905291519190921691635e35359e91606480830192600092919082900301818387803b158015611f4457600080fd5b505af1158015611e77573d6000803e3d6000fd5b600454600160a060020a031681565b600354600160a060020a031681565b60065460009060ff1680611f945750600054600160a060020a031633145b1515611fea576040805160e560020a62461bcd02815260206004820152600660248201527f3335393661630000000000000000000000000000000000000000000000000000604482015290519081900360640190fd5b6007546040805160e260020a632ecd14d30281527f436f6e747261637452656769737472790000000000000000000000000000000060048201529051600160a060020a039092169163bb34534c916024808201926020929091908290030181600087803b15801561205a57600080fd5b505af115801561206e573d6000803e3d6000fd5b505050506040513d602081101561208457600080fd5b5051600754909150600160a060020a038083169116148015906120af5750600160a060020a03811615155b1515612105576040805160e560020a62461bcd02815260206004820152600660248201527f6333386662330000000000000000000000000000000000000000000000000000604482015290519081900360640190fd5b600780546006805475ffffffffffffffffffffffffffffffffffffffff00001916600160a060020a03808416620100000291909117909155600160a060020a03199091169216919091179055565b600054600160a060020a031633146121a1576040805160e560020a62461bcd028152602060048201526006602482015260d060020a6565373132393302604482015290519081900360640190fd5b80600160a060020a038116301415612203576040805160e560020a62461bcd02815260206004820152600660248201527f6665323738630000000000000000000000000000000000000000000000000000604482015290519081900360640190fd5b5060088054600160a060020a031916600160a060020a0392909216919091179055565b6007546040805160e260020a632ecd14d30281527f42616e636f72580000000000000000000000000000000000000000000000000060048201529051600092839283928392600160a060020a03169163bb34534c91602480830192602092919082900301818787803b15801561229b57600080fd5b505af11580156122af573d6000803e3d6000fd5b505050506040513d60208110156122c557600080fd5b50516007546040805160e260020a632ecd14d30281527f42616e636f724e6574776f726b0000000000000000000000000000000000000060048201529051929550600160a060020a039091169163bb34534c916024808201926020929091908290030181600087803b15801561233a57600080fd5b505af115801561234e573d6000803e3d6000fd5b505050506040513d602081101561236457600080fd5b50516007546040805160e260020a632ecd14d30281527f424e54546f6b656e00000000000000000000000000000000000000000000000060048201529051929450600160a060020a039091169163bb34534c916024808201926020929091908290030181600087803b1580156123d957600080fd5b505af11580156123ed573d6000803e3d6000fd5b505050506040513d602081101561240357600080fd5b50518b51600160a060020a03909116908c90600090811061242057fe5b60209081029091010151600160a060020a031614612488576040805160e560020a62461bcd02815260206004820152600660248201527f6462633964340000000000000000000000000000000000000000000000000000604482015290519081900360640190fd5b604080517faafd6b76000000000000000000000000000000000000000000000000000000008152600481018b90523360248201529051600160a060020a0385169163aafd6b769160448083019260209291908290030181600087803b1580156124f057600080fd5b505af1158015612504573d6000803e3d6000fd5b505050506040513d602081101561251a57600080fd5b50516002546040805160e060020a63a24835d1028152336004820152602481018490529051929350600160a060020a039091169163a24835d19160448082019260009290919082900301818387803b15801561257557600080fd5b505af1158015612589573d6000803e3d6000fd5b50506002546040805160e260020a63219e412d028152600160a060020a03878116600483015260248201879052915191909216935063867904b49250604480830192600092919082900301818387803b1580156125e557600080fd5b505af11580156125f9573d6000803e3d6000fd5b5050505081600160a060020a031663b406d3868c838d338e8e8e8e8e6040518a63ffffffff1660e060020a02815260040180806020018a815260200189815260200188600160a060020a0316600160a060020a031681526020018781526020018681526020018560ff1660ff1681526020018460001916600019168152602001836000191660001916815260200182810382528b818151815260200191508051906020019060200280838360005b838110156126bf5781810151838201526020016126a7565b505050509050019a5050505050505050505050602060405180830381600087803b1580156126ec57600080fd5b505af1158015612700573d6000803e3d6000fd5b505050506040513d602081101561271657600080fd5b50519b9a5050505050505050505050565b60045474010000000000000000000000000000000000000000900461ffff1681565b600b5468010000000000000000900463ffffffff1681565b7f42616e636f72436f6e766572746572466163746f72790000000000000000000081565b6007546040805160e260020a632ecd14d30281526000805160206158f583398151915260048201529051600092600160a060020a03169163bb34534c91602480830192602092919082900301818787803b1580156127e257600080fd5b505af11580156127f6573d6000803e3d6000fd5b505050506040513d602081101561280c57600080fd5b5051600160a060020a0385166000908152600a60205260409020600101549091506601000000000000900460ff1615806128d85750600254604080517f8da5cb5b00000000000000000000000000000000000000000000000000000000815290513092600160a060020a031691638da5cb5b9160048083019260209291908290030181600087803b1580156128a057600080fd5b505af11580156128b4573d6000803e3d6000fd5b505050506040513d60208110156128ca57600080fd5b5051600160a060020a031614155b806128f05750600054600160a060020a038281169116145b1515612946576040805160e560020a62461bcd02815260206004820152600660248201527f3932626538610000000000000000000000000000000000000000000000000000604482015290519081900360640190fd5b61172f848484615636565b600061295f858585856114f2565b95945050505050565b600654620100009004600160a060020a031681565b7f424e54436f6e766572746572000000000000000000000000000000000000000081565b6000805160206158b583398151915281565b6009545b90565b60008060008060008060008030600160a060020a0316600260009054906101000a9004600160a060020a0316600160a060020a0316638da5cb5b6040518163ffffffff1660e060020a028152600401602060405180830381600087803b158015612a2357600080fd5b505af1158015612a37573d6000803e3d6000fd5b505050506040513d6020811015612a4d57600080fd5b5051600160a060020a031614612aad576040805160e560020a62461bcd02815260206004820152600660248201527f3765663339660000000000000000000000000000000000000000000000000000604482015290519081900360640190fd5b600160a060020a038a166000908152600a60205260409020600101548a906601000000000000900460ff161515612b1a576040805160e560020a62461bcd028152602060048201526006602482015260d160020a65329a331a18b102604482015290519081900360640190fd5b600160a060020a03808c166000908152600a6020908152604080832060025482517f18160ddd0000000000000000000000000000000000000000000000000000000081529251919c50909416936318160ddd93600480840194938390030190829087803b158015612b8a57600080fd5b505af1158015612b9e573d6000803e3d6000fd5b505050506040513d6020811015612bb457600080fd5b50519550612bc18b613ebc565b6007546040805160e260020a632ecd14d30281526000805160206158b583398151915260048201529051929750600160a060020a039091169163bb34534c916024808201926020929091908290030181600087803b158015612c2257600080fd5b505af1158015612c36573d6000803e3d6000fd5b505050506040513d6020811015612c4c57600080fd5b50516001880154604080517f49f9b0f7000000000000000000000000000000000000000000000000000000008152600481018a90526024810189905263ffffffff9092166044830152606482018d905251919550600160a060020a038616916349f9b0f7916084808201926020929091908290030181600087803b158015612cd357600080fd5b505af1158015612ce7573d6000803e3d6000fd5b505050506040513d6020811015612cfd57600080fd5b50519250612d0c836001611735565b9b928c90039a509198505050505050505050565b60408051606081018252600160a060020a03808716825260025481166020830152851691810191909152600090612d5b90600c90600361582b565b5061295f600c805480602002602001604051908101604052809291908181526020018280548015612db557602002820191906000526020600020905b8154600160a060020a03168152600190910190602001808311612d97575b50505050508484614251565b600154600160a060020a03163314612e23576040805160e560020a62461bcd02815260206004820152600660248201527f6639373561650000000000000000000000000000000000000000000000000000604482015290519081900360640190fd5b60015460008054604051600160a060020a0393841693909116917f343765429aea5a34b3ff6a3785a98a5abb2597aca87bfbb58632c173d585373a91a36001805460008054600160a060020a0319908116600160a060020a03841617909155169055565b600754600160a060020a031681565b7f436f6e747261637446656174757265730000000000000000000000000000000081565b600054600160a060020a03163314612f08576040805160e560020a62461bcd028152602060048201526006602482015260d060020a6565373132393302604482015290519081900360640190fd5b600254604080517f1608f18f00000000000000000000000000000000000000000000000000000000815283151560048201529051600160a060020a0390921691631608f18f9160248082019260009290919082900301818387803b158015612f6f57600080fd5b505af1158015612f83573d6000803e3d6000fd5b5050505050565b600654610100900460ff1681565b600054600160a060020a031681565b600080600080600080600030600160a060020a0316600260009054906101000a9004600160a060020a0316600160a060020a0316638da5cb5b6040518163ffffffff1660e060020a028152600401602060405180830381600087803b15801561300f57600080fd5b505af1158015613023573d6000803e3d6000fd5b505050506040513d602081101561303957600080fd5b5051600160a060020a031614613099576040805160e560020a62461bcd02815260206004820152600660248201527f3765663339660000000000000000000000000000000000000000000000000000604482015290519081900360640190fd5b600160a060020a038a166000908152600a60205260409020600101548a906601000000000000900460ff161515613106576040805160e560020a62461bcd028152602060048201526006602482015260d160020a65329a331a18b102604482015290519081900360640190fd5b600160a060020a038a166000908152600a60205260409020600101548a906601000000000000900460ff161515613173576040805160e560020a62461bcd028152602060048201526006602482015260d160020a65329a331a18b102604482015290519081900360640190fd5b600160a060020a038c81166000908152600a6020526040808220928e16825290206001820154919850965065010000000000900460ff161515613200576040805160e560020a62461bcd02815260206004820152600660248201527f3638303737370000000000000000000000000000000000000000000000000000604482015290519081900360640190fd5b6007546040805160e260020a632ecd14d30281526000805160206158b583398151915260048201529051600160a060020a039092169163bb34534c916024808201926020929091908290030181600087803b15801561325e57600080fd5b505af1158015613272573d6000803e3d6000fd5b505050506040513d602081101561328857600080fd5b50519450600160a060020a0385166365098bb36132a48e613ebc565b60018a015463ffffffff166132b88f613ebc565b60018b01546040805163ffffffff87811660e060020a028252600482019690965293851660248501526044840192909252929092166064820152608481018e9052905160a48083019260209291908290030181600087803b15801561331c57600080fd5b505af1158015613330573d6000803e3d6000fd5b505050506040513d602081101561334657600080fd5b50519350613355846002611735565b9c938d90039b50929950505050505050505050565b7f42616e636f724e6574776f726b0000000000000000000000000000000000000081565b7f42616e636f7247617350726963654c696d69740000000000000000000000000081565b600181565b600b54640100000000900463ffffffff1681565b600054600160a060020a03163314613419576040805160e560020a62461bcd028152602060048201526006602482015260d060020a6565373132393302604482015290519081900360640190fd5b600160a060020a0382166000908152600a602052604090206001015482906601000000000000900460ff161515613486576040805160e560020a62461bcd028152602060048201526006602482015260d160020a65329a331a18b102604482015290519081900360640190fd5b50600160a060020a03919091166000908152600a60205260409020600101805465ff0000000000191691156501000000000002919091179055565b60008060008060008060008030600160a060020a0316600260009054906101000a9004600160a060020a0316600160a060020a0316638da5cb5b6040518163ffffffff1660e060020a028152600401602060405180830381600087803b15801561352a57600080fd5b505af115801561353e573d6000803e3d6000fd5b505050506040513d602081101561355457600080fd5b5051600160a060020a0316146135b4576040805160e560020a62461bcd02815260206004820152600660248201527f3765663339660000000000000000000000000000000000000000000000000000604482015290519081900360640190fd5b600160a060020a038a166000908152600a60205260409020600101548a906601000000000000900460ff161515613621576040805160e560020a62461bcd028152602060048201526006602482015260d160020a65329a331a18b102604482015290519081900360640190fd5b600160a060020a038b166000908152600a60205260409020600181015490975065010000000000900460ff1615156136a3576040805160e560020a62461bcd02815260206004820152600660248201527f3334346235630000000000000000000000000000000000000000000000000000604482015290519081900360640190fd5b600260009054906101000a9004600160a060020a0316600160a060020a03166318160ddd6040518163ffffffff1660e060020a028152600401602060405180830381600087803b1580156136f657600080fd5b505af115801561370a573d6000803e3d6000fd5b505050506040513d602081101561372057600080fd5b5051955061372d8b613ebc565b6007546040805160e260020a632ecd14d30281526000805160206158b583398151915260048201529051929750600160a060020a039091169163bb34534c916024808201926020929091908290030181600087803b15801561378e57600080fd5b505af11580156137a2573d6000803e3d6000fd5b505050506040513d60208110156137b857600080fd5b50516001880154604080517f29a00e7c000000000000000000000000000000000000000000000000000000008152600481018a90526024810189905263ffffffff9092166044830152606482018d905251919550600160a060020a038616916329a00e7c916084808201926020929091908290030181600087803b158015612cd357600080fd5b600054600160a060020a0316331461388d576040805160e560020a62461bcd028152602060048201526006602482015260d060020a6565373132393302604482015290519081900360640190fd5b600680549115156101000261ff0019909216919091179055565b600054600160a060020a03163314806138ca5750600354600160a060020a031633145b151561390e576040805160e560020a62461bcd02815260206004820152600660248201526000805160206158d5833981519152604482015290519081900360640190fd5b6006805460078054600160a060020a031916600160a060020a036201000084041617905560ff19169055565b600b546c01000000000000000000000000900460ff1681565b600854600160a060020a031681565b7f42616e636f72580000000000000000000000000000000000000000000000000081565b600454600160a060020a031633146139e8576040805160e560020a62461bcd02815260206004820152600660248201527f3030323539300000000000000000000000000000000000000000000000000000604482015290519081900360640190fd5b600454600354604051600160a060020a0392831692909116907fbe4cc281795971a471c980e842627a7f1ea3892ddfce8c5b6357cd2611c1973290600090a36004805460038054600160a060020a0319908116600160a060020a03841617909155169055565b600b546000908190819081908190819063ffffffff16620f424014613abd576040805160e560020a62461bcd02815260206004820152600660248201527f3663303737380000000000000000000000000000000000000000000000000000604482015290519081900360640190fd5b600b546c01000000000000000000000000900460ff161515600114613b2c576040805160e560020a62461bcd02815260206004820152600960248201527f3272756768776f67680000000000000000000000000000000000000000000000604482015290519081900360640190fd5b600260009054906101000a9004600160a060020a0316600160a060020a03166318160ddd6040518163ffffffff1660e060020a028152600401602060405180830381600087803b158015613b7f57600080fd5b505af1158015613b93573d6000803e3d6000fd5b505050506040513d6020811015613ba957600080fd5b50519550600091505b60095461ffff83161015613cad576009805461ffff8416908110613bd257fe5b600091825260209091200154600160a060020a03169450613bf285613ebc565b9350613c0886611780898763ffffffff61554f16565b600160a060020a0386166000908152600a6020526040902060018101549194509150640100000000900460ff1615613c4f578054613c4c908463ffffffff61508516565b81555b613c5b853330866146c1565b600181015460408051888a018152868601602082015263ffffffff9092168282015251600160a060020a03871691600080516020615915833981519152919081900360600190a2600190910190613bb2565b6002546040805160e260020a63219e412d028152336004820152602481018a90529051600160a060020a039092169163867904b49160448082019260009290919082900301818387803b158015613d0357600080fd5b505af1158015613d17573d6000803e3d6000fd5b5050505050505050505050565b7f42616e636f72585570677261646572000000000000000000000000000000000081565b600154600160a060020a031681565b60008054600160a060020a03163314613da6576040805160e560020a62461bcd028152602060048201526006602482015260d060020a6565373132393302604482015290519081900360640190fd5b6007546040805160e260020a632ecd14d30281526000805160206158f583398151915260048201529051600160a060020a039092169163bb34534c916024808201926020929091908290030181600087803b158015613e0457600080fd5b505af1158015613e18573d6000803e3d6000fd5b505050506040513d6020811015613e2e57600080fd5b50519050613e3b81614262565b80600160a060020a03166390f58c96600460149054906101000a900461ffff166040518263ffffffff1660e060020a028152600401808261ffff1661ffff168152602001915050600060405180830381600087803b158015613e9c57600080fd5b505af1158015613eb0573d6000803e3d6000fd5b505050506114cb612dc1565b600160a060020a0381166000908152600a6020526040812060010154819083906601000000000000900460ff161515613f2b576040805160e560020a62461bcd028152602060048201526006602482015260d160020a65329a331a18b102604482015290519081900360640190fd5b600160a060020a0384166000908152600a602052604090206001810154909250640100000000900460ff16613fec57604080517f70a082310000000000000000000000000000000000000000000000000000000081523060048201529051600160a060020a038616916370a082319160248083019260209291908290030181600087803b158015613fbb57600080fd5b505af1158015613fcf573d6000803e3d6000fd5b505050506040513d6020811015613fe557600080fd5b5051613fef565b81545b949350505050565b600054600160a060020a031633148061401a5750600354600160a060020a031633145b151561405e576040805160e560020a62461bcd02815260206004820152600660248201526000805160206158d5833981519152604482015290519081900360640190fd5b600354600160a060020a03828116911614156140c4576040805160e560020a62461bcd02815260206004820152600660248201527f6537346166300000000000000000000000000000000000000000000000000000604482015290519081900360640190fd5b60048054600160a060020a031916600160a060020a0392909216919091179055565b600054600160a060020a03163314806141095750600354600160a060020a031633145b151561414d576040805160e560020a62461bcd02815260206004820152600660248201526000805160206158d5833981519152604482015290519081900360640190fd5b8060008163ffffffff16101580156141795750600b5463ffffffff640100000000909104811690821611155b15156141cf576040805160e560020a62461bcd02815260206004820152600660248201527f6135613862310000000000000000000000000000000000000000000000000000604482015290519081900360640190fd5b600b546040805163ffffffff6801000000000000000090930483168152918416602083015280517f81cd2ffb37dd237c0e4e2a3de5265fcf9deb43d3e7801e80db9f1ccfba7ee6009281900390910190a150600b805463ffffffff90921668010000000000000000026bffffffff000000000000000019909216919091179055565b6000613fef848484848080806110e6565b600054600160a060020a031633146142b0576040805160e560020a62461bcd028152602060048201526006602482015260d060020a6565373132393302604482015290519081900360640190fd5b600054600160a060020a0382811691161415614316576040805160e560020a62461bcd02815260206004820152600660248201527f6632306333390000000000000000000000000000000000000000000000000000604482015290519081900360640190fd5b60018054600160a060020a031916600160a060020a0392909216919091179055565b7f4e6f6e5374616e64617264546f6b656e5265676973747279000000000000000081565b600054600160a060020a031633148061437f5750600354600160a060020a031633145b15156143c3576040805160e560020a62461bcd02815260206004820152600660248201526000805160206158d5833981519152604482015290519081900360640190fd5b6006805460ff19169115919091179055565b600254600160a060020a031681565b600654600090610100900460ff161515614448576040805160e560020a62461bcd02815260206004820152600660248201527f3231313634320000000000000000000000000000000000000000000000000000604482015290519081900360640190fd5b6007546040805160e260020a632ecd14d30281527f42616e636f72580000000000000000000000000000000000000000000000000060048201529051600160a060020a039092169163bb34534c916024808201926020929091908290030181600087803b1580156144b857600080fd5b505af11580156144cc573d6000803e3d6000fd5b505050506040513d60208110156144e257600080fd5b5051905033600160a060020a03821614614546576040805160e560020a62461bcd02815260206004820152600660248201527f3238373439620000000000000000000000000000000000000000000000000000604482015290519081900360640190fd5b6002546040805160e060020a63a24835d1028152600160a060020a038681166004830152602482018690529151919092169163a24835d191604480830192600092919082900301818387803b15801561459e57600080fd5b505af11580156145b2573d6000803e3d6000fd5b50506002546040805160e260020a63219e412d028152336004820152602481018790529051600160a060020a03909216935063867904b4925060448082019260009290919082900301818387803b158015611f4457600080fd5b600054600160a060020a0316331461465a576040805160e560020a62461bcd028152602060048201526006602482015260d060020a6565373132393302604482015290519081900360640190fd5b600254604080517ff2fde38b000000000000000000000000000000000000000000000000000000008152600160a060020a0384811660048301529151919092169163f2fde38b91602480830192600092919082900301818387803b158015612f6f57600080fd5b6007546040805160e260020a632ecd14d30281527f4e6f6e5374616e64617264546f6b656e526567697374727900000000000000006004820152905160009283928392600160a060020a039092169163bb34534c9160248082019260209290919082900301818787803b15801561473757600080fd5b505af115801561474b573d6000803e3d6000fd5b505050506040513d602081101561476157600080fd5b5051604080517faeea10bd000000000000000000000000000000000000000000000000000000008152600160a060020a038a8116600483015291519295509085169163aeea10bd916024808201926020929091908290030181600087803b1580156147cb57600080fd5b505af11580156147df573d6000803e3d6000fd5b505050506040513d60208110156147f557600080fd5b5051156149a85786600160a060020a03166370a08231866040518263ffffffff1660e060020a0281526004018082600160a060020a0316600160a060020a03168152602001915050602060405180830381600087803b15801561485757600080fd5b505af115801561486b573d6000803e3d6000fd5b505050506040513d602081101561488157600080fd5b5051604080517f23b872dd000000000000000000000000000000000000000000000000000000008152600160a060020a0389811660048301528881166024830152604482018890529151929450908916916323b872dd9160648082019260009290919082900301818387803b1580156148f957600080fd5b505af115801561490d573d6000803e3d6000fd5b5050505086600160a060020a03166370a08231866040518263ffffffff1660e060020a0281526004018082600160a060020a0316600160a060020a03168152602001915050602060405180830381600087803b15801561496c57600080fd5b505af1158015614980573d6000803e3d6000fd5b505050506040513d602081101561499657600080fd5b505190508181116149a357fe5b611e77565b604080517f23b872dd000000000000000000000000000000000000000000000000000000008152600160a060020a0388811660048301528781166024830152604482018790529151918916916323b872dd916064808201926020929091908290030181600087803b158015614a1c57600080fd5b505af1158015614a30573d6000803e3d6000fd5b505050506040513d6020811015614a4657600080fd5b50511515611e7757fe5b600080600080614a6087876134c1565b90935091508215801590614a745750848310155b1515614aca576040805160e560020a62461bcd02815260206004820152600660248201527f6263353761340000000000000000000000000000000000000000000000000000604482015290519081900360640190fd5b50600160a060020a0386166000908152600a602052604090206001810154640100000000900460ff1615614b0d578054614b0a908763ffffffff61508516565b81555b614b19873330896146c1565b6002546040805160e260020a63219e412d028152336004820152602481018690529051600160a060020a039092169163867904b49160448082019260009290919082900301818387803b158015614b6f57600080fd5b505af1158015614b83573d6000803e3d6000fd5b5050600254614ba19250899150600160a060020a03168886866154cb565b86600160a060020a0316600080516020615915833981519152600260009054906101000a9004600160a060020a0316600160a060020a03166318160ddd6040518163ffffffff1660e060020a028152600401602060405180830381600087803b158015614c0d57600080fd5b505af1158015614c21573d6000803e3d6000fd5b505050506040513d6020811015614c3757600080fd5b5051614c428a613ebc565b600185015460408051938452602084019290925263ffffffff1682820152519081900360600190a2509095945050505050565b600254604080517f70a08231000000000000000000000000000000000000000000000000000000008152336004820152905160009283928392839283928392600160a060020a03909216916370a082319160248082019260209290919082900301818787803b158015614ce757600080fd5b505af1158015614cfb573d6000803e3d6000fd5b505050506040513d6020811015614d1157600080fd5b5051881115614d6a576040805160e560020a62461bcd02815260206004820152600660248201527f3038626563630000000000000000000000000000000000000000000000000000604482015290519081900360640190fd5b614d7489896129ba565b90955093508415801590614d885750868510155b1515614dde576040805160e560020a62461bcd02815260206004820152600660248201527f3566373336640000000000000000000000000000000000000000000000000000604482015290519081900360640190fd5b600260009054906101000a9004600160a060020a0316600160a060020a03166318160ddd6040518163ffffffff1660e060020a028152600401602060405180830381600087803b158015614e3157600080fd5b505af1158015614e45573d6000803e3d6000fd5b505050506040513d6020811015614e5b57600080fd5b50519250614e6889613ebc565b915081851080614e8157508185148015614e8157508288145b1515600114614eda576040805160e560020a62461bcd02815260206004820152600660248201527f6661666173660000000000000000000000000000000000000000000000000000604482015290519081900360640190fd5b50600160a060020a0388166000908152600a602052604090206001810154640100000000900460ff1615614f1d578054614f1a908663ffffffff6150ed16565b81555b6002546040805160e060020a63a24835d1028152336004820152602481018b90529051600160a060020a039092169163a24835d19160448082019260009290919082900301818387803b158015614f7357600080fd5b505af1158015614f87573d6000803e3d6000fd5b50505050614f9689338761514d565b600254614faf90600160a060020a03168a8a88886154cb565b88600160a060020a0316600080516020615915833981519152600260009054906101000a9004600160a060020a0316600160a060020a03166318160ddd6040518163ffffffff1660e060020a028152600401602060405180830381600087803b15801561501b57600080fd5b505af115801561502f573d6000803e3d6000fd5b505050506040513d602081101561504557600080fd5b50516150508c613ebc565b600185015460408051938452602084019290925263ffffffff1682820152519081900360600190a25092979650505050505050565b6000828201838110156150e2576040805160e560020a62461bcd02815260206004820152600660248201527f3232613836390000000000000000000000000000000000000000000000000000604482015290519081900360640190fd5b8091505b5092915050565b600081831015615147576040805160e560020a62461bcd02815260206004820152600660248201527f3530646533390000000000000000000000000000000000000000000000000000604482015290519081900360640190fd5b50900390565b6007546040805160e260020a632ecd14d30281527f4e6f6e5374616e64617264546f6b656e526567697374727900000000000000006004820152905160009283928392600160a060020a039092169163bb34534c9160248082019260209290919082900301818787803b1580156151c357600080fd5b505af11580156151d7573d6000803e3d6000fd5b505050506040513d60208110156151ed57600080fd5b5051604080517faeea10bd000000000000000000000000000000000000000000000000000000008152600160a060020a03898116600483015291519295509085169163aeea10bd916024808201926020929091908290030181600087803b15801561525757600080fd5b505af115801561526b573d6000803e3d6000fd5b505050506040513d602081101561528157600080fd5b50511561542c5785600160a060020a03166370a08231866040518263ffffffff1660e060020a0281526004018082600160a060020a0316600160a060020a03168152602001915050602060405180830381600087803b1580156152e357600080fd5b505af11580156152f7573d6000803e3d6000fd5b505050506040513d602081101561530d57600080fd5b5051604080517fa9059cbb000000000000000000000000000000000000000000000000000000008152600160a060020a0388811660048301526024820188905291519294509088169163a9059cbb9160448082019260009290919082900301818387803b15801561537d57600080fd5b505af1158015615391573d6000803e3d6000fd5b5050505085600160a060020a03166370a08231866040518263ffffffff1660e060020a0281526004018082600160a060020a0316600160a060020a03168152602001915050602060405180830381600087803b1580156153f057600080fd5b505af1158015615404573d6000803e3d6000fd5b505050506040513d602081101561541a57600080fd5b5051905081811161542757fe5b6154c3565b85600160a060020a031663a9059cbb86866040518363ffffffff1660e060020a0281526004018083600160a060020a0316600160a060020a0316815260200182815260200192505050602060405180830381600087803b15801561548f57600080fd5b505af11580156154a3573d6000803e3d6000fd5b505050506040513d60208110156154b957600080fd5b505115156154c357fe5b505050505050565b7f80000000000000000000000000000000000000000000000000000000000000008111156154f557fe5b604080518481526020810184905280820183905290513391600160a060020a0387811692908916917f276856b36cbc45526a0ba64f44611557a2a8b68662c5388e9fe6d72e86e1c8cb919081900360600190a45050505050565b60008083151561556257600091506150e6565b5082820282848281151561557257fe5b04146150e2576040805160e560020a62461bcd02815260206004820152600660248201527f6662653835310000000000000000000000000000000000000000000000000000604482015290519081900360640190fd5b600080808311615622576040805160e560020a62461bcd02815260206004820152600660248201527f6337386131380000000000000000000000000000000000000000000000000000604482015290519081900360640190fd5b828481151561562d57fe5b04949350505050565b600054600160a060020a03163314615684576040805160e560020a62461bcd028152602060048201526006602482015260d060020a6565373132393302604482015290519081900360640190fd5b82600160a060020a03811615156156e5576040805160e560020a62461bcd02815260206004820152600660248201527f3335373839660000000000000000000000000000000000000000000000000000604482015290519081900360640190fd5b82600160a060020a0381161515615746576040805160e560020a62461bcd02815260206004820152600660248201527f3335373839660000000000000000000000000000000000000000000000000000604482015290519081900360640190fd5b83600160a060020a0381163014156157a8576040805160e560020a62461bcd02815260206004820152600660248201527f6665323738630000000000000000000000000000000000000000000000000000604482015290519081900360640190fd5b85600160a060020a031663a9059cbb86866040518363ffffffff1660e060020a0281526004018083600160a060020a0316600160a060020a0316815260200182815260200192505050600060405180830381600087803b15801561580b57600080fd5b505af115801561581f573d6000803e3d6000fd5b50505050505050505050565b828054828255906000526020600020908101928215615880579160200282015b828111156158805782518254600160a060020a031916600160a060020a0390911617825560209092019160019091019061584b565b5061588c929150615890565b5090565b6129b791905b8082111561588c578054600160a060020a0319168155600101615896560042616e636f72466f726d756c6100000000000000000000000000000000000000306333363564000000000000000000000000000000000000000000000000000042616e636f72436f6e76657274657255706772616465720000000000000000008a6a7f53b3c8fa1dc4b83e3f1be668c1b251ff8d44cdcb83eb3acec3fec6a788a165627a7a72305820ed8adcb355e8d03683f71518df448fb9a18724bc6a67c6b81ee6e0a4d017b9e10029a165627a7a7230582036ed0ca0831656c6ec36e39d84c816dc0a7f37ad01c224e3a607f2ed73e85cf40029",
  "source": "pragma solidity ^0.4.24;\nimport './BancorConverter.sol';\nimport './interfaces/IBancorConverterFactory.sol';\nimport '../utility/interfaces/IContractRegistry.sol';\n\n/*\n    Bancor Converter Factory\n*/\ncontract BancorConverterFactory is IBancorConverterFactory {\n    /**\n        @dev triggered when a new converter is created\n\n        @param _converter   new converter address\n        @param _owner       converter owner address\n    */\n    event NewConverter(address indexed _converter, address indexed _owner);\n\n    /**\n        @dev initializes a new BancorConverterFactory instance\n    */\n    constructor() public {\n    }\n\n    /**\n        @dev creates a new converter with the given arguments and transfers\n        the ownership and management to the sender.\n\n        @param  _token              smart token governed by the converter\n        @param  _registry           address of a contract registry contract\n        @param  _maxConversionFee   maximum conversion fee, represented in ppm\n        @param  _connectorToken     optional, initial connector, allows defining the first connector at deployment time\n        @param  _connectorWeight    optional, weight for the initial connector\n\n        @return a new converter\n    */\n    function createConverter(\n        ISmartToken _token,\n        IContractRegistry _registry,\n        uint32 _maxConversionFee,\n        IERC20Token _connectorToken,\n        uint32 _connectorWeight\n    ) public returns(address converterAddress) {\n        BancorConverter converter = new BancorConverter(\n            _token,\n            _registry,\n            _maxConversionFee,\n            _connectorToken,\n            _connectorWeight\n        );\n\n        converter.transferOwnership(msg.sender);\n        converter.transferManagement(msg.sender);\n\n        address _converterAddress = address(converter);\n        emit NewConverter(_converterAddress, msg.sender);\n        return _converterAddress;\n    }\n}\n",
  "sourcePath": "/home/lash/src/ext/sempo/contracts/solidity/contracts/converter/BancorConverterFactory.sol",
  "compiler": {
    "name": "solc",
    "version": "0.4.26+commit.4563c3fc.Emscripten.clang"
  },
  "schemaVersion": "3.0.11",
  "updatedAt": "2020-02-26T17:34:07.290Z",
  "devdoc": {
    "methods": {
      "createConverter(address,address,uint32,address,uint32)": {
        "details": "creates a new converter with the given arguments and transfers the ownership and management to the sender.",
        "params": {
          "_connectorToken": "optional, initial connector, allows defining the first connector at deployment time",
          "_connectorWeight": "optional, weight for the initial connector",
          "_maxConversionFee": "maximum conversion fee, represented in ppm",
          "_registry": "address of a contract registry contract",
          "_token": "smart token governed by the converter"
        },
        "return": "a new converter"
      }
    }
  },
  "userdoc": {
    "methods": {}
  }
}