{
  "contractName": "EtherToken",
  "abi": [
    {
      "constant": true,
      "inputs": [],
      "name": "name",
      "outputs": [
        {
          "name": "",
          "type": "string"
        }
      ],
      "payable": false,
      "stateMutability": "view",
      "type": "function"
    },
    {
      "constant": false,
      "inputs": [
        {
          "name": "_spender",
          "type": "address"
        },
        {
          "name": "_value",
          "type": "uint256"
        }
      ],
      "name": "approve",
      "outputs": [
        {
          "name": "success",
          "type": "bool"
        }
      ],
      "payable": false,
      "stateMutability": "nonpayable",
      "type": "function"
    },
    {
      "constant": true,
      "inputs": [],
      "name": "totalSupply",
      "outputs": [
        {
          "name": "",
          "type": "uint256"
        }
      ],
      "payable": false,
      "stateMutability": "view",
      "type": "function"
    },
    {
      "constant": true,
      "inputs": [],
      "name": "decimals",
      "outputs": [
        {
          "name": "",
          "type": "uint8"
        }
      ],
      "payable": false,
      "stateMutability": "view",
      "type": "function"
    },
    {
      "constant": true,
      "inputs": [],
      "name": "standard",
      "outputs": [
        {
          "name": "",
          "type": "string"
        }
      ],
      "payable": false,
      "stateMutability": "view",
      "type": "function"
    },
    {
      "constant": false,
      "inputs": [
        {
          "name": "_token",
          "type": "address"
        },
        {
          "name": "_to",
          "type": "address"
        },
        {
          "name": "_amount",
          "type": "uint256"
        }
      ],
      "name": "withdrawTokens",
      "outputs": [],
      "payable": false,
      "stateMutability": "nonpayable",
      "type": "function"
    },
    {
      "constant": true,
      "inputs": [
        {
          "name": "",
          "type": "address"
        }
      ],
      "name": "balanceOf",
      "outputs": [
        {
          "name": "",
          "type": "uint256"
        }
      ],
      "payable": false,
      "stateMutability": "view",
      "type": "function"
    },
    {
      "constant": false,
      "inputs": [],
      "name": "acceptOwnership",
      "outputs": [],
      "payable": false,
      "stateMutability": "nonpayable",
      "type": "function"
    },
    {
      "constant": true,
      "inputs": [],
      "name": "owner",
      "outputs": [
        {
          "name": "",
          "type": "address"
        }
      ],
      "payable": false,
      "stateMutability": "view",
      "type": "function"
    },
    {
      "constant": true,
      "inputs": [],
      "name": "symbol",
      "outputs": [
        {
          "name": "",
          "type": "string"
        }
      ],
      "payable": false,
      "stateMutability": "view",
      "type": "function"
    },
    {
      "constant": true,
      "inputs": [],
      "name": "newOwner",
      "outputs": [
        {
          "name": "",
          "type": "address"
        }
      ],
      "payable": false,
      "stateMutability": "view",
      "type": "function"
    },
    {
      "constant": true,
      "inputs": [
        {
          "name": "",
          "type": "address"
        },
        {
          "name": "",
          "type": "address"
        }
      ],
      "name": "allowance",
      "outputs": [
        {
          "name": "",
          "type": "uint256"
        }
      ],
      "payable": false,
      "stateMutability": "view",
      "type": "function"
    },
    {
      "constant": false,
      "inputs": [
        {
          "name": "_newOwner",
          "type": "address"
        }
      ],
      "name": "transferOwnership",
      "outputs": [],
      "payable": false,
      "stateMutability": "nonpayable",
      "type": "function"
    },
    {
      "inputs": [],
      "payable": false,
      "stateMutability": "nonpayable",
      "type": "constructor"
    },
    {
      "payable": true,
      "stateMutability": "payable",
      "type": "fallback"
    },
    {
      "anonymous": false,
      "inputs": [
        {
          "indexed": false,
          "name": "_amount",
          "type": "uint256"
        }
      ],
      "name": "Issuance",
      "type": "event"
    },
    {
      "anonymous": false,
      "inputs": [
        {
          "indexed": false,
          "name": "_amount",
          "type": "uint256"
        }
      ],
      "name": "Destruction",
      "type": "event"
    },
    {
      "anonymous": false,
      "inputs": [
        {
          "indexed": true,
          "name": "_from",
          "type": "address"
        },
        {
          "indexed": true,
          "name": "_to",
          "type": "address"
        },
        {
          "indexed": false,
          "name": "_value",
          "type": "uint256"
        }
      ],
      "name": "Transfer",
      "type": "event"
    },
    {
      "anonymous": false,
      "inputs": [
        {
          "indexed": true,
          "name": "_owner",
          "type": "address"
        },
        {
          "indexed": true,
          "name": "_spender",
          "type": "address"
        },
        {
          "indexed": false,
          "name": "_value",
          "type": "uint256"
        }
      ],
      "name": "Approval",
      "type": "event"
    },
    {
      "anonymous": false,
      "inputs": [
        {
          "indexed": true,
          "name": "_prevOwner",
          "type": "address"
        },
        {
          "indexed": true,
          "name": "_newOwner",
          "type": "address"
        }
      ],
      "name": "OwnerUpdate",
      "type": "event"
    },
    {
      "constant": false,
      "inputs": [],
      "name": "deposit",
      "outputs": [],
      "payable": true,
      "stateMutability": "payable",
      "type": "function"
    },
    {
      "constant": false,
      "inputs": [
        {
          "name": "_amount",
          "type": "uint256"
        }
      ],
      "name": "withdraw",
      "outputs": [],
      "payable": false,
      "stateMutability": "nonpayable",
      "type": "function"
    },
    {
      "constant": false,
      "inputs": [
        {
          "name": "_to",
          "type": "address"
        },
        {
          "name": "_amount",
          "type": "uint256"
        }
      ],
      "name": "withdrawTo",
      "outputs": [],
      "payable": false,
      "stateMutability": "nonpayable",
      "type": "function"
    },
    {
      "constant": false,
      "inputs": [
        {
          "name": "_to",
          "type": "address"
        },
        {
          "name": "_value",
          "type": "uint256"
        }
      ],
      "name": "transfer",
      "outputs": [
        {
          "name": "success",
          "type": "bool"
        }
      ],
      "payable": false,
      "stateMutability": "nonpayable",
      "type": "function"
    },
    {
      "constant": false,
      "inputs": [
        {
          "name": "_from",
          "type": "address"
        },
        {
          "name": "_to",
          "type": "address"
        },
        {
          "name": "_value",
          "type": "uint256"
        }
      ],
      "name": "transferFrom",
      "outputs": [
        {
          "name": "success",
          "type": "bool"
        }
      ],
      "payable": false,
      "stateMutability": "nonpayable",
      "type": "function"
    }
  ],
  "bytecode": "0x60c0604052600960808190527f546f6b656e20302e31000000000000000000000000000000000000000000000060a0908152620000409160029190620001e8565b506040805160208101918290526000908190526200006191600391620001e8565b506040805160208101918290526000908190526200008291600491620001e8565b506005805460ff1916905560006006553480156200009f57600080fd5b50604080518082018252600b81527f457468657220546f6b656e0000000000000000000000000000000000000000006020808301919091528251808401909352600383527f45544800000000000000000000000000000000000000000000000000000000009083015260008054600160a060020a03191633178155815191929160129110801562000131575060008251115b15156200019f57604080517f08c379a000000000000000000000000000000000000000000000000000000000815260206004820152600660248201527f6536396437360000000000000000000000000000000000000000000000000000604482015290519081900360640190fd5b8251620001b4906003906020860190620001e8565b508151620001ca906004906020850190620001e8565b506005805460ff191660ff92909216919091179055506200028d9050565b828054600181600116156101000203166002900490600052602060002090601f016020900481019282601f106200022b57805160ff19168380011785556200025b565b828001600101855582156200025b579182015b828111156200025b5782518255916020019190600101906200023e565b50620002699291506200026d565b5090565b6200028a91905b8082111562000269576000815560010162000274565b90565b6110db806200029d6000396000f3006080604052600436106100fb5763ffffffff7c010000000000000000000000000000000000000000000000000000000060003504166306fdde038114610105578063095ea7b31461018f57806318160ddd146101c7578063205c2878146101ee57806323b872dd146102125780632e1a7d4d1461023c578063313ce567146102545780635a3b7e421461027f5780635e35359e1461029457806370a08231146102be57806379ba5097146102df5780638da5cb5b146102f457806395d89b4114610325578063a9059cbb1461033a578063d0e30db0146100fb578063d4ee1d901461035e578063dd62ed3e14610373578063f2fde38b1461039a575b6101036103bb565b005b34801561011157600080fd5b5061011a61045b565b6040805160208082528351818301528351919283929083019185019080838360005b8381101561015457818101518382015260200161013c565b50505050905090810190601f1680156101815780820380516001836020036101000a031916815260200191505b509250505060405180910390f35b34801561019b57600080fd5b506101b3600160a060020a03600435166024356104e9565b604080519115158252519081900360200190f35b3480156101d357600080fd5b506101dc610626565b60408051918252519081900360200190f35b3480156101fa57600080fd5b50610103600160a060020a036004351660243561062c565b34801561021e57600080fd5b506101b3600160a060020a0360043581169060243516604435610756565b34801561024857600080fd5b506101036004356107c6565b34801561026057600080fd5b506102696107d3565b6040805160ff9092168252519081900360200190f35b34801561028b57600080fd5b5061011a6107dc565b3480156102a057600080fd5b50610103600160a060020a0360043581169060243516604435610834565b3480156102ca57600080fd5b506101dc600160a060020a0360043516610a20565b3480156102eb57600080fd5b50610103610a32565b34801561030057600080fd5b50610309610b05565b60408051600160a060020a039092168252519081900360200190f35b34801561033157600080fd5b5061011a610b14565b34801561034657600080fd5b506101b3600160a060020a0360043516602435610b6f565b34801561036a57600080fd5b50610309610bdd565b34801561037f57600080fd5b506101dc600160a060020a0360043581169060243516610bec565b3480156103a657600080fd5b50610103600160a060020a0360043516610c09565b336000908152600760205260409020546103db903463ffffffff610d0016565b336000908152600760205260409020556006546103fe903463ffffffff610d0016565b6006556040805134815290517f9386c90217c323f58030f9dadcbc938f807a940f4ff41cd4cead9562f5da7dc39181900360200190a1604080513481529051339130916000805160206110908339815191529181900360200190a3565b6003805460408051602060026001851615610100026000190190941693909304601f810184900484028201840190925281815292918301828280156104e15780601f106104b6576101008083540402835291602001916104e1565b820191906000526020600020905b8154815290600101906020018083116104c457829003601f168201915b505050505081565b600082600160a060020a038116151561053a576040805160e560020a62461bcd0281526020600482015260066024820152600080516020611050833981519152604482015290519081900360640190fd5b8215806105685750336000908152600860209081526040808320600160a060020a0388168452909152902054155b15156105be576040805160e560020a62461bcd02815260206004820152600660248201527f3335303363650000000000000000000000000000000000000000000000000000604482015290519081900360640190fd5b336000818152600860209081526040808320600160a060020a03891680855290835292819020879055805187815290519293927f8c5be1e5ebec7d5bd14f71427d1e84f3dd0314c0f7b2291e5b200ac8c7c3b925929181900390910190a35060019392505050565b60065481565b81600160a060020a03811630141561067c576040805160e560020a62461bcd0281526020600482015260066024820152600080516020611070833981519152604482015290519081900360640190fd5b3360009081526007602052604090205461069c908363ffffffff610d6416565b336000908152600760205260409020556006546106bf908363ffffffff610d6416565b600655604051600160a060020a0384169083156108fc029084906000818181858888f193505050501580156106f8573d6000803e3d6000fd5b50604080518381529051309133916000805160206110908339815191529181900360200190a36040805183815290517f9a1b418bc061a5d80270261562e6986a35d995f8051145f277be16103abd34539181900360200190a1505050565b600082600160a060020a0381163014156107a8576040805160e560020a62461bcd0281526020600482015260066024820152600080516020611070833981519152604482015290519081900360640190fd5b6107b3858585610dc4565b15156107bb57fe5b506001949350505050565b6107d0338261062c565b50565b60055460ff1681565b6002805460408051602060018416156101000260001901909316849004601f810184900484028201840190925281815292918301828280156104e15780601f106104b6576101008083540402835291602001916104e1565b600054600160a060020a03163314610896576040805160e560020a62461bcd02815260206004820152600660248201527f6537313239330000000000000000000000000000000000000000000000000000604482015290519081900360640190fd5b82600160a060020a03811615156108e5576040805160e560020a62461bcd0281526020600482015260066024820152600080516020611050833981519152604482015290519081900360640190fd5b82600160a060020a0381161515610934576040805160e560020a62461bcd0281526020600482015260066024820152600080516020611050833981519152604482015290519081900360640190fd5b83600160a060020a038116301415610984576040805160e560020a62461bcd0281526020600482015260066024820152600080516020611070833981519152604482015290519081900360640190fd5b85600160a060020a031663a9059cbb86866040518363ffffffff167c01000000000000000000000000000000000000000000000000000000000281526004018083600160a060020a0316600160a060020a0316815260200182815260200192505050600060405180830381600087803b158015610a0057600080fd5b505af1158015610a14573d6000803e3d6000fd5b50505050505050505050565b60076020526000908152604090205481565b600154600160a060020a03163314610a94576040805160e560020a62461bcd02815260206004820152600660248201527f6639373561650000000000000000000000000000000000000000000000000000604482015290519081900360640190fd5b60015460008054604051600160a060020a0393841693909116917f343765429aea5a34b3ff6a3785a98a5abb2597aca87bfbb58632c173d585373a91a3600180546000805473ffffffffffffffffffffffffffffffffffffffff19908116600160a060020a03841617909155169055565b600054600160a060020a031681565b6004805460408051602060026001851615610100026000190190941693909304601f810184900484028201840190925281815292918301828280156104e15780601f106104b6576101008083540402835291602001916104e1565b600082600160a060020a038116301415610bc1576040805160e560020a62461bcd0281526020600482015260066024820152600080516020611070833981519152604482015290519081900360640190fd5b610bcb8484610f5f565b1515610bd357fe5b5060019392505050565b600154600160a060020a031681565b600860209081526000928352604080842090915290825290205481565b600054600160a060020a03163314610c6b576040805160e560020a62461bcd02815260206004820152600660248201527f6537313239330000000000000000000000000000000000000000000000000000604482015290519081900360640190fd5b600054600160a060020a0382811691161415610cd1576040805160e560020a62461bcd02815260206004820152600660248201527f6632306333390000000000000000000000000000000000000000000000000000604482015290519081900360640190fd5b6001805473ffffffffffffffffffffffffffffffffffffffff1916600160a060020a0392909216919091179055565b600082820183811015610d5d576040805160e560020a62461bcd02815260206004820152600660248201527f3232613836390000000000000000000000000000000000000000000000000000604482015290519081900360640190fd5b9392505050565b600081831015610dbe576040805160e560020a62461bcd02815260206004820152600660248201527f3530646533390000000000000000000000000000000000000000000000000000604482015290519081900360640190fd5b50900390565b600083600160a060020a0381161515610e15576040805160e560020a62461bcd0281526020600482015260066024820152600080516020611050833981519152604482015290519081900360640190fd5b83600160a060020a0381161515610e64576040805160e560020a62461bcd0281526020600482015260066024820152600080516020611050833981519152604482015290519081900360640190fd5b600160a060020a0386166000908152600860209081526040808320338452909152902054610e98908563ffffffff610d6416565b600160a060020a038716600081815260086020908152604080832033845282528083209490945591815260079091522054610ed9908563ffffffff610d6416565b600160a060020a038088166000908152600760205260408082209390935590871681522054610f0e908563ffffffff610d0016565b600160a060020a0380871660008181526007602090815260409182902094909455805188815290519193928a169260008051602061109083398151915292918290030190a350600195945050505050565b600082600160a060020a0381161515610fb0576040805160e560020a62461bcd0281526020600482015260066024820152600080516020611050833981519152604482015290519081900360640190fd5b33600090815260076020526040902054610fd0908463ffffffff610d6416565b3360009081526007602052604080822092909255600160a060020a03861681522054611002908463ffffffff610d0016565b600160a060020a0385166000818152600760209081526040918290209390935580518681529051919233926000805160206110908339815191529281900390910190a35060019392505050560033353738396600000000000000000000000000000000000000000000000000006665323738630000000000000000000000000000000000000000000000000000ddf252ad1be2c89b69c2b068fc378daa952ba7f163c4a11628f55a4df523b3efa165627a7a723058206952ae7fb94aab3d1c14dcf33d232fbb64825ea685b109d7df4a7070229b94840029",
  "source": "pragma solidity ^0.4.24;\nimport './ERC20Token.sol';\nimport './interfaces/IEtherToken.sol';\nimport '../utility/Owned.sol';\nimport '../utility/TokenHolder.sol';\nimport '../utility/SafeMath.sol';\n\n/**\n    @dev Ether tokenization contract\n\n    'Owned' is specified here for readability reasons\n*/\ncontract EtherToken is IEtherToken, Owned, ERC20Token, TokenHolder {\n    using SafeMath for uint256;\n\n    /**\n        @dev triggered when the total supply is increased\n\n        @param _amount  amount that gets added to the supply\n    */\n    event Issuance(uint256 _amount);\n\n    /**\n        @dev triggered when the total supply is decreased\n\n        @param _amount  amount that gets removed from the supply\n    */\n    event Destruction(uint256 _amount);\n\n    /**\n        @dev initializes a new EtherToken instance\n    */\n    constructor()\n        public\n        ERC20Token('Ether Token', 'ETH', 18) {\n    }\n\n    /**\n        @dev deposit ether in the account\n    */\n    function deposit() public payable {\n        balanceOf[msg.sender] = balanceOf[msg.sender].add(msg.value); // add the value to the account balance\n        totalSupply = totalSupply.add(msg.value); // increase the total supply\n\n        emit Issuance(msg.value);\n        emit Transfer(this, msg.sender, msg.value);\n    }\n\n    /**\n        @dev withdraw ether from the account\n\n        @param _amount  amount of ether to withdraw\n    */\n    function withdraw(uint256 _amount) public {\n        withdrawTo(msg.sender, _amount);\n    }\n\n    /**\n        @dev withdraw ether from the account to a target account\n\n        @param _to      account to receive the ether\n        @param _amount  amount of ether to withdraw\n    */\n    function withdrawTo(address _to, uint256 _amount)\n        public\n        notThis(_to)\n    {\n        balanceOf[msg.sender] = balanceOf[msg.sender].sub(_amount); // deduct the amount from the account balance\n        totalSupply = totalSupply.sub(_amount); // decrease the total supply\n        _to.transfer(_amount); // send the amount to the target account\n\n        emit Transfer(msg.sender, this, _amount);\n        emit Destruction(_amount);\n    }\n\n    // ERC20 standard method overrides with some extra protection\n\n    /**\n        @dev send coins\n        throws on any error rather then return a false flag to minimize user errors\n\n        @param _to      target address\n        @param _value   transfer amount\n\n        @return true if the transfer was successful, false if it wasn't\n    */\n    function transfer(address _to, uint256 _value)\n        public\n        notThis(_to)\n        returns (bool success)\n    {\n        assert(super.transfer(_to, _value));\n        return true;\n    }\n\n    /**\n        @dev an account/contract attempts to get the coins\n        throws on any error rather then return a false flag to minimize user errors\n\n        @param _from    source address\n        @param _to      target address\n        @param _value   transfer amount\n\n        @return true if the transfer was successful, false if it wasn't\n    */\n    function transferFrom(address _from, address _to, uint256 _value)\n        public\n        notThis(_to)\n        returns (bool success)\n    {\n        assert(super.transferFrom(_from, _to, _value));\n        return true;\n    }\n\n    /**\n        @dev deposit ether in the account\n    */\n    function() public payable {\n        deposit();\n    }\n}\n",
  "sourcePath": "/home/lash/src/ext/sempo/contracts/solidity/contracts/token/EtherToken.sol",
  "compiler": {
    "name": "solc",
    "version": "0.4.26+commit.4563c3fc.Emscripten.clang"
  },
  "schemaVersion": "3.0.11",
  "updatedAt": "2020-02-26T09:32:34.256Z",
  "devdoc": {
    "methods": {
      "acceptOwnership()": {
        "details": "used by a new owner to accept an ownership transfer"
      },
      "approve(address,uint256)": {
        "details": "allow another account/contract to spend some tokens on your behalf throws on any error rather then return a false flag to minimize user errors also, to minimize the risk of the approve/transferFrom attack vector (see https://docs.google.com/document/d/1YLPtQxZu1UAvO9cZ1O2RPXBbT0mooh4DYKjA_jp-RLM/), approve has to be called twice in 2 separate transactions - once to change the allowance to 0 and secondly to change it to the new allowance value",
        "params": {
          "_spender": "approved address",
          "_value": "allowance amount"
        },
        "return": "true if the approval was successful, false if it wasn't"
      },
      "deposit()": {
        "details": "deposit ether in the account"
      },
      "transfer(address,uint256)": {
        "details": "send coins throws on any error rather then return a false flag to minimize user errors",
        "params": {
          "_to": "target address",
          "_value": "transfer amount"
        },
        "return": "true if the transfer was successful, false if it wasn't"
      },
      "transferFrom(address,address,uint256)": {
        "details": "an account/contract attempts to get the coins throws on any error rather then return a false flag to minimize user errors",
        "params": {
          "_from": "source address",
          "_to": "target address",
          "_value": "transfer amount"
        },
        "return": "true if the transfer was successful, false if it wasn't"
      },
      "transferOwnership(address)": {
        "details": "allows transferring the contract ownership the new owner still needs to accept the transfer can only be called by the contract owner",
        "params": {
          "_newOwner": "new contract owner"
        }
      },
      "withdraw(uint256)": {
        "details": "withdraw ether from the account",
        "params": {
          "_amount": "amount of ether to withdraw"
        }
      },
      "withdrawTo(address,uint256)": {
        "details": "withdraw ether from the account to a target account",
        "params": {
          "_amount": "amount of ether to withdraw",
          "_to": "account to receive the ether"
        }
      },
      "withdrawTokens(address,address,uint256)": {
        "details": "withdraws tokens held by the contract and sends them to an account can only be called by the owner",
        "params": {
          "_amount": "amount to withdraw",
          "_to": "account to receive the new amount",
          "_token": "ERC20 token contract address"
        }
      }
    }
  },
  "userdoc": {
    "methods": {}
  }
}