{
  "contractName": "FooToken",
  "abi": [
    {
      "constant": true,
      "inputs": [],
      "name": "name",
      "outputs": [
        {
          "name": "",
          "type": "string"
        }
      ],
      "payable": false,
      "stateMutability": "view",
      "type": "function"
    },
    {
      "constant": false,
      "inputs": [
        {
          "name": "_spender",
          "type": "address"
        },
        {
          "name": "_value",
          "type": "uint256"
        }
      ],
      "name": "approve",
      "outputs": [
        {
          "name": "success",
          "type": "bool"
        }
      ],
      "payable": false,
      "stateMutability": "nonpayable",
      "type": "function"
    },
    {
      "constant": true,
      "inputs": [],
      "name": "totalSupply",
      "outputs": [
        {
          "name": "",
          "type": "uint256"
        }
      ],
      "payable": false,
      "stateMutability": "view",
      "type": "function"
    },
    {
      "constant": false,
      "inputs": [
        {
          "name": "_from",
          "type": "address"
        },
        {
          "name": "_to",
          "type": "address"
        },
        {
          "name": "_value",
          "type": "uint256"
        }
      ],
      "name": "transferFrom",
      "outputs": [
        {
          "name": "success",
          "type": "bool"
        }
      ],
      "payable": false,
      "stateMutability": "nonpayable",
      "type": "function"
    },
    {
      "constant": true,
      "inputs": [],
      "name": "decimals",
      "outputs": [
        {
          "name": "",
          "type": "uint8"
        }
      ],
      "payable": false,
      "stateMutability": "view",
      "type": "function"
    },
    {
      "constant": true,
      "inputs": [],
      "name": "standard",
      "outputs": [
        {
          "name": "",
          "type": "string"
        }
      ],
      "payable": false,
      "stateMutability": "view",
      "type": "function"
    },
    {
      "constant": false,
      "inputs": [
        {
          "name": "_token",
          "type": "address"
        },
        {
          "name": "_to",
          "type": "address"
        },
        {
          "name": "_amount",
          "type": "uint256"
        }
      ],
      "name": "withdrawTokens",
      "outputs": [],
      "payable": false,
      "stateMutability": "nonpayable",
      "type": "function"
    },
    {
      "constant": true,
      "inputs": [
        {
          "name": "",
          "type": "address"
        }
      ],
      "name": "balanceOf",
      "outputs": [
        {
          "name": "",
          "type": "uint256"
        }
      ],
      "payable": false,
      "stateMutability": "view",
      "type": "function"
    },
    {
      "constant": false,
      "inputs": [],
      "name": "acceptOwnership",
      "outputs": [],
      "payable": false,
      "stateMutability": "nonpayable",
      "type": "function"
    },
    {
      "constant": true,
      "inputs": [],
      "name": "owner",
      "outputs": [
        {
          "name": "",
          "type": "address"
        }
      ],
      "payable": false,
      "stateMutability": "view",
      "type": "function"
    },
    {
      "constant": true,
      "inputs": [],
      "name": "symbol",
      "outputs": [
        {
          "name": "",
          "type": "string"
        }
      ],
      "payable": false,
      "stateMutability": "view",
      "type": "function"
    },
    {
      "constant": false,
      "inputs": [
        {
          "name": "_to",
          "type": "address"
        },
        {
          "name": "_value",
          "type": "uint256"
        }
      ],
      "name": "transfer",
      "outputs": [
        {
          "name": "success",
          "type": "bool"
        }
      ],
      "payable": false,
      "stateMutability": "nonpayable",
      "type": "function"
    },
    {
      "constant": true,
      "inputs": [],
      "name": "newOwner",
      "outputs": [
        {
          "name": "",
          "type": "address"
        }
      ],
      "payable": false,
      "stateMutability": "view",
      "type": "function"
    },
    {
      "constant": true,
      "inputs": [
        {
          "name": "",
          "type": "address"
        },
        {
          "name": "",
          "type": "address"
        }
      ],
      "name": "allowance",
      "outputs": [
        {
          "name": "",
          "type": "uint256"
        }
      ],
      "payable": false,
      "stateMutability": "view",
      "type": "function"
    },
    {
      "constant": false,
      "inputs": [
        {
          "name": "_newOwner",
          "type": "address"
        }
      ],
      "name": "transferOwnership",
      "outputs": [],
      "payable": false,
      "stateMutability": "nonpayable",
      "type": "function"
    },
    {
      "inputs": [
        {
          "name": "_name",
          "type": "string"
        },
        {
          "name": "_symbol",
          "type": "string"
        },
        {
          "name": "_decimals",
          "type": "uint8"
        },
        {
          "name": "_supply",
          "type": "uint256"
        }
      ],
      "payable": false,
      "stateMutability": "nonpayable",
      "type": "constructor"
    },
    {
      "anonymous": false,
      "inputs": [
        {
          "indexed": true,
          "name": "_from",
          "type": "address"
        },
        {
          "indexed": true,
          "name": "_to",
          "type": "address"
        },
        {
          "indexed": false,
          "name": "_value",
          "type": "uint256"
        }
      ],
      "name": "Transfer",
      "type": "event"
    },
    {
      "anonymous": false,
      "inputs": [
        {
          "indexed": true,
          "name": "_owner",
          "type": "address"
        },
        {
          "indexed": true,
          "name": "_spender",
          "type": "address"
        },
        {
          "indexed": false,
          "name": "_value",
          "type": "uint256"
        }
      ],
      "name": "Approval",
      "type": "event"
    },
    {
      "anonymous": false,
      "inputs": [
        {
          "indexed": true,
          "name": "_prevOwner",
          "type": "address"
        },
        {
          "indexed": true,
          "name": "_newOwner",
          "type": "address"
        }
      ],
      "name": "OwnerUpdate",
      "type": "event"
    }
  ],
  "bytecode": "0x60c0604052600960808190527f546f6b656e20302e31000000000000000000000000000000000000000000000060a0908152620000409160029190620001cd565b506040805160208101918290526000908190526200006191600391620001cd565b506040805160208101918290526000908190526200008291600491620001cd565b506005805460ff1916905560006006553480156200009f57600080fd5b506040516200103e3803806200103e8339810160409081528151602083015191830151606084015160008054600160a060020a0319163317815592850180519095949094019391929091859185918591108015620000fe575060008251115b15156200016c57604080517f08c379a000000000000000000000000000000000000000000000000000000000815260206004820152600660248201527f6536396437360000000000000000000000000000000000000000000000000000604482015290519081900360640190fd5b825162000181906003906020860190620001cd565b50815162000197906004906020850190620001cd565b506005805460ff191660ff9290921691909117905550503360009081526007602052604090208190556006555062000272915050565b828054600181600116156101000203166002900490600052602060002090601f016020900481019282601f106200021057805160ff191683800117855562000240565b8280016001018555821562000240579182015b828111156200024057825182559160200191906001019062000223565b506200024e92915062000252565b5090565b6200026f91905b808211156200024e576000815560010162000259565b90565b610dbc80620002826000396000f3006080604052600436106100da5763ffffffff7c010000000000000000000000000000000000000000000000000000000060003504166306fdde0381146100df578063095ea7b31461016957806318160ddd146101a157806323b872dd146101c8578063313ce567146101f25780635a3b7e421461021d5780635e35359e1461023257806370a082311461025e57806379ba50971461027f5780638da5cb5b1461029457806395d89b41146102c5578063a9059cbb146102da578063d4ee1d90146102fe578063dd62ed3e14610313578063f2fde38b1461033a575b600080fd5b3480156100eb57600080fd5b506100f461035b565b6040805160208082528351818301528351919283929083019185019080838360005b8381101561012e578181015183820152602001610116565b50505050905090810190601f16801561015b5780820380516001836020036101000a031916815260200191505b509250505060405180910390f35b34801561017557600080fd5b5061018d600160a060020a03600435166024356103e9565b604080519115158252519081900360200190f35b3480156101ad57600080fd5b506101b6610526565b60408051918252519081900360200190f35b3480156101d457600080fd5b5061018d600160a060020a036004358116906024351660443561052c565b3480156101fe57600080fd5b506102076106d9565b6040805160ff9092168252519081900360200190f35b34801561022957600080fd5b506100f46106e2565b34801561023e57600080fd5b5061025c600160a060020a036004358116906024351660443561073a565b005b34801561026a57600080fd5b506101b6600160a060020a0360043516610938565b34801561028b57600080fd5b5061025c61094a565b3480156102a057600080fd5b506102a9610a1d565b60408051600160a060020a039092168252519081900360200190f35b3480156102d157600080fd5b506100f4610a2c565b3480156102e657600080fd5b5061018d600160a060020a0360043516602435610a87565b34801561030a57600080fd5b506102a9610b89565b34801561031f57600080fd5b506101b6600160a060020a0360043581169060243516610b98565b34801561034657600080fd5b5061025c600160a060020a0360043516610bb5565b6003805460408051602060026001851615610100026000190190941693909304601f810184900484028201840190925281815292918301828280156103e15780601f106103b6576101008083540402835291602001916103e1565b820191906000526020600020905b8154815290600101906020018083116103c457829003601f168201915b505050505081565b600082600160a060020a038116151561043a576040805160e560020a62461bcd0281526020600482015260066024820152600080516020610d71833981519152604482015290519081900360640190fd5b8215806104685750336000908152600860209081526040808320600160a060020a0388168452909152902054155b15156104be576040805160e560020a62461bcd02815260206004820152600660248201527f3335303363650000000000000000000000000000000000000000000000000000604482015290519081900360640190fd5b336000818152600860209081526040808320600160a060020a03891680855290835292819020879055805187815290519293927f8c5be1e5ebec7d5bd14f71427d1e84f3dd0314c0f7b2291e5b200ac8c7c3b925929181900390910190a35060019392505050565b60065481565b600083600160a060020a038116151561057d576040805160e560020a62461bcd0281526020600482015260066024820152600080516020610d71833981519152604482015290519081900360640190fd5b83600160a060020a03811615156105cc576040805160e560020a62461bcd0281526020600482015260066024820152600080516020610d71833981519152604482015290519081900360640190fd5b600160a060020a0386166000908152600860209081526040808320338452909152902054610600908563ffffffff610cac16565b600160a060020a038716600081815260086020908152604080832033845282528083209490945591815260079091522054610641908563ffffffff610cac16565b600160a060020a038088166000908152600760205260408082209390935590871681522054610676908563ffffffff610d0c16565b600160a060020a0380871660008181526007602090815260409182902094909455805188815290519193928a16927fddf252ad1be2c89b69c2b068fc378daa952ba7f163c4a11628f55a4df523b3ef92918290030190a350600195945050505050565b60055460ff1681565b6002805460408051602060018416156101000260001901909316849004601f810184900484028201840190925281815292918301828280156103e15780601f106103b6576101008083540402835291602001916103e1565b600054600160a060020a0316331461079c576040805160e560020a62461bcd02815260206004820152600660248201527f6537313239330000000000000000000000000000000000000000000000000000604482015290519081900360640190fd5b82600160a060020a03811615156107eb576040805160e560020a62461bcd0281526020600482015260066024820152600080516020610d71833981519152604482015290519081900360640190fd5b82600160a060020a038116151561083a576040805160e560020a62461bcd0281526020600482015260066024820152600080516020610d71833981519152604482015290519081900360640190fd5b83600160a060020a03811630141561089c576040805160e560020a62461bcd02815260206004820152600660248201527f6665323738630000000000000000000000000000000000000000000000000000604482015290519081900360640190fd5b85600160a060020a031663a9059cbb86866040518363ffffffff167c01000000000000000000000000000000000000000000000000000000000281526004018083600160a060020a0316600160a060020a0316815260200182815260200192505050600060405180830381600087803b15801561091857600080fd5b505af115801561092c573d6000803e3d6000fd5b50505050505050505050565b60076020526000908152604090205481565b600154600160a060020a031633146109ac576040805160e560020a62461bcd02815260206004820152600660248201527f6639373561650000000000000000000000000000000000000000000000000000604482015290519081900360640190fd5b60015460008054604051600160a060020a0393841693909116917f343765429aea5a34b3ff6a3785a98a5abb2597aca87bfbb58632c173d585373a91a3600180546000805473ffffffffffffffffffffffffffffffffffffffff19908116600160a060020a03841617909155169055565b600054600160a060020a031681565b6004805460408051602060026001851615610100026000190190941693909304601f810184900484028201840190925281815292918301828280156103e15780601f106103b6576101008083540402835291602001916103e1565b600082600160a060020a0381161515610ad8576040805160e560020a62461bcd0281526020600482015260066024820152600080516020610d71833981519152604482015290519081900360640190fd5b33600090815260076020526040902054610af8908463ffffffff610cac16565b3360009081526007602052604080822092909255600160a060020a03861681522054610b2a908463ffffffff610d0c16565b600160a060020a0385166000818152600760209081526040918290209390935580518681529051919233927fddf252ad1be2c89b69c2b068fc378daa952ba7f163c4a11628f55a4df523b3ef9281900390910190a35060019392505050565b600154600160a060020a031681565b600860209081526000928352604080842090915290825290205481565b600054600160a060020a03163314610c17576040805160e560020a62461bcd02815260206004820152600660248201527f6537313239330000000000000000000000000000000000000000000000000000604482015290519081900360640190fd5b600054600160a060020a0382811691161415610c7d576040805160e560020a62461bcd02815260206004820152600660248201527f6632306333390000000000000000000000000000000000000000000000000000604482015290519081900360640190fd5b6001805473ffffffffffffffffffffffffffffffffffffffff1916600160a060020a0392909216919091179055565b600081831015610d06576040805160e560020a62461bcd02815260206004820152600660248201527f3530646533390000000000000000000000000000000000000000000000000000604482015290519081900360640190fd5b50900390565b600082820183811015610d69576040805160e560020a62461bcd02815260206004820152600660248201527f3232613836390000000000000000000000000000000000000000000000000000604482015290519081900360640190fd5b939250505056003335373839660000000000000000000000000000000000000000000000000000a165627a7a7230582022567ca37dc962465cfe05fe989279c69505aba115d0b6b130187d5a45c18be30029",
  "source": "pragma solidity ^0.4.24;\nimport '../token/ERC20Token.sol';\nimport '../utility/Owned.sol';\nimport '../utility/TokenHolder.sol';\nimport '../utility/SafeMath.sol';\n\n/**\n    @dev Totally fictious money contract, for testing\n\n    'Owned' is specified here for readability reasons\n*/\ncontract FooToken is Owned, ERC20Token, TokenHolder {\n    using SafeMath for uint256;\n\n    /**\n        @dev initializes a new FooToken instance\n    */\n    constructor(string _name, string _symbol, uint8 _decimals, uint256 _supply)\n        public\n        ERC20Token(_name, _symbol, _decimals)\n    {\n        balanceOf[msg.sender] = _supply; // add the value to the account balance\n        totalSupply = _supply; // increase the total supply\n    }\n\n}\n",
  "sourcePath": "/home/lash/src/ext/sempo/contracts/solidity/contracts/aux/FooToken.sol",
  "compiler": {
    "name": "solc",
    "version": "0.4.26+commit.4563c3fc.Emscripten.clang"
  },
  "schemaVersion": "3.0.11",
  "updatedAt": "2020-02-26T09:32:34.085Z",
  "devdoc": {
    "methods": {
      "acceptOwnership()": {
        "details": "used by a new owner to accept an ownership transfer"
      },
      "approve(address,uint256)": {
        "details": "allow another account/contract to spend some tokens on your behalf throws on any error rather then return a false flag to minimize user errors also, to minimize the risk of the approve/transferFrom attack vector (see https://docs.google.com/document/d/1YLPtQxZu1UAvO9cZ1O2RPXBbT0mooh4DYKjA_jp-RLM/), approve has to be called twice in 2 separate transactions - once to change the allowance to 0 and secondly to change it to the new allowance value",
        "params": {
          "_spender": "approved address",
          "_value": "allowance amount"
        },
        "return": "true if the approval was successful, false if it wasn't"
      },
      "transfer(address,uint256)": {
        "details": "send coins throws on any error rather then return a false flag to minimize user errors",
        "params": {
          "_to": "target address",
          "_value": "transfer amount"
        },
        "return": "true if the transfer was successful, false if it wasn't"
      },
      "transferFrom(address,address,uint256)": {
        "details": "an account/contract attempts to get the coins throws on any error rather then return a false flag to minimize user errors",
        "params": {
          "_from": "source address",
          "_to": "target address",
          "_value": "transfer amount"
        },
        "return": "true if the transfer was successful, false if it wasn't"
      },
      "transferOwnership(address)": {
        "details": "allows transferring the contract ownership the new owner still needs to accept the transfer can only be called by the contract owner",
        "params": {
          "_newOwner": "new contract owner"
        }
      },
      "withdrawTokens(address,address,uint256)": {
        "details": "withdraws tokens held by the contract and sends them to an account can only be called by the owner",
        "params": {
          "_amount": "amount to withdraw",
          "_to": "account to receive the new amount",
          "_token": "ERC20 token contract address"
        }
      }
    }
  },
  "userdoc": {
    "methods": {}
  }
}