{
  "contractName": "Managed",
  "abi": [
    {
      "constant": true,
      "inputs": [],
      "name": "newManager",
      "outputs": [
        {
          "name": "",
          "type": "address"
        }
      ],
      "payable": false,
      "stateMutability": "view",
      "type": "function"
    },
    {
      "constant": true,
      "inputs": [],
      "name": "manager",
      "outputs": [
        {
          "name": "",
          "type": "address"
        }
      ],
      "payable": false,
      "stateMutability": "view",
      "type": "function"
    },
    {
      "constant": false,
      "inputs": [],
      "name": "acceptOwnership",
      "outputs": [],
      "payable": false,
      "stateMutability": "nonpayable",
      "type": "function"
    },
    {
      "constant": true,
      "inputs": [],
      "name": "owner",
      "outputs": [
        {
          "name": "",
          "type": "address"
        }
      ],
      "payable": false,
      "stateMutability": "view",
      "type": "function"
    },
    {
      "constant": true,
      "inputs": [],
      "name": "newOwner",
      "outputs": [
        {
          "name": "",
          "type": "address"
        }
      ],
      "payable": false,
      "stateMutability": "view",
      "type": "function"
    },
    {
      "constant": false,
      "inputs": [
        {
          "name": "_newOwner",
          "type": "address"
        }
      ],
      "name": "transferOwnership",
      "outputs": [],
      "payable": false,
      "stateMutability": "nonpayable",
      "type": "function"
    },
    {
      "inputs": [],
      "payable": false,
      "stateMutability": "nonpayable",
      "type": "constructor"
    },
    {
      "anonymous": false,
      "inputs": [
        {
          "indexed": true,
          "name": "_prevManager",
          "type": "address"
        },
        {
          "indexed": true,
          "name": "_newManager",
          "type": "address"
        }
      ],
      "name": "ManagerUpdate",
      "type": "event"
    },
    {
      "anonymous": false,
      "inputs": [
        {
          "indexed": true,
          "name": "_prevOwner",
          "type": "address"
        },
        {
          "indexed": true,
          "name": "_newOwner",
          "type": "address"
        }
      ],
      "name": "OwnerUpdate",
      "type": "event"
    },
    {
      "constant": false,
      "inputs": [
        {
          "name": "_newManager",
          "type": "address"
        }
      ],
      "name": "transferManagement",
      "outputs": [],
      "payable": false,
      "stateMutability": "nonpayable",
      "type": "function"
    },
    {
      "constant": false,
      "inputs": [],
      "name": "acceptManagement",
      "outputs": [],
      "payable": false,
      "stateMutability": "nonpayable",
      "type": "function"
    }
  ],
  "bytecode": "0x608060405234801561001057600080fd5b506000805433600160a060020a0319918216811783556002805490921617905561058590819061004090396000f30060806040526004361061008d5763ffffffff7c0100000000000000000000000000000000000000000000000000000000600035041663429060298114610092578063481c6a75146100c357806379ba5097146100d85780638da5cb5b146100ef578063c8c2fe6c14610104578063d4ee1d9014610119578063e4edf8521461012e578063f2fde38b1461014f575b600080fd5b34801561009e57600080fd5b506100a7610170565b60408051600160a060020a039092168252519081900360200190f35b3480156100cf57600080fd5b506100a761017f565b3480156100e457600080fd5b506100ed61018e565b005b3480156100fb57600080fd5b506100a7610261565b34801561011057600080fd5b506100ed610270565b34801561012557600080fd5b506100a7610345565b34801561013a57600080fd5b506100ed600160a060020a0360043516610354565b34801561015b57600080fd5b506100ed600160a060020a0360043516610462565b600354600160a060020a031681565b600254600160a060020a031681565b600154600160a060020a031633146101f0576040805160e560020a62461bcd02815260206004820152600660248201527f6639373561650000000000000000000000000000000000000000000000000000604482015290519081900360640190fd5b60015460008054604051600160a060020a0393841693909116917f343765429aea5a34b3ff6a3785a98a5abb2597aca87bfbb58632c173d585373a91a3600180546000805473ffffffffffffffffffffffffffffffffffffffff19908116600160a060020a03841617909155169055565b600054600160a060020a031681565b600354600160a060020a031633146102d2576040805160e560020a62461bcd02815260206004820152600660248201527f3030323539300000000000000000000000000000000000000000000000000000604482015290519081900360640190fd5b600354600254604051600160a060020a0392831692909116907fbe4cc281795971a471c980e842627a7f1ea3892ddfce8c5b6357cd2611c1973290600090a3600380546002805473ffffffffffffffffffffffffffffffffffffffff19908116600160a060020a03841617909155169055565b600154600160a060020a031681565b600054600160a060020a03163314806103775750600254600160a060020a031633145b15156103cd576040805160e560020a62461bcd02815260206004820152600660248201527f3063333635640000000000000000000000000000000000000000000000000000604482015290519081900360640190fd5b600254600160a060020a0382811691161415610433576040805160e560020a62461bcd02815260206004820152600660248201527f6537346166300000000000000000000000000000000000000000000000000000604482015290519081900360640190fd5b6003805473ffffffffffffffffffffffffffffffffffffffff1916600160a060020a0392909216919091179055565b600054600160a060020a031633146104c4576040805160e560020a62461bcd02815260206004820152600660248201527f6537313239330000000000000000000000000000000000000000000000000000604482015290519081900360640190fd5b600054600160a060020a038281169116141561052a576040805160e560020a62461bcd02815260206004820152600660248201527f6632306333390000000000000000000000000000000000000000000000000000604482015290519081900360640190fd5b6001805473ffffffffffffffffffffffffffffffffffffffff1916600160a060020a03929092169190911790555600a165627a7a7230582080d5a34670337443211bebabb5074a4fdaef899c24cc264f5ca957ab1e5e0b610029",
  "source": "pragma solidity ^0.4.24;\nimport './Owned.sol';\n\n/**\n    @dev Provides support and utilities for contract management\n    Note that a managed contract must also have an owner\n*/\ncontract Managed is Owned {\n    address public manager;\n    address public newManager;\n\n    /**\n        @dev triggered when the manager is updated\n\n        @param _prevManager previous manager\n        @param _newManager  new manager\n    */\n    event ManagerUpdate(address indexed _prevManager, address indexed _newManager);\n\n    /**\n        @dev initializes a new Managed instance\n    */\n    constructor() public {\n        manager = msg.sender;\n    }\n\n    // allows execution by the manager only\n    modifier managerOnly {\n        assert(msg.sender == manager);\n        _;\n    }\n\n    // allows execution by either the owner or the manager only\n    modifier ownerOrManagerOnly {\n        require(msg.sender == owner || msg.sender == manager, '0c365d');\n        _;\n    }\n\n    /**\n        @dev allows transferring the contract management\n        the new manager still needs to accept the transfer\n        can only be called by the contract manager\n\n        @param _newManager    new contract manager\n    */\n    function transferManagement(address _newManager) public ownerOrManagerOnly {\n        require(_newManager != manager, 'e74af0');\n        newManager = _newManager;\n    }\n\n    /**\n        @dev used by a new manager to accept a management transfer\n    */\n    function acceptManagement() public {\n        require(msg.sender == newManager, '002590');\n        emit ManagerUpdate(manager, newManager);\n        manager = newManager;\n        newManager = address(0);\n    }\n}\n",
  "sourcePath": "/home/lash/src/ext/sempo/contracts/solidity/contracts/utility/Managed.sol",
  "compiler": {
    "name": "solc",
    "version": "0.4.26+commit.4563c3fc.Emscripten.clang"
  },
  "schemaVersion": "3.0.11",
  "updatedAt": "2020-02-26T09:32:34.278Z",
  "devdoc": {
    "methods": {
      "acceptManagement()": {
        "details": "used by a new manager to accept a management transfer"
      },
      "acceptOwnership()": {
        "details": "used by a new owner to accept an ownership transfer"
      },
      "transferManagement(address)": {
        "details": "allows transferring the contract management the new manager still needs to accept the transfer can only be called by the contract manager",
        "params": {
          "_newManager": "new contract manager"
        }
      },
      "transferOwnership(address)": {
        "details": "allows transferring the contract ownership the new owner still needs to accept the transfer can only be called by the contract owner",
        "params": {
          "_newOwner": "new contract owner"
        }
      }
    }
  },
  "userdoc": {
    "methods": {}
  }
}