{
  "contractName": "NonStandardSmartToken",
  "abi": [
    {
      "constant": true,
      "inputs": [],
      "name": "name",
      "outputs": [
        {
          "name": "",
          "type": "string"
        }
      ],
      "payable": false,
      "stateMutability": "view",
      "type": "function"
    },
    {
      "constant": false,
      "inputs": [
        {
          "name": "_spender",
          "type": "address"
        },
        {
          "name": "_value",
          "type": "uint256"
        }
      ],
      "name": "approve",
      "outputs": [],
      "payable": false,
      "stateMutability": "nonpayable",
      "type": "function"
    },
    {
      "constant": true,
      "inputs": [],
      "name": "totalSupply",
      "outputs": [
        {
          "name": "",
          "type": "uint256"
        }
      ],
      "payable": false,
      "stateMutability": "view",
      "type": "function"
    },
    {
      "constant": true,
      "inputs": [],
      "name": "decimals",
      "outputs": [
        {
          "name": "",
          "type": "uint8"
        }
      ],
      "payable": false,
      "stateMutability": "view",
      "type": "function"
    },
    {
      "constant": true,
      "inputs": [],
      "name": "version",
      "outputs": [
        {
          "name": "",
          "type": "string"
        }
      ],
      "payable": false,
      "stateMutability": "view",
      "type": "function"
    },
    {
      "constant": true,
      "inputs": [],
      "name": "standard",
      "outputs": [
        {
          "name": "",
          "type": "string"
        }
      ],
      "payable": false,
      "stateMutability": "view",
      "type": "function"
    },
    {
      "constant": true,
      "inputs": [
        {
          "name": "",
          "type": "address"
        }
      ],
      "name": "balanceOf",
      "outputs": [
        {
          "name": "",
          "type": "uint256"
        }
      ],
      "payable": false,
      "stateMutability": "view",
      "type": "function"
    },
    {
      "constant": false,
      "inputs": [],
      "name": "acceptOwnership",
      "outputs": [],
      "payable": false,
      "stateMutability": "nonpayable",
      "type": "function"
    },
    {
      "constant": true,
      "inputs": [],
      "name": "owner",
      "outputs": [
        {
          "name": "",
          "type": "address"
        }
      ],
      "payable": false,
      "stateMutability": "view",
      "type": "function"
    },
    {
      "constant": true,
      "inputs": [],
      "name": "symbol",
      "outputs": [
        {
          "name": "",
          "type": "string"
        }
      ],
      "payable": false,
      "stateMutability": "view",
      "type": "function"
    },
    {
      "constant": true,
      "inputs": [],
      "name": "transfersEnabled",
      "outputs": [
        {
          "name": "",
          "type": "bool"
        }
      ],
      "payable": false,
      "stateMutability": "view",
      "type": "function"
    },
    {
      "constant": true,
      "inputs": [],
      "name": "newOwner",
      "outputs": [
        {
          "name": "",
          "type": "address"
        }
      ],
      "payable": false,
      "stateMutability": "view",
      "type": "function"
    },
    {
      "constant": true,
      "inputs": [
        {
          "name": "",
          "type": "address"
        },
        {
          "name": "",
          "type": "address"
        }
      ],
      "name": "allowance",
      "outputs": [
        {
          "name": "",
          "type": "uint256"
        }
      ],
      "payable": false,
      "stateMutability": "view",
      "type": "function"
    },
    {
      "constant": false,
      "inputs": [
        {
          "name": "_newOwner",
          "type": "address"
        }
      ],
      "name": "transferOwnership",
      "outputs": [],
      "payable": false,
      "stateMutability": "nonpayable",
      "type": "function"
    },
    {
      "inputs": [
        {
          "name": "_name",
          "type": "string"
        },
        {
          "name": "_symbol",
          "type": "string"
        },
        {
          "name": "_decimals",
          "type": "uint8"
        }
      ],
      "payable": false,
      "stateMutability": "nonpayable",
      "type": "constructor"
    },
    {
      "anonymous": false,
      "inputs": [
        {
          "indexed": false,
          "name": "_token",
          "type": "address"
        }
      ],
      "name": "NewSmartToken",
      "type": "event"
    },
    {
      "anonymous": false,
      "inputs": [
        {
          "indexed": false,
          "name": "_amount",
          "type": "uint256"
        }
      ],
      "name": "Issuance",
      "type": "event"
    },
    {
      "anonymous": false,
      "inputs": [
        {
          "indexed": false,
          "name": "_amount",
          "type": "uint256"
        }
      ],
      "name": "Destruction",
      "type": "event"
    },
    {
      "anonymous": false,
      "inputs": [
        {
          "indexed": true,
          "name": "_from",
          "type": "address"
        },
        {
          "indexed": true,
          "name": "_to",
          "type": "address"
        },
        {
          "indexed": false,
          "name": "_value",
          "type": "uint256"
        }
      ],
      "name": "Transfer",
      "type": "event"
    },
    {
      "anonymous": false,
      "inputs": [
        {
          "indexed": true,
          "name": "_owner",
          "type": "address"
        },
        {
          "indexed": true,
          "name": "_spender",
          "type": "address"
        },
        {
          "indexed": false,
          "name": "_value",
          "type": "uint256"
        }
      ],
      "name": "Approval",
      "type": "event"
    },
    {
      "anonymous": false,
      "inputs": [
        {
          "indexed": true,
          "name": "_prevOwner",
          "type": "address"
        },
        {
          "indexed": true,
          "name": "_newOwner",
          "type": "address"
        }
      ],
      "name": "OwnerUpdate",
      "type": "event"
    },
    {
      "constant": false,
      "inputs": [
        {
          "name": "_disable",
          "type": "bool"
        }
      ],
      "name": "disableTransfers",
      "outputs": [],
      "payable": false,
      "stateMutability": "nonpayable",
      "type": "function"
    },
    {
      "constant": false,
      "inputs": [
        {
          "name": "_to",
          "type": "address"
        },
        {
          "name": "_amount",
          "type": "uint256"
        }
      ],
      "name": "issue",
      "outputs": [],
      "payable": false,
      "stateMutability": "nonpayable",
      "type": "function"
    },
    {
      "constant": false,
      "inputs": [
        {
          "name": "_from",
          "type": "address"
        },
        {
          "name": "_amount",
          "type": "uint256"
        }
      ],
      "name": "destroy",
      "outputs": [],
      "payable": false,
      "stateMutability": "nonpayable",
      "type": "function"
    },
    {
      "constant": false,
      "inputs": [
        {
          "name": "_to",
          "type": "address"
        },
        {
          "name": "_value",
          "type": "uint256"
        }
      ],
      "name": "transfer",
      "outputs": [],
      "payable": false,
      "stateMutability": "nonpayable",
      "type": "function"
    },
    {
      "constant": false,
      "inputs": [
        {
          "name": "_from",
          "type": "address"
        },
        {
          "name": "_to",
          "type": "address"
        },
        {
          "name": "_value",
          "type": "uint256"
        }
      ],
      "name": "transferFrom",
      "outputs": [],
      "payable": false,
      "stateMutability": "nonpayable",
      "type": "function"
    }
  ],
  "bytecode": "0x60c0604052600960808190527f546f6b656e20302e31000000000000000000000000000000000000000000000060a090815262000040916002919062000238565b50604080516020810191829052600090819052620000619160039162000238565b50604080516020810191829052600090819052620000829160049162000238565b506005805460ff1916905560006006556040805180820190915260038082527f302e3300000000000000000000000000000000000000000000000000000000006020909201918252620000d89160099162000238565b50600a805460ff19166001179055348015620000f357600080fd5b506040516200133e3803806200133e833981016040908152815160208301519183015160008054600160a060020a0319163317815591840180519094939093019290918491849184911180156200014b575060008251115b1515620001b957604080517f08c379a000000000000000000000000000000000000000000000000000000000815260206004820152600660248201527f3361656139320000000000000000000000000000000000000000000000000000604482015290519081900360640190fd5b8251620001ce90600390602086019062000238565b508151620001e490600490602085019062000238565b506005805460ff90921660ff1990921691909117905550506040805130815290517ff4cd1f8571e8d9c97ffcb81558807ab73f9803d54de5da6a0420593c82a4a9f09181900360200190a1505050620002dd565b828054600181600116156101000203166002900490600052602060002090601f016020900481019282601f106200027b57805160ff1916838001178555620002ab565b82800160010185558215620002ab579182015b82811115620002ab5782518255916020019190600101906200028e565b50620002b9929150620002bd565b5090565b620002da91905b80821115620002b95760008155600101620002c4565b90565b61105180620002ed6000396000f3006080604052600436106101065763ffffffff7c010000000000000000000000000000000000000000000000000000000060003504166306fdde03811461010b578063095ea7b3146101955780631608f18f146101bb57806318160ddd146101d557806323b872dd146101fc578063313ce5671461022657806354fd4d50146102515780635a3b7e421461026657806370a082311461027b57806379ba50971461029c578063867904b4146102b15780638da5cb5b146102d557806395d89b4114610306578063a24835d11461031b578063a9059cbb1461033f578063bef97c8714610363578063d4ee1d901461038c578063dd62ed3e146103a1578063f2fde38b146103c8575b600080fd5b34801561011757600080fd5b506101206103e9565b6040805160208082528351818301528351919283929083019185019080838360005b8381101561015a578181015183820152602001610142565b50505050905090810190601f1680156101875780820380516001836020036101000a031916815260200191505b509250505060405180910390f35b3480156101a157600080fd5b506101b9600160a060020a0360043516602435610477565b005b3480156101c757600080fd5b506101b960043515156105ad565b3480156101e157600080fd5b506101ea610621565b60408051918252519081900360200190f35b34801561020857600080fd5b506101b9600160a060020a0360043581169060243516604435610627565b34801561023257600080fd5b5061023b610645565b6040805160ff9092168252519081900360200190f35b34801561025d57600080fd5b5061012061064e565b34801561027257600080fd5b506101206106a9565b34801561028757600080fd5b506101ea600160a060020a0360043516610701565b3480156102a857600080fd5b506101b9610713565b3480156102bd57600080fd5b506101b9600160a060020a03600435166024356107e6565b3480156102e157600080fd5b506102ea6109be565b60408051600160a060020a039092168252519081900360200190f35b34801561031257600080fd5b506101206109cd565b34801561032757600080fd5b506101b9600160a060020a0360043516602435610a28565b34801561034b57600080fd5b506101b9600160a060020a0360043516602435610b5c565b34801561036f57600080fd5b50610378610b78565b604080519115158252519081900360200190f35b34801561039857600080fd5b506102ea610b81565b3480156103ad57600080fd5b506101ea600160a060020a0360043581169060243516610b90565b3480156103d457600080fd5b506101b9600160a060020a0360043516610bad565b6003805460408051602060026001851615610100026000190190941693909304601f8101849004840282018401909252818152929183018282801561046f5780601f106104445761010080835404028352916020019161046f565b820191906000526020600020905b81548152906001019060200180831161045257829003601f168201915b505050505081565b81600160a060020a03811615156104c6576040805160e560020a62461bcd0281526020600482015260066024820152600080516020610fe6833981519152604482015290519081900360640190fd5b8115806104f45750336000908152600860209081526040808320600160a060020a0387168452909152902054155b151561054a576040805160e560020a62461bcd02815260206004820152600660248201527f3566653634360000000000000000000000000000000000000000000000000000604482015290519081900360640190fd5b336000818152600860209081526040808320600160a060020a03881680855290835292819020869055805186815290519293927f8c5be1e5ebec7d5bd14f71427d1e84f3dd0314c0f7b2291e5b200ac8c7c3b925929181900390910190a3505050565b600054600160a060020a0316331461060f576040805160e560020a62461bcd02815260206004820152600660248201527f6537313239330000000000000000000000000000000000000000000000000000604482015290519081900360640190fd5b600a805460ff19169115919091179055565b60065481565b600a5460ff16151561063557fe5b610640838383610ca4565b505050565b60055460ff1681565b6009805460408051602060026001851615610100026000190190941693909304601f8101849004840282018401909252818152929183018282801561046f5780601f106104445761010080835404028352916020019161046f565b6002805460408051602060018416156101000260001901909316849004601f8101849004840282018401909252818152929183018282801561046f5780601f106104445761010080835404028352916020019161046f565b60076020526000908152604090205481565b600154600160a060020a03163314610775576040805160e560020a62461bcd02815260206004820152600660248201527f6639373561650000000000000000000000000000000000000000000000000000604482015290519081900360640190fd5b60015460008054604051600160a060020a0393841693909116917f343765429aea5a34b3ff6a3785a98a5abb2597aca87bfbb58632c173d585373a91a3600180546000805473ffffffffffffffffffffffffffffffffffffffff19908116600160a060020a03841617909155169055565b600054600160a060020a03163314610848576040805160e560020a62461bcd02815260206004820152600660248201527f6537313239330000000000000000000000000000000000000000000000000000604482015290519081900360640190fd5b81600160a060020a0381161515610897576040805160e560020a62461bcd0281526020600482015260066024820152600080516020610fe6833981519152604482015290519081900360640190fd5b82600160a060020a0381163014156108f9576040805160e560020a62461bcd02815260206004820152600660248201527f6665323738630000000000000000000000000000000000000000000000000000604482015290519081900360640190fd5b60065461090c908463ffffffff610e3816565b600655600160a060020a038416600090815260076020526040902054610938908463ffffffff610e3816565b600160a060020a03851660009081526007602090815260409182902092909255805185815290517f9386c90217c323f58030f9dadcbc938f807a940f4ff41cd4cead9562f5da7dc3929181900390910190a1604080518481529051600160a060020a0386169130916000805160206110068339815191529181900360200190a350505050565b600054600160a060020a031681565b6004805460408051602060026001851615610100026000190190941693909304601f8101849004840282018401909252818152929183018282801561046f5780601f106104445761010080835404028352916020019161046f565b33600160a060020a0383161480610a495750600054600160a060020a031633145b1515610a9f576040805160e560020a62461bcd02815260206004820152600660248201527f3832363766370000000000000000000000000000000000000000000000000000604482015290519081900360640190fd5b600160a060020a038216600090815260076020526040902054610ac8908263ffffffff610e9c16565b600160a060020a038316600090815260076020526040902055600654610af4908263ffffffff610e9c16565b6006556040805182815290513091600160a060020a038516916000805160206110068339815191529181900360200190a36040805182815290517f9a1b418bc061a5d80270261562e6986a35d995f8051145f277be16103abd34539181900360200190a15050565b600a5460ff161515610b6a57fe5b610b748282610efc565b5050565b600a5460ff1681565b600154600160a060020a031681565b600860209081526000928352604080842090915290825290205481565b600054600160a060020a03163314610c0f576040805160e560020a62461bcd02815260206004820152600660248201527f6537313239330000000000000000000000000000000000000000000000000000604482015290519081900360640190fd5b600054600160a060020a0382811691161415610c75576040805160e560020a62461bcd02815260206004820152600660248201527f6632306333390000000000000000000000000000000000000000000000000000604482015290519081900360640190fd5b6001805473ffffffffffffffffffffffffffffffffffffffff1916600160a060020a0392909216919091179055565b82600160a060020a0381161515610cf3576040805160e560020a62461bcd0281526020600482015260066024820152600080516020610fe6833981519152604482015290519081900360640190fd5b82600160a060020a0381161515610d42576040805160e560020a62461bcd0281526020600482015260066024820152600080516020610fe6833981519152604482015290519081900360640190fd5b600160a060020a0385166000908152600860209081526040808320338452909152902054610d76908463ffffffff610e9c16565b600160a060020a038616600081815260086020908152604080832033845282528083209490945591815260079091522054610db7908463ffffffff610e9c16565b600160a060020a038087166000908152600760205260408082209390935590861681522054610dec908463ffffffff610e3816565b600160a060020a03808616600081815260076020908152604091829020949094558051878152905191939289169260008051602061100683398151915292918290030190a35050505050565b600082820183811015610e95576040805160e560020a62461bcd02815260206004820152600660248201527f3232613836390000000000000000000000000000000000000000000000000000604482015290519081900360640190fd5b9392505050565b600081831015610ef6576040805160e560020a62461bcd02815260206004820152600660248201527f3530646533390000000000000000000000000000000000000000000000000000604482015290519081900360640190fd5b50900390565b81600160a060020a0381161515610f4b576040805160e560020a62461bcd0281526020600482015260066024820152600080516020610fe6833981519152604482015290519081900360640190fd5b33600090815260076020526040902054610f6b908363ffffffff610e9c16565b3360009081526007602052604080822092909255600160a060020a03851681522054610f9d908363ffffffff610e3816565b600160a060020a0384166000818152600760209081526040918290209390935580518581529051919233926000805160206110068339815191529281900390910190a350505056003335373839660000000000000000000000000000000000000000000000000000ddf252ad1be2c89b69c2b068fc378daa952ba7f163c4a11628f55a4df523b3efa165627a7a723058209541f47437e1dd8976b9c138a2c847137db677eb5d55ce94b05eb1ed8d6198970029",
  "source": "pragma solidity ^0.4.24;\nimport './NonStandardERC20Token.sol';\nimport './interfaces/INonStandardSmartToken.sol';\nimport '../utility/Owned.sol';\n\n/*\n    Smart Token v0.3\n\n    'Owned' is specified here for readability reasons\n*/\ncontract NonStandardSmartToken is INonStandardSmartToken, Owned, NonStandardERC20Token {\n    using SafeMath for uint256;\n\n\n    string public version = '0.3';\n\n    bool public transfersEnabled = true;    // true if transfer/transferFrom are enabled, false if not\n\n    // triggered when a smart token is deployed - the _token address is defined for forward compatibility, in case we want to trigger the event from a factory\n    event NewSmartToken(address _token);\n    // triggered when the total supply is increased\n    event Issuance(uint256 _amount);\n    // triggered when the total supply is decreased\n    event Destruction(uint256 _amount);\n\n    /**\n        @dev initializes a new NonStandardSmartToken instance\n\n        @param _name       token name\n        @param _symbol     token short symbol, minimum 1 character\n        @param _decimals   for display purposes only\n    */\n    constructor(string _name, string _symbol, uint8 _decimals)\n        public\n        NonStandardERC20Token(_name, _symbol, _decimals)\n    {\n        emit NewSmartToken(address(this));\n    }\n\n    // allows execution only when transfers aren't disabled\n    modifier transfersAllowed {\n        assert(transfersEnabled);\n        _;\n    }\n\n    /**\n        @dev disables/enables transfers\n        can only be called by the contract owner\n\n        @param _disable    true to disable transfers, false to enable them\n    */\n    function disableTransfers(bool _disable) public ownerOnly {\n        transfersEnabled = !_disable;\n    }\n\n    /**\n        @dev increases the token supply and sends the new tokens to an account\n        can only be called by the contract owner\n\n        @param _to         account to receive the new amount\n        @param _amount     amount to increase the supply by\n    */\n    function issue(address _to, uint256 _amount)\n        public\n        ownerOnly\n        validAddress(_to)\n        notThis(_to)\n    {\n        totalSupply = totalSupply.add(_amount);\n        balanceOf[_to] = balanceOf[_to].add(_amount);\n\n        emit Issuance(_amount);\n        emit Transfer(this, _to, _amount);\n    }\n\n    /**\n        @dev removes tokens from an account and decreases the token supply\n        can be called by the contract owner to destroy tokens from any account or by any holder to destroy tokens from his/her own account\n\n        @param _from       account to remove the amount from\n        @param _amount     amount to decrease the supply by\n    */\n    function destroy(address _from, uint256 _amount) public {\n        require(msg.sender == _from || msg.sender == owner, '8267f7'); // validate input\n\n        balanceOf[_from] = balanceOf[_from].sub(_amount);\n        totalSupply = totalSupply.sub(_amount);\n\n        emit Transfer(_from, this, _amount);\n        emit Destruction(_amount);\n    }\n\n    // ERC20 standard method overrides with some extra functionality\n\n    /**\n        @dev send coins\n        throws on any error rather then return a false flag to minimize user errors\n        in addition to the standard checks, the function throws if transfers are disabled\n\n        @param _to      target address\n        @param _value   transfer amount\n    */\n    function transfer(address _to, uint256 _value) public transfersAllowed {\n        super.transfer(_to, _value);\n    }\n\n    /**\n        @dev an account/contract attempts to get the coins\n        throws on any error rather then return a false flag to minimize user errors\n        in addition to the standard checks, the function throws if transfers are disabled\n\n        @param _from    source address\n        @param _to      target address\n        @param _value   transfer amount\n    */\n    function transferFrom(address _from, address _to, uint256 _value) public transfersAllowed {\n        super.transferFrom(_from, _to, _value);\n    }\n}\n",
  "sourcePath": "/home/lash/src/ext/sempo/contracts/solidity/contracts/helpers/NonStandardSmartToken.sol",
  "compiler": {
    "name": "solc",
    "version": "0.4.26+commit.4563c3fc.Emscripten.clang"
  },
  "schemaVersion": "3.0.11",
  "updatedAt": "2020-02-26T09:32:34.230Z",
  "devdoc": {
    "methods": {
      "acceptOwnership()": {
        "details": "used by a new owner to accept an ownership transfer"
      },
      "approve(address,uint256)": {
        "details": "allow another account/contract to spend some tokens on your behalf throws on any error rather then return a false flag to minimize user errors also, to minimize the risk of the approve/transferFrom attack vector (see https://docs.google.com/document/d/1YLPtQxZu1UAvO9cZ1O2RPXBbT0mooh4DYKjA_jp-RLM/), approve has to be called twice in 2 separate transactions - once to change the allowance to 0 and secondly to change it to the new allowance value",
        "params": {
          "_spender": "approved address",
          "_value": "allowance amount"
        },
        "return": "true if the approval was successful, false if it wasn't"
      },
      "destroy(address,uint256)": {
        "details": "removes tokens from an account and decreases the token supply can be called by the contract owner to destroy tokens from any account or by any holder to destroy tokens from his/her own account",
        "params": {
          "_amount": "amount to decrease the supply by",
          "_from": "account to remove the amount from"
        }
      },
      "disableTransfers(bool)": {
        "details": "disables/enables transfers can only be called by the contract owner",
        "params": {
          "_disable": "true to disable transfers, false to enable them"
        }
      },
      "issue(address,uint256)": {
        "details": "increases the token supply and sends the new tokens to an account can only be called by the contract owner",
        "params": {
          "_amount": "amount to increase the supply by",
          "_to": "account to receive the new amount"
        }
      },
      "transfer(address,uint256)": {
        "details": "send coins throws on any error rather then return a false flag to minimize user errors in addition to the standard checks, the function throws if transfers are disabled",
        "params": {
          "_to": "target address",
          "_value": "transfer amount"
        }
      },
      "transferFrom(address,address,uint256)": {
        "details": "an account/contract attempts to get the coins throws on any error rather then return a false flag to minimize user errors in addition to the standard checks, the function throws if transfers are disabled",
        "params": {
          "_from": "source address",
          "_to": "target address",
          "_value": "transfer amount"
        }
      },
      "transferOwnership(address)": {
        "details": "allows transferring the contract ownership the new owner still needs to accept the transfer can only be called by the contract owner",
        "params": {
          "_newOwner": "new contract owner"
        }
      }
    }
  },
  "userdoc": {
    "methods": {}
  }
}