{
  "contractName": "TestSafeMath",
  "abi": [
    {
      "inputs": [],
      "payable": false,
      "stateMutability": "nonpayable",
      "type": "constructor"
    },
    {
      "constant": true,
      "inputs": [
        {
          "name": "_x",
          "type": "uint256"
        },
        {
          "name": "_y",
          "type": "uint256"
        }
      ],
      "name": "testSafeAdd",
      "outputs": [
        {
          "name": "",
          "type": "uint256"
        }
      ],
      "payable": false,
      "stateMutability": "pure",
      "type": "function"
    },
    {
      "constant": true,
      "inputs": [
        {
          "name": "_x",
          "type": "uint256"
        },
        {
          "name": "_y",
          "type": "uint256"
        }
      ],
      "name": "testSafeSub",
      "outputs": [
        {
          "name": "",
          "type": "uint256"
        }
      ],
      "payable": false,
      "stateMutability": "pure",
      "type": "function"
    },
    {
      "constant": true,
      "inputs": [
        {
          "name": "_x",
          "type": "uint256"
        },
        {
          "name": "_y",
          "type": "uint256"
        }
      ],
      "name": "testSafeMul",
      "outputs": [
        {
          "name": "",
          "type": "uint256"
        }
      ],
      "payable": false,
      "stateMutability": "pure",
      "type": "function"
    }
  ],
  "bytecode": "0x608060405234801561001057600080fd5b506102ad806100206000396000f3006080604052600436106100565763ffffffff7c01000000000000000000000000000000000000000000000000000000006000350416639ee6ff70811461005b578063de47864c14610088578063ec0da330146100a3575b600080fd5b34801561006757600080fd5b506100766004356024356100be565b60408051918252519081900360200190f35b34801561009457600080fd5b506100766004356024356100d7565b3480156100af57600080fd5b506100766004356024356100e9565b60006100d0838363ffffffff6100fb16565b9392505050565b60006100d0838363ffffffff61019616565b60006100d0838363ffffffff61020a16565b60008083151561010e576000915061018f565b5082820282848281151561011e57fe5b041461018b57604080517f08c379a000000000000000000000000000000000000000000000000000000000815260206004820152600660248201527f6662653835310000000000000000000000000000000000000000000000000000604482015290519081900360640190fd5b8091505b5092915050565b60008282018381101561018b57604080517f08c379a000000000000000000000000000000000000000000000000000000000815260206004820152600660248201527f3232613836390000000000000000000000000000000000000000000000000000604482015290519081900360640190fd5b60008183101561027b57604080517f08c379a000000000000000000000000000000000000000000000000000000000815260206004820152600660248201527f3530646533390000000000000000000000000000000000000000000000000000604482015290519081900360640190fd5b509003905600a165627a7a72305820b12f9662bb9124a33ec6d7cd2059aec37889c76ef1469747c49bc77ae5f170510029",
  "source": "pragma solidity ^0.4.24;\nimport '../utility/SafeMath.sol';\n\n/*\n    Utils test helper that exposes the safe math functions\n*/\ncontract TestSafeMath {\n    using SafeMath for uint256;\n\n\n    constructor() public {\n    }\n\n    function testSafeAdd(uint256 _x, uint256 _y) public pure returns (uint256) {\n        return _x.add(_y);\n    }\n\n    function testSafeSub(uint256 _x, uint256 _y) public pure returns (uint256) {\n        return _x.sub(_y);\n    }\n\n    function testSafeMul(uint256 _x, uint256 _y) public pure returns (uint256) {\n        return _x.mul(_y);\n    }\n}\n",
  "sourcePath": "/home/lash/src/ext/sempo/contracts/solidity/contracts/helpers/TestSafeMath.sol",
  "compiler": {
    "name": "solc",
    "version": "0.4.26+commit.4563c3fc.Emscripten.clang"
  },
  "schemaVersion": "3.0.11",
  "updatedAt": "2020-02-26T09:32:34.247Z",
  "devdoc": {
    "methods": {}
  },
  "userdoc": {
    "methods": {}
  }
}