{
  "contractName": "TestCrowdsaleController",
  "abi": [
    {
      "constant": true,
      "inputs": [],
      "name": "BTCS_ETHER_CAP",
      "outputs": [
        {
          "name": "",
          "type": "uint256"
        }
      ],
      "payable": false,
      "stateMutability": "view",
      "type": "function"
    },
    {
      "constant": true,
      "inputs": [],
      "name": "TOKEN_PRICE_D",
      "outputs": [
        {
          "name": "",
          "type": "uint256"
        }
      ],
      "payable": false,
      "stateMutability": "view",
      "type": "function"
    },
    {
      "constant": false,
      "inputs": [],
      "name": "contributeETH",
      "outputs": [
        {
          "name": "amount",
          "type": "uint256"
        }
      ],
      "payable": true,
      "stateMutability": "payable",
      "type": "function"
    },
    {
      "constant": true,
      "inputs": [],
      "name": "DURATION",
      "outputs": [
        {
          "name": "",
          "type": "uint256"
        }
      ],
      "payable": false,
      "stateMutability": "view",
      "type": "function"
    },
    {
      "constant": true,
      "inputs": [
        {
          "name": "_contribution",
          "type": "uint256"
        }
      ],
      "name": "computeReturn",
      "outputs": [
        {
          "name": "",
          "type": "uint256"
        }
      ],
      "payable": false,
      "stateMutability": "pure",
      "type": "function"
    },
    {
      "constant": false,
      "inputs": [
        {
          "name": "_newOwner",
          "type": "address"
        }
      ],
      "name": "transferTokenOwnership",
      "outputs": [],
      "payable": false,
      "stateMutability": "nonpayable",
      "type": "function"
    },
    {
      "constant": true,
      "inputs": [],
      "name": "endTime",
      "outputs": [
        {
          "name": "",
          "type": "uint256"
        }
      ],
      "payable": false,
      "stateMutability": "view",
      "type": "function"
    },
    {
      "constant": true,
      "inputs": [],
      "name": "totalEtherCap",
      "outputs": [
        {
          "name": "",
          "type": "uint256"
        }
      ],
      "payable": false,
      "stateMutability": "view",
      "type": "function"
    },
    {
      "constant": false,
      "inputs": [],
      "name": "acceptTokenOwnership",
      "outputs": [],
      "payable": false,
      "stateMutability": "nonpayable",
      "type": "function"
    },
    {
      "constant": true,
      "inputs": [],
      "name": "beneficiary",
      "outputs": [
        {
          "name": "",
          "type": "address"
        }
      ],
      "payable": false,
      "stateMutability": "view",
      "type": "function"
    },
    {
      "constant": false,
      "inputs": [
        {
          "name": "_token",
          "type": "address"
        },
        {
          "name": "_to",
          "type": "address"
        },
        {
          "name": "_amount",
          "type": "uint256"
        }
      ],
      "name": "withdrawFromToken",
      "outputs": [],
      "payable": false,
      "stateMutability": "nonpayable",
      "type": "function"
    },
    {
      "constant": true,
      "inputs": [],
      "name": "TOKEN_PRICE_N",
      "outputs": [
        {
          "name": "",
          "type": "uint256"
        }
      ],
      "payable": false,
      "stateMutability": "view",
      "type": "function"
    },
    {
      "constant": true,
      "inputs": [],
      "name": "version",
      "outputs": [
        {
          "name": "",
          "type": "string"
        }
      ],
      "payable": false,
      "stateMutability": "view",
      "type": "function"
    },
    {
      "constant": false,
      "inputs": [
        {
          "name": "_token",
          "type": "address"
        },
        {
          "name": "_to",
          "type": "address"
        },
        {
          "name": "_amount",
          "type": "uint256"
        }
      ],
      "name": "withdrawTokens",
      "outputs": [],
      "payable": false,
      "stateMutability": "nonpayable",
      "type": "function"
    },
    {
      "constant": true,
      "inputs": [],
      "name": "startTime",
      "outputs": [
        {
          "name": "",
          "type": "uint256"
        }
      ],
      "payable": false,
      "stateMutability": "view",
      "type": "function"
    },
    {
      "constant": false,
      "inputs": [],
      "name": "acceptOwnership",
      "outputs": [],
      "payable": false,
      "stateMutability": "nonpayable",
      "type": "function"
    },
    {
      "constant": false,
      "inputs": [
        {
          "name": "_disable",
          "type": "bool"
        }
      ],
      "name": "disableTokenTransfers",
      "outputs": [],
      "payable": false,
      "stateMutability": "nonpayable",
      "type": "function"
    },
    {
      "constant": true,
      "inputs": [],
      "name": "owner",
      "outputs": [
        {
          "name": "",
          "type": "address"
        }
      ],
      "payable": false,
      "stateMutability": "view",
      "type": "function"
    },
    {
      "constant": true,
      "inputs": [],
      "name": "realEtherCapHash",
      "outputs": [
        {
          "name": "",
          "type": "bytes32"
        }
      ],
      "payable": false,
      "stateMutability": "view",
      "type": "function"
    },
    {
      "constant": false,
      "inputs": [
        {
          "name": "_cap",
          "type": "uint256"
        },
        {
          "name": "_key",
          "type": "uint256"
        }
      ],
      "name": "enableRealCap",
      "outputs": [],
      "payable": false,
      "stateMutability": "nonpayable",
      "type": "function"
    },
    {
      "constant": false,
      "inputs": [],
      "name": "contributeBTCs",
      "outputs": [
        {
          "name": "amount",
          "type": "uint256"
        }
      ],
      "payable": true,
      "stateMutability": "payable",
      "type": "function"
    },
    {
      "constant": true,
      "inputs": [],
      "name": "totalEtherContributed",
      "outputs": [
        {
          "name": "",
          "type": "uint256"
        }
      ],
      "payable": false,
      "stateMutability": "view",
      "type": "function"
    },
    {
      "constant": true,
      "inputs": [],
      "name": "btcs",
      "outputs": [
        {
          "name": "",
          "type": "address"
        }
      ],
      "payable": false,
      "stateMutability": "view",
      "type": "function"
    },
    {
      "constant": true,
      "inputs": [],
      "name": "newOwner",
      "outputs": [
        {
          "name": "",
          "type": "address"
        }
      ],
      "payable": false,
      "stateMutability": "view",
      "type": "function"
    },
    {
      "constant": true,
      "inputs": [
        {
          "name": "_cap",
          "type": "uint256"
        },
        {
          "name": "_key",
          "type": "uint256"
        }
      ],
      "name": "computeRealCap",
      "outputs": [
        {
          "name": "",
          "type": "bytes32"
        }
      ],
      "payable": false,
      "stateMutability": "pure",
      "type": "function"
    },
    {
      "constant": true,
      "inputs": [],
      "name": "MAX_GAS_PRICE",
      "outputs": [
        {
          "name": "",
          "type": "uint256"
        }
      ],
      "payable": false,
      "stateMutability": "view",
      "type": "function"
    },
    {
      "constant": true,
      "inputs": [],
      "name": "BTCS_ETHER_CAP_SMALL",
      "outputs": [
        {
          "name": "",
          "type": "uint256"
        }
      ],
      "payable": false,
      "stateMutability": "view",
      "type": "function"
    },
    {
      "constant": false,
      "inputs": [
        {
          "name": "_newOwner",
          "type": "address"
        }
      ],
      "name": "transferOwnership",
      "outputs": [],
      "payable": false,
      "stateMutability": "nonpayable",
      "type": "function"
    },
    {
      "constant": true,
      "inputs": [],
      "name": "token",
      "outputs": [
        {
          "name": "",
          "type": "address"
        }
      ],
      "payable": false,
      "stateMutability": "view",
      "type": "function"
    },
    {
      "inputs": [
        {
          "name": "_token",
          "type": "address"
        },
        {
          "name": "_startTime",
          "type": "uint256"
        },
        {
          "name": "_beneficiary",
          "type": "address"
        },
        {
          "name": "_btcs",
          "type": "address"
        },
        {
          "name": "_realEtherCapHash",
          "type": "bytes32"
        },
        {
          "name": "_startTimeOverride",
          "type": "uint256"
        }
      ],
      "payable": false,
      "stateMutability": "nonpayable",
      "type": "constructor"
    },
    {
      "payable": true,
      "stateMutability": "payable",
      "type": "fallback"
    },
    {
      "anonymous": false,
      "inputs": [
        {
          "indexed": true,
          "name": "_contributor",
          "type": "address"
        },
        {
          "indexed": false,
          "name": "_amount",
          "type": "uint256"
        },
        {
          "indexed": false,
          "name": "_return",
          "type": "uint256"
        }
      ],
      "name": "Contribution",
      "type": "event"
    },
    {
      "anonymous": false,
      "inputs": [
        {
          "indexed": true,
          "name": "_prevOwner",
          "type": "address"
        },
        {
          "indexed": true,
          "name": "_newOwner",
          "type": "address"
        }
      ],
      "name": "OwnerUpdate",
      "type": "event"
    }
  ],
  "bytecode": "0x60c0604052600360808190527f302e31000000000000000000000000000000000000000000000000000000000060a09081526200003e91908162000322565b5060006004819055600581905569d3c21bcecceda100000060065560075560098054600160a060020a0319908116909155600a805490911690553480156200008557600080fd5b5060405160c0806200180383398101604090815281516020830151918301516060840151608085015160a09095015160008054600160a060020a031916331790559294919290919085858585858480600160a060020a03811615156200014c57604080517f08c379a000000000000000000000000000000000000000000000000000000000815260206004820152600660248201527f3335373839660000000000000000000000000000000000000000000000000000604482015290519081900360640190fd5b5060028054600160a060020a031916600160a060020a03928316179055839081161515620001db57604080517f08c379a000000000000000000000000000000000000000000000000000000000815260206004820152600660248201527f3335373839660000000000000000000000000000000000000000000000000000604482015290519081900360640190fd5b82600160a060020a03811615156200025457604080517f08c379a000000000000000000000000000000000000000000000000000000000815260206004820152600660248201527f3335373839660000000000000000000000000000000000000000000000000000604482015290519081900360640190fd5b854281116200025f57fe5b8360008111620002d057604080517f08c379a000000000000000000000000000000000000000000000000000000000815260206004820152600660248201527f6231646534610000000000000000000000000000000000000000000000000000604482015290519081900360640190fd5b505060098054600160a060020a03968716600160a060020a031991821617909155600a805495909616941693909317909355600855505050600482905550621275000160055550620003c79350505050565b828054600181600116156101000203166002900490600052602060002090601f016020900481019282601f106200036557805160ff191683800117855562000395565b8280016001018555821562000395579182015b828111156200039557825182559160200191906001019062000378565b50620003a3929150620003a7565b5090565b620003c491905b80821115620003a35760008155600101620003ae565b90565b61142c80620003d76000396000f30060806040526004361061015b5763ffffffff60e060020a60003504166301d1c7fd81146101665780630d2806ad1461018d578063175323a8146101a25780631be05289146101aa5780631fc3a519146101bf57806321e6b53d146101d75780633197cbb6146101fa57806334971dd61461020f57806338a5e0161461022457806338af3eed1461023957806341a5b33d1461026a57806345cfad3e1461029457806354fd4d50146102a95780635e35359e1461033357806378e979251461035d57806379ba50971461037257806385d5e631146103875780638da5cb5b146103a1578063aa4bdd3b146103b6578063ad03abc5146103cb578063b3cffc6e146103e6578063b591fc69146103ee578063bb63224414610403578063d4ee1d9014610418578063e2119c801461042d578063e3bbb4f114610448578063ebaf2f3a1461045d578063f2fde38b14610472578063fc0c546a14610493575b6101636104a8565b50005b34801561017257600080fd5b5061017b6104d6565b60408051918252519081900360200190f35b34801561019957600080fd5b5061017b6104e4565b61017b6104a8565b3480156101b657600080fd5b5061017b6104e9565b3480156101cb57600080fd5b5061017b6004356104f0565b3480156101e357600080fd5b506101f8600160a060020a036004351661051a565b005b34801561020657600080fd5b5061017b6105ea565b34801561021b57600080fd5b5061017b6105f0565b34801561023057600080fd5b506101f86105f6565b34801561024557600080fd5b5061024e6106b1565b60408051600160a060020a039092168252519081900360200190f35b34801561027657600080fd5b506101f8600160a060020a03600435811690602435166044356106c0565b3480156102a057600080fd5b5061017b6107a1565b3480156102b557600080fd5b506102be6107a6565b6040805160208082528351818301528351919283929083019185019080838360005b838110156102f85781810151838201526020016102e0565b50505050905090810190601f1680156103255780820380516001836020036101000a031916815260200191505b509250505060405180910390f35b34801561033f57600080fd5b506101f8600160a060020a0360043581169060243516604435610834565b34801561036957600080fd5b5061017b610a29565b34801561037e57600080fd5b506101f8610a2f565b34801561039357600080fd5b506101f86004351515610b02565b3480156103ad57600080fd5b5061024e610bb7565b3480156103c257600080fd5b5061017b610bc6565b3480156103d757600080fd5b506101f8600435602435610bcc565b61017b610dec565b3480156103fa57600080fd5b5061017b610e36565b34801561040f57600080fd5b5061024e610e3c565b34801561042457600080fd5b5061024e610e4b565b34801561043957600080fd5b5061017b600435602435610e5a565b34801561045457600080fd5b5061017b610ee6565b34801561046957600080fd5b5061017b610eef565b34801561047e57600080fd5b506101f8600160a060020a0360043516610efb565b34801561049f57600080fd5b5061024e610fde565b60006004546005548142101580156104bf57508042105b15156104c757fe5b6104cf610fed565b9250505090565b690a968163f0a57b40000081565b606481565b6212750081565b6000610514600161050884606463ffffffff6112b116565b9063ffffffff61133516565b92915050565b600054600160a060020a03163314610568576040805160e560020a62461bcd028152602060048201526006602482015260d060020a6565373132393302604482015290519081900360640190fd5b600254604080517ff2fde38b000000000000000000000000000000000000000000000000000000008152600160a060020a0384811660048301529151919092169163f2fde38b91602480830192600092919082900301818387803b1580156105cf57600080fd5b505af11580156105e3573d6000803e3d6000fd5b5050505050565b60055481565b60065481565b600054600160a060020a03163314610644576040805160e560020a62461bcd028152602060048201526006602482015260d060020a6565373132393302604482015290519081900360640190fd5b600260009054906101000a9004600160a060020a0316600160a060020a03166379ba50976040518163ffffffff1660e060020a028152600401600060405180830381600087803b15801561069757600080fd5b505af11580156106ab573d6000803e3d6000fd5b50505050565b600954600160a060020a031681565b600054600160a060020a0316331461070e576040805160e560020a62461bcd028152602060048201526006602482015260d060020a6565373132393302604482015290519081900360640190fd5b600254604080517f5e35359e000000000000000000000000000000000000000000000000000000008152600160a060020a03868116600483015285811660248301526044820185905291519190921691635e35359e91606480830192600092919082900301818387803b15801561078457600080fd5b505af1158015610798573d6000803e3d6000fd5b50505050505050565b600181565b6003805460408051602060026001851615610100026000190190941693909304601f8101849004840282018401909252818152929183018282801561082c5780601f106108015761010080835404028352916020019161082c565b820191906000526020600020905b81548152906001019060200180831161080f57829003601f168201915b505050505081565b600054600160a060020a03163314610882576040805160e560020a62461bcd028152602060048201526006602482015260d060020a6565373132393302604482015290519081900360640190fd5b82600160a060020a03811615156108e3576040805160e560020a62461bcd02815260206004820152600660248201527f3335373839660000000000000000000000000000000000000000000000000000604482015290519081900360640190fd5b82600160a060020a0381161515610944576040805160e560020a62461bcd02815260206004820152600660248201527f3335373839660000000000000000000000000000000000000000000000000000604482015290519081900360640190fd5b83600160a060020a0381163014156109a6576040805160e560020a62461bcd02815260206004820152600660248201527f6665323738630000000000000000000000000000000000000000000000000000604482015290519081900360640190fd5b85600160a060020a031663a9059cbb86866040518363ffffffff1660e060020a0281526004018083600160a060020a0316600160a060020a0316815260200182815260200192505050600060405180830381600087803b158015610a0957600080fd5b505af1158015610a1d573d6000803e3d6000fd5b50505050505050505050565b60045481565b600154600160a060020a03163314610a91576040805160e560020a62461bcd02815260206004820152600660248201527f6639373561650000000000000000000000000000000000000000000000000000604482015290519081900360640190fd5b60015460008054604051600160a060020a0393841693909116917f343765429aea5a34b3ff6a3785a98a5abb2597aca87bfbb58632c173d585373a91a3600180546000805473ffffffffffffffffffffffffffffffffffffffff19908116600160a060020a03841617909155169055565b600054600160a060020a03163314610b50576040805160e560020a62461bcd028152602060048201526006602482015260d060020a6565373132393302604482015290519081900360640190fd5b600254604080517f1608f18f00000000000000000000000000000000000000000000000000000000815283151560048201529051600160a060020a0390921691631608f18f9160248082019260009290919082900301818387803b1580156105cf57600080fd5b600054600160a060020a031681565b60085481565b600054600160a060020a03163314610c1a576040805160e560020a62461bcd028152602060048201526006602482015260d060020a6565373132393302604482015290519081900360640190fd5b600254604080517f8da5cb5b00000000000000000000000000000000000000000000000000000000815290513092600160a060020a031691638da5cb5b9160048083019260209291908290030181600087803b158015610c7957600080fd5b505af1158015610c8d573d6000803e3d6000fd5b505050506040513d6020811015610ca357600080fd5b5051600160a060020a031614610d03576040805160e560020a62461bcd02815260206004820152600660248201527f3765663339660000000000000000000000000000000000000000000000000000604482015290519081900360640190fd5b600454600554814210158015610d1857508042105b1515610d2057fe5b60085484908490610d318383610e5a565b14610d86576040805160e560020a62461bcd02815260206004820152600660248201527f6232323935340000000000000000000000000000000000000000000000000000604482015290519081900360640190fd5b6006548610610ddf576040805160e560020a62461bcd02815260206004820152600660248201527f3330353436340000000000000000000000000000000000000000000000000000604482015290519081900360640190fd5b5050506006929092555050565b600a54600090600160a060020a03163314610e0357fe5b34671bc16d674ec80000610e22826007546113a390919063ffffffff16565b1115610e2a57fe5b6004544281116104c757fe5b60075481565b600a54600160a060020a031681565b600154600160a060020a031681565b6000828260405160200180838152602001828152602001925050506040516020818303038152906040526040518082805190602001908083835b60208310610eb35780518252601f199092019160209182019101610e94565b5181516020939093036101000a600019018019909116921691909117905260405192018290039091209695505050505050565b640ba43b740081565b671bc16d674ec8000081565b600054600160a060020a03163314610f49576040805160e560020a62461bcd028152602060048201526006602482015260d060020a6565373132393302604482015290519081900360640190fd5b600054600160a060020a0382811691161415610faf576040805160e560020a62461bcd02815260206004820152600660248201527f6632306333390000000000000000000000000000000000000000000000000000604482015290519081900360640190fd5b6001805473ffffffffffffffffffffffffffffffffffffffff1916600160a060020a0392909216919091179055565b600254600160a060020a031681565b60008030600160a060020a0316600260009054906101000a9004600160a060020a0316600160a060020a0316638da5cb5b6040518163ffffffff1660e060020a028152600401602060405180830381600087803b15801561104d57600080fd5b505af1158015611061573d6000803e3d6000fd5b505050506040513d602081101561107757600080fd5b5051600160a060020a0316146110d7576040805160e560020a62461bcd02815260206004820152600660248201527f3765663339660000000000000000000000000000000000000000000000000000604482015290519081900360640190fd5b346006546110f0826007546113a390919063ffffffff16565b11156110f857fe5b640ba43b74003a111561110757fe5b611110346104f0565b600954604051919350600160a060020a0316903480156108fc02916000818181858888f1935050505015801561114a573d6000803e3d6000fd5b5060075461115e903463ffffffff6113a316565b600755600254604080517f867904b4000000000000000000000000000000000000000000000000000000008152336004820152602481018590529051600160a060020a039092169163867904b49160448082019260009290919082900301818387803b1580156111cd57600080fd5b505af11580156111e1573d6000803e3d6000fd5b5050600254600954604080517f867904b4000000000000000000000000000000000000000000000000000000008152600160a060020a03928316600482015260248101889052905191909216935063867904b49250604480830192600092919082900301818387803b15801561125657600080fd5b505af115801561126a573d6000803e3d6000fd5b5050604080513481526020810186905281513394507f5f7675b09617d2c9fa4fd13058ee5877a9538f626b0308816736e83748a4504093509081900390910190a250919050565b6000808315156112c4576000915061132e565b508282028284828115156112d457fe5b041461132a576040805160e560020a62461bcd02815260206004820152600660248201527f6662653835310000000000000000000000000000000000000000000000000000604482015290519081900360640190fd5b8091505b5092915050565b60008080831161138f576040805160e560020a62461bcd02815260206004820152600660248201527f6337386131380000000000000000000000000000000000000000000000000000604482015290519081900360640190fd5b828481151561139a57fe5b04949350505050565b60008282018381101561132a576040805160e560020a62461bcd02815260206004820152600660248201527f3232613836390000000000000000000000000000000000000000000000000000604482015290519081900360640190fd00a165627a7a7230582044f0396384066667007943215512d7b5c895ea2292cb7ce36ed8e5940ba4685c0029",
  "source": "pragma solidity ^0.4.24;\nimport '../crowdsale/CrowdsaleController.sol';\n\n/*\n    Test crowdsale controller with start time < now < end time\n*/\ncontract TestCrowdsaleController is CrowdsaleController {\n    using SafeMath for uint256;\n\n    \n    uint256 public constant BTCS_ETHER_CAP_SMALL = 2 ether; // maximum bitcoin suisse ether contribution\n\n    constructor(\n        ISmartToken _token,\n        uint256 _startTime,\n        address _beneficiary,\n        address _btcs,\n        bytes32 _realEtherCapHash,\n        uint256 _startTimeOverride)\n        public\n        CrowdsaleController(_token, _startTime, _beneficiary, _btcs, _realEtherCapHash)\n    {\n        startTime = _startTimeOverride;\n        endTime = startTime + DURATION;\n    }\n\n    modifier btcsEtherCapNotReached(uint256 _ethContribution) {\n        assert(totalEtherContributed.add(_ethContribution) <= BTCS_ETHER_CAP_SMALL);\n        _;\n    }\n}\n",
  "sourcePath": "/home/lash/src/ext/sempo/contracts/solidity/contracts/helpers/TestCrowdsaleController.sol",
  "compiler": {
    "name": "solc",
    "version": "0.4.26+commit.4563c3fc.Emscripten.clang"
  },
  "schemaVersion": "3.0.11",
  "updatedAt": "2020-02-26T09:32:34.244Z",
  "devdoc": {
    "methods": {
      "acceptOwnership()": {
        "details": "used by a new owner to accept an ownership transfer"
      },
      "acceptTokenOwnership()": {
        "details": "used by a new owner to accept a token ownership transfer can only be called by the contract owner"
      },
      "computeRealCap(uint256,uint256)": {
        "details": "computes the real cap based on the given cap & key",
        "params": {
          "_cap": "cap",
          "_key": "key used to compute the cap hash"
        },
        "return": "computed real cap hash"
      },
      "computeReturn(uint256)": {
        "details": "computes the number of tokens that should be issued for a given contribution",
        "params": {
          "_contribution": "contribution amount"
        },
        "return": "computed number of tokens"
      },
      "contributeBTCs()": {
        "details": "Contribution through BTCs (Bitcoin Suisse only) can only be called before the crowdsale started",
        "return": "tokens issued in return"
      },
      "contributeETH()": {
        "details": "ETH contribution can only be called during the crowdsale",
        "return": "tokens issued in return"
      },
      "disableTokenTransfers(bool)": {
        "details": "disables/enables token transfers can only be called by the contract owner",
        "params": {
          "_disable": "true to disable transfers, false to enable them"
        }
      },
      "enableRealCap(uint256,uint256)": {
        "details": "enables the real cap defined on deployment",
        "params": {
          "_cap": "predefined cap",
          "_key": "key used to compute the cap hash"
        }
      },
      "transferOwnership(address)": {
        "details": "allows transferring the contract ownership the new owner still needs to accept the transfer can only be called by the contract owner",
        "params": {
          "_newOwner": "new contract owner"
        }
      },
      "transferTokenOwnership(address)": {
        "details": "allows transferring the token ownership the new owner needs to accept the transfer can only be called by the contract owner",
        "params": {
          "_newOwner": "new token owner"
        }
      },
      "withdrawFromToken(address,address,uint256)": {
        "details": "withdraws tokens held by the controller and sends them to an account can only be called by the owner",
        "params": {
          "_amount": "amount to withdraw",
          "_to": "account to receive the new amount",
          "_token": "ERC20 token contract address"
        }
      },
      "withdrawTokens(address,address,uint256)": {
        "details": "withdraws tokens held by the contract and sends them to an account can only be called by the owner",
        "params": {
          "_amount": "amount to withdraw",
          "_to": "account to receive the new amount",
          "_token": "ERC20 token contract address"
        }
      }
    }
  },
  "userdoc": {
    "methods": {}
  }
}