{
  "contractName": "XTransferRerouter",
  "abi": [
    {
      "constant": false,
      "inputs": [],
      "name": "acceptOwnership",
      "outputs": [],
      "payable": false,
      "stateMutability": "nonpayable",
      "type": "function"
    },
    {
      "constant": true,
      "inputs": [],
      "name": "owner",
      "outputs": [
        {
          "name": "",
          "type": "address"
        }
      ],
      "payable": false,
      "stateMutability": "view",
      "type": "function"
    },
    {
      "constant": true,
      "inputs": [],
      "name": "newOwner",
      "outputs": [
        {
          "name": "",
          "type": "address"
        }
      ],
      "payable": false,
      "stateMutability": "view",
      "type": "function"
    },
    {
      "constant": true,
      "inputs": [],
      "name": "reroutingEnabled",
      "outputs": [
        {
          "name": "",
          "type": "bool"
        }
      ],
      "payable": false,
      "stateMutability": "view",
      "type": "function"
    },
    {
      "constant": false,
      "inputs": [
        {
          "name": "_newOwner",
          "type": "address"
        }
      ],
      "name": "transferOwnership",
      "outputs": [],
      "payable": false,
      "stateMutability": "nonpayable",
      "type": "function"
    },
    {
      "inputs": [
        {
          "name": "_reroutingEnabled",
          "type": "bool"
        }
      ],
      "payable": false,
      "stateMutability": "nonpayable",
      "type": "constructor"
    },
    {
      "anonymous": false,
      "inputs": [
        {
          "indexed": true,
          "name": "_txId",
          "type": "uint256"
        },
        {
          "indexed": false,
          "name": "_toBlockchain",
          "type": "bytes32"
        },
        {
          "indexed": false,
          "name": "_to",
          "type": "bytes32"
        }
      ],
      "name": "TxReroute",
      "type": "event"
    },
    {
      "anonymous": false,
      "inputs": [
        {
          "indexed": true,
          "name": "_prevOwner",
          "type": "address"
        },
        {
          "indexed": true,
          "name": "_newOwner",
          "type": "address"
        }
      ],
      "name": "OwnerUpdate",
      "type": "event"
    },
    {
      "constant": false,
      "inputs": [
        {
          "name": "_enable",
          "type": "bool"
        }
      ],
      "name": "enableRerouting",
      "outputs": [],
      "payable": false,
      "stateMutability": "nonpayable",
      "type": "function"
    },
    {
      "constant": false,
      "inputs": [
        {
          "name": "_txId",
          "type": "uint256"
        },
        {
          "name": "_blockchain",
          "type": "bytes32"
        },
        {
          "name": "_to",
          "type": "bytes32"
        }
      ],
      "name": "rerouteTx",
      "outputs": [],
      "payable": false,
      "stateMutability": "nonpayable",
      "type": "function"
    }
  ],
  "bytecode": "0x608060405234801561001057600080fd5b50604051602080610563833981016040525160008054600160a060020a0319163317905560018054911515740100000000000000000000000000000000000000000260a060020a60ff02199092169190911790556104f0806100736000396000f3006080604052600436106100825763ffffffff7c010000000000000000000000000000000000000000000000000000000060003504166379ba509781146100875780638da5cb5b1461009e578063a3ebe71c146100cf578063d4ee1d90146100e9578063e3db16f7146100fe578063edd63c351461011c578063f2fde38b14610145575b600080fd5b34801561009357600080fd5b5061009c610166565b005b3480156100aa57600080fd5b506100b3610239565b60408051600160a060020a039092168252519081900360200190f35b3480156100db57600080fd5b5061009c6004351515610248565b3480156100f557600080fd5b506100b36102ea565b34801561010a57600080fd5b5061009c6004356024356044356102f9565b34801561012857600080fd5b506101316103ac565b604080519115158252519081900360200190f35b34801561015157600080fd5b5061009c600160a060020a03600435166103cd565b600154600160a060020a031633146101c8576040805160e560020a62461bcd02815260206004820152600660248201527f6639373561650000000000000000000000000000000000000000000000000000604482015290519081900360640190fd5b60015460008054604051600160a060020a0393841693909116917f343765429aea5a34b3ff6a3785a98a5abb2597aca87bfbb58632c173d585373a91a3600180546000805473ffffffffffffffffffffffffffffffffffffffff19908116600160a060020a03841617909155169055565b600054600160a060020a031681565b600054600160a060020a031633146102aa576040805160e560020a62461bcd02815260206004820152600660248201527f6537313239330000000000000000000000000000000000000000000000000000604482015290519081900360640190fd5b60018054911515740100000000000000000000000000000000000000000274ff000000000000000000000000000000000000000019909216919091179055565b600154600160a060020a031681565b60015474010000000000000000000000000000000000000000900460ff16151561036d576040805160e560020a62461bcd02815260206004820152600660248201527f6338363365350000000000000000000000000000000000000000000000000000604482015290519081900360640190fd5b6040805183815260208101839052815185927fb5c80f971fb729e469ffa874c60425659ce82cb4adcfba9731af35ef87b6e619928290030190a2505050565b60015474010000000000000000000000000000000000000000900460ff1681565b600054600160a060020a0316331461042f576040805160e560020a62461bcd02815260206004820152600660248201527f6537313239330000000000000000000000000000000000000000000000000000604482015290519081900360640190fd5b600054600160a060020a0382811691161415610495576040805160e560020a62461bcd02815260206004820152600660248201527f6632306333390000000000000000000000000000000000000000000000000000604482015290519081900360640190fd5b6001805473ffffffffffffffffffffffffffffffffffffffff1916600160a060020a03929092169190911790555600a165627a7a72305820f6ba734d3979c6a712760a236d1911e107ac3abccd058fe9b2d72dad309ce5210029",
  "source": "pragma solidity ^0.4.24;\n\nimport \"../utility/Owned.sol\";\n\ncontract XTransferRerouter is Owned {\n    bool public reroutingEnabled;\n\n    // triggered when a rerouteTx is called\n    event TxReroute(\n        uint256 indexed _txId,\n        bytes32 _toBlockchain,\n        bytes32 _to\n    );\n\n    /**\n        @dev initializes a new XTransferRerouter instance\n\n        @param _reroutingEnabled    intializes transactions routing to enabled/disabled   \n     */\n    constructor(bool _reroutingEnabled) public {\n        reroutingEnabled = _reroutingEnabled;\n    }\n    /**\n        @dev allows the owner to disable/enable rerouting\n\n        @param _enable     true to enable, false to disable\n     */\n    function enableRerouting(bool _enable) public ownerOnly {\n        reroutingEnabled = _enable;\n    }\n\n    // allows execution only when rerouting enabled\n    modifier whenReroutingEnabled {\n        require(reroutingEnabled, 'c863e5');\n        _;\n    }\n\n    /**\n        @dev    allows a user to reroute a transaction to a new blockchain/target address\n\n        @param _txId        the original transaction id\n        @param _blockchain  the new blockchain name\n        @param _to          the new target address/account\n     */\n    function rerouteTx(\n        uint256 _txId,\n        bytes32 _blockchain,\n        bytes32 _to\n    )\n        public\n        whenReroutingEnabled \n    {\n        emit TxReroute(_txId, _blockchain, _to);\n    }\n\n}",
  "sourcePath": "/home/lash/src/ext/sempo/contracts/solidity/contracts/bancorx/XTransferRerouter.sol",
  "compiler": {
    "name": "solc",
    "version": "0.4.26+commit.4563c3fc.Emscripten.clang"
  },
  "schemaVersion": "3.0.11",
  "updatedAt": "2020-02-26T09:32:34.100Z",
  "devdoc": {
    "methods": {
      "acceptOwnership()": {
        "details": "used by a new owner to accept an ownership transfer"
      },
      "enableRerouting(bool)": {
        "details": "allows the owner to disable/enable rerouting",
        "params": {
          "_enable": "true to enable, false to disable"
        }
      },
      "rerouteTx(uint256,bytes32,bytes32)": {
        "details": "allows a user to reroute a transaction to a new blockchain/target address",
        "params": {
          "_blockchain": "the new blockchain name",
          "_to": "the new target address/account",
          "_txId": "the original transaction id"
        }
      },
      "transferOwnership(address)": {
        "details": "allows transferring the contract ownership the new owner still needs to accept the transfer can only be called by the contract owner",
        "params": {
          "_newOwner": "new contract owner"
        }
      }
    }
  },
  "userdoc": {
    "methods": {}
  }
}